:100000000C943B010C946C010C946C010C946C01ED
:100010000C946C010C946C010C946C010C946C01AC
:100020000C946C010C946C010C946C010C946C019C
:100030000C946C010C946C010C946C010C946C018C
:100040000C946C010C946C010C946C010C946C017C
:100050000C946C010C946C010C946C010C949A043B
:100060000C946C010C9464040C943A040C946C0190
:100070000C946C010C946C010C946C010C946C014C
:100080000C946C010C946C010C946C010C946C013C
:100090000C946C010C946C010C946C010C946C012C
:1000A0000C946C010C946C010C946C010C946C011C
:1000B0000C946C010C946C010C946C010C946C010C
:1000C0000C946C010C946C010C946C010C946C01FC
:1000D0000C946C010C946C010C946C010C946C01EC
:1000E0000C946C010C948A030C94F6030C94780322
:1000F0000C9401020C94E4020C9436040C947203E8
:100100000C9497020C945D030C9480030C9486036A
:100110000C9465030C9468030C9498030C94590395
:100120000C94C5030C943D020C9494030C948E0320
:100130000C9461030C947C030C9493030C94510273
:100140000C946E030C942E020C945F020C945303D7
:100150000C94E40400002100240027002A002D0054
:100160003000330001010000040107010A01000012
:100170002200250028002B002E003100340002014F
:100180000000050108010B010000200023002600EB
:1001900029002C002F00320000010000030106019D
:1001A00009010505050507050808080802020202FD
:1001B0000A0A080804040404010101010101010103
:1001C0000303030303030303040707070C0C0C0CCE
:1001D0000C0C0C0C020202020606060606060606B7
:1001E0000B0B0B0B0B0B0B0B010210202008081044
:1001F0002040102040800201020108040201010297
:10020000040810204080804020100804020180046F
:1002100002018040201008040201080402010102CA
:1002200004081020408001020408102040800000D3
:100230000A0B02090C0D0E08070304010000000060
:1002400000000000000000000000000000000000AE
:10025000000000000000000000001211100000006B
:10026000000000000000000000000000000000008E
:1002700000000000E40411241FBECFEFD1E2DEBF76
:10028000CDBF00E00CBF12E0A0E0B2E0E2EFFEE084
:1002900000E00BBF02C007900D92A034B107D9F760
:1002A00023E0A0E4B2E001C01D92A535B207E1F75A
:1002B00011E0CBE3D1E000E006C021970109802FD7
:1002C000FE010E946F07CA33D10780E00807A9F733
:1002D0000E9471050C9477070C94000096E0899FAA
:1002E000D0011124AA51BD4F90967C936E935F97D5
:1002F00091E091969C939197E0915303F091540370
:1003000090915203992339F0309751F0811108C030
:10031000809102031994309719F05C968C91FACF72
:100320000895CF92DF92EF92FF920F931F9396E082
:10033000899FF0011124EA51FD4F11A2278D30A1B0
:100340002130310551F178F02230310509F451C0E6
:100350002330310509F452C01F910F91FF90EF90A7
:10036000DF90CF9008956623B9F361E070E00E94BA
:100370006E012FB7F8948091450290914602A091AA
:100380004702B09148022FBF80933E0390933F03F2
:10039000A0934003B0934103DFCF9FB7F894C09080
:1003A0004502D0904602E0904702F09048029FBF7D
:1003B00000913E0310913F0320914003309141038F
:1003C000C01AD10AE20AF30A0091500310915103B6
:1003D00030E020E00C151D052E053F0550F462E0CD
:1003E00070E01F910F91FF90EF90DF90CF900C94F1
:1003F0006E016111B1CF63E070E0F3CF70E060E0B7
:10040000F0CFAF92BF92CF92DF92EF92FF920F9315
:100410001F93CF93DF936C017B018B01040F151F9A
:10042000EB015E01AE18BF08C017D10759F0699102
:10043000D601ED91FC910190F081E02DC601199556
:10044000892B79F7C501DF91CF911F910F91FF9013
:10045000EF90DF90CF90BF90AF900895FC01538D47
:10046000448D252F30E0842F90E0821B930B54178E
:1004700010F0CF96089501970895FC01918D828D1B
:10048000981761F0A28DAE0FBF2FB11D5D968C91B4
:10049000928D9F5F9F73928F90E008958FEF9FEFF3
:1004A0000895FC01918D828D981731F0828DE80FAF
:1004B000F11D858D90E008958FEF9FEF0895FC0169
:1004C000918D228D892F90E0805C9F4F821B910936
:1004D0008F739927089589E492E00E945F0221E0DA
:1004E000892B09F420E0822F0895FC01A48DA80F28
:1004F000B92FB11DA35ABF4F2C91848D90E0019666
:100500008F739927848FA689B7892C93A089B18985
:100510008C91837080648C93938D848D981306C026
:100520000288F389E02D80818F7D80830895EF928A
:10053000FF920F931F93CF93DF93EC0181E0888F9D
:100540009B8D8C8D98131AC0E889F989808185FF6D
:1005500015C09FB7F894EE89FF896083E889F9890F
:1005600080818370806480839FBF81E090E0DF9111
:10057000CF911F910F91FF90EF900895F62E0B8D64
:1005800010E00F5F1F4F0F731127E02E8C8D8E111F
:100590000CC00FB607FCFACFE889F989808185FF86
:1005A000F5CFCE010E947502F1CFEB8DEC0FFD2F40
:1005B000F11DE35AFF4FF0829FB7F8940B8FEA8941
:1005C000FB8980818062CFCFCF93DF93EC01888D50
:1005D0008823B9F0AA89BB89E889F9898C9185FDBE
:1005E00003C0808186FD0DC00FB607FCF7CF8C914C
:1005F00085FFF2CF808185FFEDCFCE010E9475028D
:10060000E9CFDF91CF91089580E090E0892B29F028
:100610000E946B0281110E94000080E090E0892B13
:1006200049F080E090E0892B29F00E9400008111C0
:100630000E94000080E090E0892B49F080E090E08B
:10064000892B29F00E94000081110E94000080E0A7
:1006500090E0892B49F080E090E0892B29F00E94FE
:10066000000081110C94000008958150823108F03F
:100670005AC0E82FF0E08827EF5BFC4F8F4F0C94B7
:100680006F0761036503530359035D039303680315
:100690006E03720378037C03800386038A0393034B
:1006A0008E0394039803809180008F77809380005D
:1006B0000895809180008F7DF9CF80918000877FA1
:1006C000F5CF84B58F7784BD089584B58F7DFBCF3A
:1006D0008091B0008F778093B00008958091B00032
:1006E0008F7DF9CF809190008F778093900008954F
:1006F000809190008F7DF9CF80919000877FF5CF1A
:100700008091A0008F778093A00008958091A00031
:100710008F7DF9CF8091A000877FF5CF8091200158
:100720008F77809320010895809120018F7DF9CFEC
:1007300080912001877FF5CFCF93DF93282F30E082
:10074000F901E25DFD4F8491F901E851FE4FD4912A
:10075000F901EE55FE4FC491CC23A1F081110E9406
:100760003503EC2FF0E0EE0FFF1FE857FE4FA59189
:10077000B491EC91ED2381E090E009F480E0DF9109
:10078000CF91089580E090E0FACF862F0C949C03DF
:100790001F93CF93DF93282F30E0F901E25DFD4FE7
:1007A0008491F901E851FE4FD491F901EE55FE4FC5
:1007B000C491CC23A9F0162F81110E943503EC2F90
:1007C000F0E0EE0FFF1FE259FE4FA591B4918FB7F5
:1007D000F894EC91111108C0D095DE23DC938FBF03
:1007E000DF91CF911F910895DE2BF8CF862F642FD4
:1007F0000C94C803CF93DF9390E0FC01E851FE4FC7
:1008000024918E559E4FFC0184918823C9F090E07D
:10081000880F991FFC01EC5AFE4FA591B491FC0181
:10082000E259FE4FC591D49161110DC09FB7F89464
:100830008C91209582238C938881282328839FBFC5
:10084000DF91CF910895623051F49FB7F8943C91B5
:10085000822F809583238C93E8812E2BEFCF8FB747
:10086000F894EC912E2B2C938FBFEACF862F642F18
:100870000C94FA031F920F920FB60F9211240BB62D
:100880000F922F933F934F935F936F937F938F9329
:100890009F93AF93BF93EF93FF9389E492E00E94FD
:1008A0007502FF91EF91BF91AF919F918F917F91D1
:1008B0006F915F914F913F912F910F900BBE0F90D1
:1008C0000FBE0F901F9018951F920F920FB60F92A8
:1008D00011240BB60F922F938F939F93EF93FF9357
:1008E000E0915902F0915A028081E0915F02F0910B
:1008F000600282FD1DC09081809162028F5F8F73C4
:1009000020916302821741F0E0916202F0E0E75B20
:10091000FD4F958F80936202FF91EF919F918F9190
:100920002F910F900BBE0F900FBE0F901F90189538
:100930008081F2CF1F920F920FB60F9211242F9346
:100940003F938F939F93AF93BF9380914502909174
:100950004602A0914702B09148023091440223E040
:10096000230F2D3758F50196A11DB11D2093440288
:100970008093450290934602A0934702B0934802A9
:100980008091400290914102A0914202B0914302B5
:100990000196A11DB11D8093400290934102A09346
:1009A0004202B0934302BF91AF919F918F913F91CB
:1009B0002F910F900FBE0F901F90189526E8230FD0
:1009C0000296A11DB11DD2CF10924C0210924B0283
:1009D00088EE93E0A0E0B0E080934D0290934E0249
:1009E000A0934F02B093500285E292E090934A02A6
:1009F0008093490285EC90E09093560280935502D3
:100A000084EC90E0909358028093570280EC90E041
:100A100090935A028093590281EC90E090935C028B
:100A200080935B0282EC90E090935E0280935D0283
:100A300086EC90E09093600280935F0210926202D5
:100A40001092630210926402109265021092E80202
:100A50001092EC021092EB021092ED0287E392E00A
:100A60009093E7028093E602E2E0F3E010821482C2
:100A700013821582369683E0EE33F807B9F784E0E7
:100A800092E0909349038093480380E092E0909332
:100A90004B0380934A0384E080934C0380934D037F
:100AA00088E092E090934703809346038AE090E0C9
:100AB00090934F0380934E0384EF91E09093510302
:100AC00080935003109254031092530310924203E8
:100AD0001092430310924403109245031092520364
:100AE0000895789484B5826084BD84B5816084BDA6
:100AF00085B5826085BD85B5816085BD80916E00BC
:100B0000816080936E0010928100809181008260EC
:100B10008093810080918100816080938100809129
:100B200080008160809380008091B1008460809318
:100B3000B1008091B00081608093B00080919100FD
:100B400082608093910080919100816080939100F8
:100B5000809190008160809390008091A1008260DC
:100B60008093A1008091A10081608093A100809179
:100B7000A00081608093A000809121018260809319
:100B800021018091210181608093210180912001C8
:100B900081608093200180917A00846080937A0044
:100BA00080917A00826080937A0080917A008160DF
:100BB00080937A0080917A00806880937A00109206
:100BC000C100E0915902F0915A0282E08083E091E5
:100BD0005502F09156021082E0915702F0915802AE
:100BE0008FEC808310926102E0915D02F0915E02D1
:100BF00086E08083E0915B02F0915C0280818061FD
:100C00008083E0915B02F0915C0280818860808348
:100C1000E0915B02F0915C02808180688083E091CA
:100C20005B02F0915C0280818F7D8083C8E1D2E01D
:100C300061E089910E94FA0382E0C132D807C1F7CE
:100C400022242394412C512C32014394CC24CA9465
:100C5000DC2C56E0352E209252038FB7F894409149
:100C600045025091460260914702709148028FBF41
:100C70008091420390914303A0914403B0914503B6
:100C8000481B590B6A0B7B0B80914E0390914F03CD
:100C9000B0E0A0E084179507A607B70708F00DC1DC
:100CA000C0E080914C03C81760F4E0914803F091D4
:100CB0004903EC0FF11D62E080810E94FA03CF5FCF
:100CC000F0CF912C80914D03981608F05FC0092D4C
:100CD00010E0E0914A03F0914B03E00FF11F61E057
:100CE00080810E94FA03E0914A03F0914B03E00FE8
:100CF000F11F60E080810E94C803D301C201092C6A
:100D000004C0880F991FAA1FBB1F0A94D2F75C0169
:100D10007C01E094F094812C80914C038816F8F4C7
:100D2000C82DD0E0E0914803F0914903EC0FFD1F7E
:100D300080810E949C032496CC0FDD1FCA51DD4F99
:100D4000892B41F4888199818A299B2999838883F9
:100D50008394E2CF888199818E219F21F7CFE09102
:100D60004A03F0914B03E00FF11F61E080810E9484
:100D7000C80380914A0390914B03080F191F60E04C
:100D8000F80180810E94FA0393949CCFC6EED2E0D2
:100D9000FE01878D90A1892B21F4148ED68EC58EED
:100DA00011A2369683E0E232F80799F710E08091BD
:100DB0004C03181708F052C000E0E12EF12CEE0CA5
:100DC000FF1CF701E251FD4F7F0120914D030217F7
:100DD00008F042C0F70160817181002E02C0769553
:100DE00067950A94E2F7129F90011124200F311D9C
:100DF000E6EEF2E080E0458D568D2417350709F4C4
:100E00006CC08F5F36968A30B1F760FF23C0E6EE84
:100E1000F2E090E080E0448D411117C0E09146037C
:100E2000F0914703E20FF31F6081389EF001399E75
:100E3000F00D1124EA51FD4F648F368F258F10A2DB
:100E4000178E61E00E94910105C0019636968A30A6
:100E5000910509F70F5FB9CF1F5FA9CF80E099A176
:100E60009111892F2696F3E0C232DF07C1F79FB7B1
:100E7000F89440914502509146026091470270916A
:100E800048029FBF4093420350934303609344033F
:100E900070934503882389F080910703882369F0C4
:100EA0008091050390910603019739F46091020344
:100EB000611106C00E940403CECE10925203FACFF5
:100EC00089E492E00E94970242E050E06DE372E014
:100ED00089E492E00E940102EDCF6170B3CFEE0F82
:100EE000FF1F881F8BBF0790F691E02D1994F8948F
:020EF000FFCF32
:100EF2001A1B1C1D161718193738392F3435362A84
:100F02003132332D6F303D2B363738393A3B3C3D49
:100F12003E00000000970201022E02E4025F023D41
:100F2200025102000000003604F603C5030D0A0058
:00000001FF
