:100000000C943E010C946F010C946F010C946F01E1
:100010000C946F010C946F010C946F010C946F01A0
:100020000C946F010C946F010C946F010C946F0190
:100030000C946F010C946F010C946F010C946F0180
:100040000C946F010C9461060C946F010C946F0179
:100050000C946F010C946F010C946F010C948D053E
:100060000C946F010C9457050C942D050C946F01A2
:100070000C946F010C946F010C946F010C946F0140
:100080000C9433060C946F010C946F010C946F0167
:100090000C946F010C946F010C946F010C946F0120
:1000A0000C946F010C946F010C9405060C946F0175
:1000B0000C946F010C946F010C946F010C94D70594
:1000C0000C946F010C946F010C946F010C946F01F0
:1000D0000C946F010C946F010C946F010C946F01E0
:1000E0000C946F010C9487030C94EF020C946A0239
:1000F0000C9439020C9468030C9470030C949E03C6
:100100000C9401040C94A2020C947D030C944802FC
:100110000C9495030C9491030C9499030C9479031B
:100120000C9441040C9404020C94D0030C945C02D3
:100130000C94C90A0C945E030C94A3030C946403FE
:100140000C948B030C9483030C9473030C949F0303
:100150000C948F060C946C030000210024002700EF
:100160002A002D00300033000101000004010701C6
:100170000A0100002200250028002B002E0031007B
:10018000340002010000050108010B0100002000FD
:100190002300260029002C002F003200000100005F
:1001A00003010601090105050505070508080808FA
:1001B000020202020A0A08080404040401010101FF
:1001C00001010101030303030303030304070707FA
:1001D0000C0C0C0C0C0C0C0C02020202060606069F
:1001E000060606060B0B0B0B0B0B0B0B010210206C
:1001F000200808102040102040800201020108045D
:1002000002010102040810204080804020100804F0
:100210000201800402018040201008040201080449
:10022000020101020408102040800102040810208D
:10023000408000000A0B02090C0D0E0807030401A0
:1002400000000000000000000000000000000000AE
:10025000000000000000000000000000000012117B
:10026000100000000000000000000000000000007E
:1002700000000000000000008F06C90A11241FBE04
:10028000CFEFD1E2DEBFCDBF00E00CBF12E0A0E0B7
:10029000B2E0EAE5FBE100E00BBF02C007900D927F
:1002A000AE33B107D9F723E0AEE3B2E001C01D924F
:1002B000A53FB207E1F711E0CDE3D1E000E006C0D1
:1002C00021970109802FFE010E947D0BCC33D107BD
:1002D00080E00807A9F70E9467070C949B0D0C9417
:1002E000000096E0899FD0011124AE57BC4F909634
:1002F0007C936E935F9791E091969C939197E09198
:10030000EF03F091F0039091EE03992339F03097C9
:1003100051F0811108C080919E031994309719F013
:100320005C968C91FACF0895CF92DF92EF92FF9274
:100330000F931F9396E0899FF0011124EE57FC4F15
:1003400011A2278D30A12130310551F178F02230F2
:10035000310509F451C02330310509F452C01F9111
:100360000F91FF90EF90DF90CF9008956623B9F33F
:1003700061E070E00E9471012FB7F894809147020C
:1003800090914802A0914902B0914A022FBF8093F8
:10039000DA039093DB03A093DC03B093DD03DFCF9C
:1003A0009FB7F894C0904702D0904802E09049026D
:1003B000F0904A029FBF0091DA031091DB03209175
:1003C000DC033091DD03C01AD10AE20AF30A00917E
:1003D000EC031091ED0330E020E00C151D052E0517
:1003E0003F0550F462E070E01F910F91FF90EF9095
:1003F000DF90CF900C9471016111B1CF63E070E098
:10040000F3CF70E060E0F0CFAF92BF92CF92DF9277
:10041000EF92FF920F931F93CF93DF936C017B01B9
:100420008B01040F151FEB015E01AE18BF08C0174A
:10043000D10759F06991D601ED91FC910190F081BD
:10044000E02DC6011995892B79F7C501DF91CF9170
:100450001F910F91FF90EF90DF90CF90BF90AF90E2
:10046000089542E050E06AE372E08BE492E00C947D
:100470000402FC01538D448D252F30E0842F90E041
:10048000821B930B541710F0CF960895019708958F
:10049000FC01918D828D981761F0A28DAE0FBF2F58
:1004A000B11D5D968C91928D9F5F9F73928F90E0AE
:1004B00008958FEF9FEF0895FC01918D828D98171D
:1004C00031F0828DE80FF11D858D90E008958FEF5A
:1004D0009FEF0895FC01918D228D892F90E0805C23
:1004E0009F4F821B91098F73992708958BE492E0A7
:1004F0000E946A0221E0892B09F420E0822F0895EE
:10050000FC01A48DA80FB92FB11DA35ABF4F2C9188
:10051000848D90E001968F739927848FA689B7897F
:100520002C93A089B1898C91837080648C93938D76
:10053000848D981306C00288F389E02D80818F7D19
:1005400080830895EF92FF920F931F93CF93DF93D1
:10055000EC0181E0888F9B8D8C8D98131AC0E889FF
:10056000F989808185FF15C09FB7F894EE89FF89CE
:100570006083E889F98980818370806480839FBF6C
:1005800081E090E0DF91CF911F910F91FF90EF906C
:100590000895F62E0B8D10E00F5F1F4F0F7311277C
:1005A000E02E8C8D8E110CC00FB607FCFACFE889B7
:1005B000F989808185FFF5CFCE010E948002F1CFBD
:1005C000EB8DEC0FFD2FF11DE35AFF4FF0829FB72B
:1005D000F8940B8FEA89FB8980818062CFCFCF931B
:1005E000DF93EC01888D8823B9F0AA89BB89E8895B
:1005F000F9898C9185FD03C0808186FD0DC00FB601
:1006000007FCF7CF8C9185FFF2CF808185FFEDCF7E
:10061000CE010E948002E9CFDF91CF91089580E062
:1006200090E0892B29F00E94760281110E9400003F
:1006300080E090E0892B49F080E090E0892B29F060
:100640000E94000081110E94000080E090E0892B50
:1006500049F080E090E0892B29F00E940000811190
:100660000E94000080E090E0892B49F080E090E05B
:10067000892B29F00E94000081110C94000008953C
:100680008150823108F05AC0E82FF0E08827E45BFF
:10069000FC4F8F4F0C947D0B6C0370035E0364035F
:1006A00068039E03730379037D03830387038B032E
:1006B000910395039E0399039F03A30380918000F8
:1006C0008F77809380000895809180008F7DF9CF8F
:1006D00080918000877FF5CF84B58F7784BD0895A2
:1006E00084B58F7DFBCF8091B0008F778093B00071
:1006F00008958091B0008F7DF9CF809190008F7721
:10070000809390000895809190008F7DF9CF809123
:100710009000877FF5CF8091A0008F778093A00015
:1007200008958091A0008F7DF9CF8091A000877FF0
:10073000F5CF809120018F778093200108958091DB
:1007400020018F7DF9CF80912001877FF5CFCF9356
:10075000DF93282F30E0F901EE5CFD4F8491F90121
:10076000E451FE4FD491F901EA55FE4FC491CC23D8
:10077000A1F081110E944003EC2FF0E0EE0FFF1F6B
:10078000E457FE4FA591B491EC91ED2381E090E008
:1007900009F480E0DF91CF91089580E090E0FACFF6
:1007A000862F0C94A7031F93CF93DF93282F30E05D
:1007B000F901EE5CFD4F8491F901E451FE4FD491B3
:1007C000F901EA55FE4FC491CC23A9F0162F8111EF
:1007D0000E944003EC2FF0E0EE0FFF1FEE58FE4F9B
:1007E000A591B4918FB7F894EC91111108C0D095F0
:1007F000DE23DC938FBFDF91CF911F910895DE2B15
:10080000F8CF862F642F0C94D303CF93DF9390E01F
:10081000FC01E451FE4F24918A559E4FFC018491C6
:100820008823C9F090E0880F991FFC01E85AFE4F19
:10083000A591B491FC01EE58FE4FC591D491611180
:100840000DC09FB7F8948C91209582238C9388815A
:10085000282328839FBFDF91CF910895623051F400
:100860009FB7F8943C91822F809583238C93E881E5
:100870002E2BEFCF8FB7F894EC912E2B2C938FBFAC
:10088000EACF862F642F0C940504AF92BF92CF92CB
:10089000DF92EF92FF920F931F93CF93DF936B0141
:1008A0007A01EC01C25CDD4F28813CE0389F800179
:1008B000399F100D1124A0907803B12C27FF1FC081
:1008C000FB011182108288818F5F88838881980163
:1008D000280F311D87FD3A95F6012A153B051CF4BA
:1008E00088818C30C4F180819181049680349C4948
:1008F00008F473C0F60180819181049670C08881EC
:100900009801280F311D87FD3A952A153B05DCF625
:100910008881A801480F511D87FD5A95FA01EE0FF5
:10092000FF1FE40FF51FE851FD4F808186FFCBCFFD
:100930008881F801E80FF11D87FDFA95CF01EE0FD0
:10094000FF1FE80FF91FE851FD4F808160E08F73B2
:100950000E94D303B8CF808191812881A801420FE2
:10096000511D27FD5A959A01FA01EE0FFF1FE20F64
:10097000F31FE851FD4F21813281820F931FF70150
:100980009183808388819801280F311D87FD3A95D6
:10099000F901EE0FFF1FE20FF31FE851FD4F8081B9
:1009A00086FF22C08881080F111D87FD1A95F80166
:1009B000EE0FFF1FE00FF11FE851FD4F808161E056
:1009C0008F73DF91CF911F910F91FF90EF90DF9088
:1009D000CF90BF90AF900C94D30380E49CE9F701D3
:1009E000918380838FEF8883DF91CF911F910F9147
:1009F000FF90EF90DF90CF90BF90AF900895CF938E
:100A0000DF93EC018091790390917A03009759F07C
:100A100020917B0330917C032C173D0720F081E06F
:100A2000DF91CF910895BE016F5F7F4F0E94AA0CA6
:100A3000009789F090937A0380937903D0937C0395
:100A4000C0937B0320917D0330917E03232B39F7E4
:100A5000FC011082E4CF80E0E3CF1F920F920FB62B
:100A60000F9211240BB60F922F933F934F935F93E6
:100A70006F937F938F939F93AF93BF93EF93FF9366
:100A80008BE492E00E948002FF91EF91BF91AF91C1
:100A90009F918F917F916F915F914F913F912F9196
:100AA0000F900BBE0F900FBE0F901F9018951F92C6
:100AB0000F920FB60F9211240BB60F922F938F93B4
:100AC0009F93EF93FF93E0915B02F0915C02808132
:100AD000E0916102F091620282FD1DC090818091DF
:100AE00064028F5F8F7320916502821741F0E0915D
:100AF0006402F0E0E55BFD4F958F80936402FF9107
:100B0000EF919F918F912F910F900BBE0F900FBE81
:100B10000F901F9018958081F2CF1F920F920FB601
:100B20000F9211242F933F938F939F93AF93BF9373
:100B30008091470290914802A0914902B0914A02E7
:100B40003091460223E0230F2D3758F50196A11D61
:100B5000B11D209346028093470290934802A093D0
:100B60004902B0934A028091420290914302A091BF
:100B70004402B09145020196A11DB11D809342022D
:100B800090934302A0934402B0934502BF91AF916A
:100B90009F918F913F912F910F900FBE0F901F90BB
:100BA000189526E8230F0296A11DB11DD2CF1F92E2
:100BB0000F920FB60F9211240BB60F922F933F9303
:100BC0004F935F936F937F938F939F93AF93BF9355
:100BD000EF93FF9348E251E064E271E090E080E03F
:100BE0000E944504FF91EF91BF91AF919F918F912A
:100BF0007F916F915F914F913F912F910F900BBE1D
:100C00000F900FBE0F901F9018951F920F920FB666
:100C10000F9211240BB60F922F933F934F935F9334
:100C20006F937F938F939F93AF93BF93EF93FF93B4
:100C300048EA50E064EA70E083E090E00E944504F6
:100C4000FF91EF91BF91AF919F918F917F916F91A4
:100C50005F914F913F912F910F900BBE0F900FBE60
:100C60000F901F9018951F920F920FB60F9211249C
:100C70000BB60F922F933F934F935F936F937F9396
:100C80008F939F93AF93BF93EF93FF9348E950E007
:100C900064E970E082E090E00E944504FF91EF91EA
:100CA000BF91AF919F918F917F916F915F914F9184
:100CB0003F912F910F900BBE0F900FBE0F901F9082
:100CC00018951F920F920FB60F9211240BB60F9228
:100CD0002F933F934F935F936F937F938F939F9344
:100CE000AF93BF93EF93FF9348E850E064E870E060
:100CF00081E090E00E944504FF91EF91BF91AF9198
:100D00009F918F917F916F915F914F913F912F9123
:100D10000F900BBE0F900FBE0F901F901895109262
:100D20004E0210924D0288EE93E0A0E0B0E0809376
:100D30004F0290935002A0935102B093520282E26C
:100D400092E090934C0280934B0285EC90E090935C
:100D500058028093570284EC90E090935A0280935B
:100D6000590280EC90E090935C0280935B0281ECEE
:100D700090E090935E0280935D0282EC90E090930D
:100D8000600280935F0286EC90E090936202809311
:100D90006102109264021092650210926602109233
:100DA00067021092840310928803109287031092B6
:100DB000890384E392E09093830380938203EEE9B6
:100DC000F3E01082148213821582369683E0EA3DA6
:100DD000F807B9F784E092E09093E5038093E40389
:100DE00080E092E09093E7038093E60384E08093B1
:100DF000E8038093E90388E092E09093E303809313
:100E0000E2038AE090E09093EB038093EA0384EF9F
:100E100091E09093ED038093EC031092F003109215
:100E2000EF031092DE031092DF031092E0031092A2
:100E3000E1031092EE03809178038033D8F591E0BE
:100E4000980F9093780380937F0390E0FC01EE0F5E
:100E5000FF1FE80FF91FE851FD4F88EB9BE09283DD
:100E6000818310927A031092790310927C0310927E
:100E70007B0310927E0310927D0390E080E00E943D
:100E8000FF042091790330917A03811117C0211555
:100E9000310519F0C9010E94210C10927A031092B9
:100EA000790310927E0310927D0310927C031092BE
:100EB0007B0308958FEF80937F03D3CF10927E033F
:100EC00010927D036CE372E0C9010C94940DCF93F2
:100ED000DF9300D01F92CDB7DEB7789484B58260DF
:100EE00084BD84B5816084BD85B5826085BD85B5CE
:100EF000816085BD80916E00816080936E0010924C
:100F000081008091810082608093810080918100C6
:100F10008160809381008091800081608093800057
:100F20008091B10084608093B1008091B0008160B5
:100F30008093B000809191008260809391008091B5
:100F400091008160809391008091900081608093F6
:100F500090008091A10082608093A1008091A10007
:100F600081608093A1008091A00081608093A000A7
:100F70008091210182608093210180912101816013
:100F800080932101809120018160809320018091D4
:100F90007A00846080937A0080917A0082608093E6
:100FA0007A0080917A00816080937A0080917A0043
:100FB000806880937A001092C100E0915B02F0910A
:100FC0005C0282E08083E0915702F0915802108227
:100FD000E0915902F0915A028FEC808310926302E3
:100FE000E0915F02F091600286E08083E0915D0213
:100FF000F0915E02808180618083E0915D02F091DA
:101000005E02808188608083E0915D02F0915E02E3
:10101000808180688083E0915D02F0915E02808132
:101020008F7D808380917F03803308F052C061E020
:1010300089E00E94050480917F03282F30E0F901A8
:10104000EE0FFF1FE20FF31FE851FD4F9081907CE0
:101050009960908310928003109281032CE0622F9C
:101060000E94710B829FB001112430E020E0AB019F
:10107000420F531FFA01EE0FFF1FE40FF51FE85157
:10108000FD4F908196FD17C02F5F3F4F2C303105EB
:1010900071F7813009F060C01092800082E0809387
:1010A00081001092850010928400B19A80916F00A7
:1010B000826080936F00E0917F038E2F90E0FC01AF
:1010C000EE0FFF1FE80FF91FE851FD4F808180648C
:1010D000808338E8A32EB12C48E5242E42E0342E3C
:1010E00054EB452E512C612C712C81E08093EE0342
:1010F0008FB7F8944091470250914802609149029D
:1011000070914A028FBF8091DE039091DF03A0911E
:10111000E003B091E103481B590B6A0B7B0B8091F4
:10112000EA039091EB03B0E0A0E084179507A607CF
:10113000B70708F048C110E08091E8031817C0F520
:10114000E091E403F091E503E10FF11D62E080819D
:101150000E9405041F5FF0CF823061F4109290006E
:1011600080939100109295001092940088BB809318
:101170007100A1CF833069F41092A00082E08093C7
:10118000A1001092A5001092A40089BB8093720068
:1011900092CF811190CF1092200182E080932101A3
:1011A00010922501109224018ABB8093730083CF93
:1011B000F12C8091E903F81608F067C0CF2CD12CF0
:1011C000E091E603F091E703EC0DFD1D61E0808105
:1011D0000E940504E091E603F091E703EC0DFD1D8C
:1011E00060E080810E94D30381E090E0A0E0B0E065
:1011F0000F2C04C0880F991FAA1FBB1F0A94D2F797
:101200004C019C01209530953C832B83E12C8091EF
:10121000E803E81618F50E2D10E0E091E403F091D4
:10122000E503E00FF11F80810E94A7030C5F1F4FB1
:10123000000F111FF801EE57FC4F892B41F48081FC
:1012400091818829992991838083E394E0CF8081DB
:1012500091814B815C8184239523F5CFE091E60356
:10126000F091E703EC0DFD1D61E080810E94D30346
:101270008091E6039091E703C80ED91E60E0F60165
:1012800080810E940504F39494CFB2E8CB2EB3E0A2
:10129000DB2EF601878D90A1892B31F4148E2FEF70
:1012A0003FEF368F258F11A2369633E0EE3BF307E2
:1012B00089F7F12C8091E803F81608F051C0E12C71
:1012C0000F2D10E0000F111F06571C4F2091E9034E
:1012D000E21608F043C0F801608171810E2C02C053
:1012E000769567950A94E2F7F29E900111242E0DEF
:1012F000311DE2E8F3E080E0458D568D2417350777
:1013000009F445C18F5F36968A30B1F760FF24C07B
:10131000E2E8F3E090E080E0448D411118C0E091F4
:10132000E203F091E303E20FF31F408156E0589F80
:10133000F001599FF00D1124EE57FC4F448F368F6A
:10134000258F10A2178E61E00E94940105C00196BE
:1013500036968A30910501F7E394B8CFF394AACF7B
:1013600080E0F60191A19111892FF6E0CF0ED11CFA
:101370002EEBC21623E0D206A1F79FB7F894409156
:101380004702509148026091490270914A029FBF02
:101390004093DE035093DF036093E0037093E10317
:1013A000882389F08091A303882369F08091A103A9
:1013B0009091A203019739F4F0909E03F11006C0BA
:1013C0000E940F0392CE1092EE03FACF3DE3F31288
:1013D000B3C00E94310240917D0350917E03609121
:1013E000790370917A038BE492E00E9404020E94D8
:1013F00031028091790390917A03009709F48EC0AD
:101400000E94D20A6B01603242E07407BCF5209161
:1014100080036501C21AD10827FDD394CC0CDD1CD2
:10142000CC0CDD1C0D2C000CEE08FF082091810374
:10143000F101E21BF10927FDF3959F01220F331FF4
:10144000220F331F032E000C440B550B2C193D09A2
:101450004E095F09DB01653B710514F0A4EBB0E0B8
:10146000B7FF02C0B0E0A0E00E94380BA3019201D8
:101470000E940E0BC20ED31EE41EF51E20917F03A8
:10148000203378F580918003A501481B510987FD21
:101490005395CA01880F991F880F991FC816D9063E
:1014A00084F080918103F101E81BF10987FDF39538
:1014B000CF01880F991F880F991FC816D9060CF401
:1014C000C6010297880F991F4FB7F89430E0F901D1
:1014D000EE0FFF1FE20FF31FE851FD4F9283818350
:1014E0004FBF90E080E00E94FF042091790330918B
:1014F0007A03811117C02115310519F0C9010E9425
:10150000210C10927A031092790310927E031092AC
:101510007D0310927C0310927B0352CF60E070E059
:10152000CB0170CF10927E0310927D036CE372E0CA
:10153000C9010E94940D44CF80ED8F0D8A3008F0D0
:101540003FCFF9821A8200917D0310917E030F5FD5
:101550001F4FC8010E94FF04882399F0209179034E
:1015600030917A0380917D0390917E03BE016F5F7D
:101570007F4F820F931F0E94940D10937E03009360
:101580007D036F2D8BE492E00E94A20219CF61705F
:10159000DBCE8091790390917A03009711F00C943F
:1015A000210C08951F93FC0199278827BC01E8941A
:1015B00011911032E9F3193010F01E30C8F31B32CC
:1015C00051F01D3249F4689406C00E94F90A610F77
:1015D000711D811D911D119110531A30B0F33EF40D
:1015E00090958095709561957F4F8F4F9F4F1F917C
:1015F0000895592F482F372F262F660F771F881FE2
:10160000991F660F771F881F991F620F731F841F12
:10161000951F660F771F881F991F0895052E97FB4A
:101620001EF400940E94250B57FD07D00E94400B2A
:1016300007FC03D04EF40C94250B50954095309543
:1016400021953F4F4F4F5F4F08959095809570952E
:1016500061957F4F8F4F9F4F08950E94620BA59F0A
:10166000900DB49F900DA49F800D911D112408959D
:10167000B7FF0C942D0B0E942D0B821B930B08952A
:10168000A1E21A2EAA1BBB1BFD010DC0AA1FBB1F86
:10169000EE1FFF1FA217B307E407F50720F0A21BF8
:1016A000B30BE40BF50B661F771F881F991F1A9465
:1016B00069F760957095809590959B01AC01BD018F
:1016C000CF010895A29FB001B39FC001A39F700DE9
:1016D000811D1124911DB29F700D811D1124911D3A
:1016E0000895991B79E004C0991F961708F0961B7E
:1016F000881F7A95C9F780950895EE0FFF1F881F00
:101700008BBF0790F691E02D19940F931F93CF9301
:10171000DF938230910510F482E090E0E091F303D2
:10172000F091F40330E020E0B0E0A0E0309799F4CD
:101730002115310509F44AC0281B390B2430310525
:10174000D8F58A819B816115710589F1FB0193832D
:101750008283FE0111C040815181028113814817AB
:101760005907E0F04817590799F4109761F012965D
:101770000C93129713961C933296CF01DF91CF9161
:101780001F910F9108950093F3031093F403F4CF86
:101790002115310551F04217530738F0A901DB013B
:1017A0009A01BD01DF01F801C1CFEF01F9CF90939C
:1017B000F4038093F303CDCFFE01E20FF31F819377
:1017C00091932250310939832883D7CF2091F10397
:1017D0003091F203232B41F420911A0230911B0225
:1017E0003093F2032093F1032091180230911902F3
:1017F0002115310541F42DB73EB740911C0250919F
:101800001D02241B350BE091F103F091F203E21766
:10181000F307A0F42E1B3F0B2817390778F0AC0113
:101820004E5F5F4F2417350748F04E0F5F1F5093F0
:10183000F2034093F103819391939FCFF0E0E0E0B6
:101840009CCFCF93DF930097E9F0FC01329713828E
:101850001282A091F303B091F403ED0130E020E097
:101860001097A1F420813181820F931F2091F10301
:101870003091F2032817390709F061C0F093F203A1
:10188000E093F103DF91CF910895EA01CE17DF07CE
:10189000E8F54A815B819E0141155105B1F7E901E7
:1018A000FB83EA8349915991C40FD51FEC17FD07BB
:1018B00061F4808191810296840F951FE9019983DB
:1018C0008883828193819B838A83F0E0E0E0129693
:1018D0008D919C9113970097B9F52D913C9111979B
:1018E000CD010296820F931F2091F1033091F203F4
:1018F0002817390739F6309751F51092F4031092F2
:10190000F303B093F203A093F103BCCFD383C2835C
:1019100040815181840F951FC817D90761F44E5F2C
:101920005F4F88819981480F591F518340838A8175
:101930009B81938382832115310509F0B0CFF09309
:10194000F403E093F3039ECFFD01DC01C0CF1382CB
:101950001282D7CF4F925F926F927F928F929F9217
:10196000AF92BF92CF92DF92EF92FF920F931F93AD
:10197000CF93DF938C01009799F4CB01DF91CF9146
:101980001F910F91FF90EF90DF90CF90BF90AF909D
:101990009F908F907F906F905F904F900C94850BED
:1019A000FC01E60FF71F9C0122503109E217F307F3
:1019B00008F4AEC0D901CD91DC911197C617D707B5
:1019C00020F1C530D10578F0CE010497861797072E
:1019D00050F0C61BD70B2297C193D1936D937C9384
:1019E000CF010E94210CC801DF91CF911F910F916F
:1019F000FF90EF90DF90CF90BF90AF909F908F902F
:101A00007F906F905F904F9008955B01AC1ABD0A74
:101A10004C018C0E9D1EA091F303B091F403512C48
:101A2000412CF12CE12C109731F58091F10390912C
:101A3000F2038815990509F05CC04616570608F0B0
:101A400058C08091180290911902009741F48DB707
:101A50009EB740911C0250911D02841B950BE81704
:101A6000F90708F055C0F093F203E093F103F90190
:101A700071836083B8CF8D919C91119712966C9071
:101A8000129713967C901397A815B90559F56C0118
:101A900042E0C40ED11CCA14DB0420F1AC014A1987
:101AA0005B09DA011296159780F062827382518386
:101AB0004083D9016D937C93E114F10471F0D70157
:101AC0001396FC93EE9312978ECF22968C0F9D1F48
:101AD000F90191838083F301EFCFF093F403E09356
:101AE000F30381CF4816590608F42C017D01D30178
:101AF0009ACFCB010E94850B7C01009749F0AE0183
:101B0000B8010E948B0DC8010E94210C87016BCF88
:101B100010E000E068CFFB01DC0102C001900D92F3
:101B200041505040D8F70895FB01DC0101900D921F
:101B30000020E1F7089511E0CDE3D1E000E006C018
:101B4000802FFE010E947D0B2196011DCE33D1070F
:0A1B500080E00807A9F7F894FFCF22
:101B5A0017191B1D1F2123253738392F3435362AEB
:101B6A003132332D6F303D2B0000F5038000000029
:101B7A000000A20204023902EF026A0248025C0271
:0E1B8A000000000041040104D0030D0A000019
:00000001FF
