:100000000C942B010C945C010C945C010C945C012D
:100010000C945C010C945C010C945C010C945C01EC
:100020000C945C010C945C010C945C010C945C01DC
:100030000C945C010C945C010C945C010C945C01CC
:100040000C945C010C945C010C945C010C945C01BC
:100050000C945C010C945C010C945C010C94950470
:100060000C945C010C945F040C9435040C945C01BA
:100070000C945C010C945C010C945C010C945C018C
:100080000C945C010C945C010C945C010C945C017C
:100090000C945C010C945C010C945C010C945C016C
:1000A0000C945C010C945C010C945C010C945C015C
:1000B0000C945C010C945C010C945C010C945C014C
:1000C0000C945C010C945C010C945C010C945C013C
:1000D0000C945C010C945C010C945C010C945C012C
:1000E0000C945C010C941A030C9459030C940803AF
:1000F0000C94FD010C9441030C9439030C943502CB
:100100000C945F010C942F030C941E030C94220397
:100110000C94DF040C949B010C9426030C94820233
:100120000C944B030C9455030C9447030C94EF016F
:100130000C9403030C947B070C943D030C948C01EA
:100140000C9429030C9433030C944F0300000A0B06
:1001500002090C0D0E080703040100000000000056
:10016000000000000000000000000000000000008F
:10017000000000000000000012111000000000004C
:10018000000000000000000000000000000000006F
:10019000000000002200250028002B002E00310066
:1001A000340002010000050108010B0100002100DC
:1001B000240027002A002D00300033000101000038
:1001C000040107010A0105050505070508080808D7
:1001D000020202020A0A08080404040401010101DF
:1001E00001010101030303030303030304070707DA
:1001F0000C0C0C0C0C0C0C0C02020202060606067F
:10020000060606060B0B0B0B0B0B0B0B010210204B
:10021000200808102040102040800201020108043C
:1002200002010102040810204080804020100804D0
:100230000201800402018040201008040201080429
:10024000020101020408102040800102040810206D
:100250004080DF047B0711241FBECFEFD1E2DEBF59
:10026000CDBF00E00CBF2EE1A0E4BEE101C01D92B5
:10027000A13FB207E1F71EE1A0E0B2E0E8ECF3E154
:1002800000E00BBF02C007900D92A034B107D9F770
:1002900011E0CAE2D1E000E006C021970109802FF9
:1002A000FE010E94B407C932D10780E00807A9F710
:1002B0000E941A050C94D2090C9400000895AF9284
:1002C000BF92CF92DF92EF92FF920F931F93CF9343
:1002D000DF936C017B018B01040F151FEB015E01A5
:1002E000AE18BF08C017D10759F06991D601ED913A
:1002F000FC910190F081E02DC6011995892B79F7C9
:10030000C501DF91CF911F910F91FF90EF90DF908A
:10031000CF90BF90AF900895FC01538D448D252F51
:1003200030E0842F90E0821B930B541710F0CF968F
:10033000089501970895FC01918D828D981761F0C1
:10034000A28DAE0FBF2FB11D5D968C91928D9F5FD8
:100350009F73928F90E008958FEF9FEF08952FB7CE
:10036000F8948091461E9091471EA091481EB0912E
:10037000491E2FBF8093521E9093531EA093541E6C
:10038000B093551E8AE49EE10E949B0197FF26C010
:100390002FB7F8948091461E9091471EA091481E59
:1003A000B091491E2FBF4091521E5091531E609133
:1003B000541E7091551E841B950BA60BB70B4091D4
:1003C0004E1E50914F1E6091501E7091511E841709
:1003D0009507A607B707B0F28FEF9FEF0895FC01CE
:1003E000918D828D981731F0828DE80FF11D858DEA
:1003F00090E008958FEF9FEF0895FC01918D228D7D
:10040000892F90E0805C9F4F821B91098F73992701
:1004100008958AE49EE10E94FD0121E0892B09F400
:1004200020E0822F0895FC01A48DA80FB92FB11DE3
:10043000A35ABF4F2C91848D90E001968F7399271A
:10044000848FA689B7892C93A089B1898C918370F8
:1004500080648C93938D848D981306C00288F389F1
:10046000E02D80818F7D80830895EF92FF920F931E
:100470001F93CF93DF93EC0181E0888F9B8D8C8D50
:1004800098131AC0E889F989808185FF15C09FB744
:10049000F894EE89FF896083E889F9898081837007
:1004A000806480839FBF81E090E0DF91CF911F91B6
:1004B0000F91FF90EF900895F62E0B8D10E00F5FD7
:1004C0001F4F0F731127E02E8C8D8E110CC00FB6AD
:1004D00007FCFACFE889F989808185FFF5CFCE0145
:1004E0000E941302F1CFEB8DEC0FFD2FF11DE35AAB
:1004F000FF4FF0829FB7F8940B8FEA89FB898081C8
:100500008062CFCFCF93DF93EC01888D8823B9F041
:10051000AA89BB89E889F9898C9185FD03C080810E
:1005200086FD0DC00FB607FCF7CF8C9185FFF2CF8B
:10053000808185FFEDCFCE010E941302E9CFDF91CC
:10054000CF91089580E090E0892B29F00E94090264
:1005500081110E94000080E090E0892B49F080E04A
:1005600090E0892B29F00E94000081110E94000078
:1005700080E090E0892B49F080E090E0892B29F021
:100580000E94000081110E94000080E090E0892B11
:1005900049F080E090E0892B29F00E940000811151
:1005A0000C9400000895282F30E0F901E45BFE4F21
:1005B0009491F901E45FFD4F44912A533E4FF901B4
:1005C0002491222309F435C0992311F191509231DD
:1005D000F8F4E92FF0E08827EF50FD4F8F4F0C948F
:1005E000B4072203260303031A031E030803290387
:1005F0002F03330339033D03410347034B03080330
:100600004F0355035903809180008F7780938000BA
:10061000E22FF0E0EE0FFF1FEE56FE4FA591B491D2
:100620008FB7F894EC91611148C040954E234C93DC
:100630008FBF0895809180008F7DE8CF80918000EA
:10064000877FE4CF84B58F7784BDE2CF84B58F7D7B
:10065000FBCF8091B0008F778093B000D9CF80918D
:10066000B0008F7DF9CF809190008F7780939000BC
:10067000CFCF809190008F7DF9CF80919000877FC0
:10068000F5CF8091A0008F778093A000C1CF80919B
:10069000A0008F7DF9CF8091A000877FF5CF80915A
:1006A00020018F7780932001B3CF809120018F7D2F
:1006B000F9CF80912001877FF5CF4E2BB8CF3FB780
:1006C000F8948091411E9091421EA091431EB091DA
:1006D000441E26B5A89B05C02F3F19F00196A11D09
:1006E000B11D3FBFBA2FA92F982F8827BC01CD017C
:1006F000620F711D811D911D42E0660F771F881FDB
:10070000991F4A95D1F70895FC0101900020E9F75F
:100710003197AF01481B590BBC018AE49EE10C9450
:100720005F01CF93DF93FC0144815581608171812A
:100730008AE49EE10E945F01EC018FE19EE10E944C
:1007400084038C0F9D1FDF91CF910895CF93DF938A
:10075000EC0188819981009711F00E945808198254
:1007600018821D821C821B821A82DF91CF9108950C
:10077000FC0180819181009711F00C945808089534
:100780000F931F93CF93DF93EC018881998100979A
:1007900059F02A813B812617370730F081E0DF913D
:1007A000CF911F910F9108958B016F5F7F4F0E9432
:1007B000E108009759F0998388831B830A832C8171
:1007C0003D81232B59F7FC011082E8CF80E0E7CF71
:1007D000EF92FF920F931F93CF93DF9361157105F3
:1007E00041F480E0DF91CF911F910F91FF90EF9046
:1007F000089541155105B1F07B01EC010C811D817B
:10080000040F151FB8010E94C003882351F32881EB
:1008100039818C819D81B701820F931F0E94CB0982
:100820001D830C8381E0DECFEF92FF920F931F9325
:10083000CF93DF93EC017B018A01BA010E94C003D0
:1008400081110BC0CE010E94A603CE01DF91CF9192
:100850001F910F91FF90EF9008951D830C83B701B6
:10086000888199810E94CB09F0CF1F920F920FB619
:100870000F9211240BB60F922F933F934F935F93D8
:100880006F937F938F939F93AF93BF93EF93FF9358
:100890008AE49EE10E941302FF91EF91BF91AF9114
:1008A0009F918F917F916F915F914F913F912F9188
:1008B0000F900BBE0F900FBE0F901F9018951F92B8
:1008C0000F920FB60F9211240BB60F922F938F93A6
:1008D0009F93EF93FF93E0915A1EF0915B1E8081EE
:1008E000E091601EF091611E82FD1DC0908180919B
:1008F000631E8F5F8F732091641E821741F0E09119
:10090000631EF0E0E65BF14E958F8093631EFF91CE
:10091000EF919F918F912F910F900BBE0F900FBE73
:100920000F901F9018958081F2CF1F920F920FB6F3
:100930000F9211242F933F938F939F93AF93BF9365
:100940008091461E9091471EA091481EB091491E6D
:100950003091401E23E0230F2D3758F50196A11D3D
:10096000B11D2093401E8093461E9093471EA09376
:10097000481EB093491E8091411E9091421EA09145
:10098000431EB091441E0196A11DB11D8093411ECE
:100990009093421EA093431EB093441EBF91AF910B
:1009A0009F918F913F912F910F900FBE0F901F90AD
:1009B000189526E8230F0296A11DB11DD2CFEAE4B7
:1009C000FEE11382128288EE93E0A0E0B0E084831F
:1009D0009583A683B78381E19EE19183808385EC33
:1009E00090E09587848784EC90E09787868780ECF9
:1009F00090E0918B808B81EC90E0938B828B82ECEA
:100A000090E0958B848B86EC90E0978B868B118E93
:100A1000128E138E148EE7EEFEE111821082138285
:100A200012821582148250E040E061E27EE1CF0143
:100A30000C941404CF93DF93CDB7DEB768970FB64D
:100A4000F894DEBF0FBECDBF789484B5826084BDBC
:100A500084B5816084BD85B5826085BD85B58160C2
:100A600085BD80916E00816080936E001092810040
:100A700080918100826080938100809181008160FB
:100A800080938100809180008160809380008091BC
:100A9000B10084608093B1008091B0008160809348
:100AA000B0008091910082608093910080919100CC
:100AB000816080939100809190008160809390008C
:100AC0008091A10082608093A1008091A10081604B
:100AD0008093A1008091A00081608093A00080910C
:100AE00021018260809321018091210181608093A6
:100AF00021018091200181608093200180917A0002
:100B0000846080937A0080917A00826080937A007A
:100B100080917A00816080937A0080917A00806869
:100B200080937A001092C100E0915A1EF0915B1EF2
:100B300082E08083E091561EF091571E1082E09172
:100B4000581EF091591E8FEC80831092621EE09126
:100B50005E1EF0915F1E86E08083E0915C1EF09146
:100B60005D1E808180618083E0915C1EF0915D1E3E
:100B7000808188608083E0915C1EF0915D1E8081A1
:100B800080688083E0915C1EF0915D1E80818F7D86
:100B90008083AFEFBDE18D919D919927FC01E45FCA
:100BA000FD4F24918A539E4FFC0184918823A1F02C
:100BB00090E0880F991FFC01E455FE4F4591549138
:100BC000FC01EE56FE4F859194918FB7F894FA018F
:100BD0009081922B90838FBFFEE1AD30BF07D9F695
:100BE00080ED97E0A0E0B0E080934E1E90934F1E02
:100BF000A093501EB093511E8E010F5F1F4F8AE4C9
:100C00009EE10E94FD01181619060CF071C11A82AE
:100C100019821C821B821E821D8250E040E061E22C
:100C20007EE1C8010E9414040E94AF0197FD0EC02E
:100C30008A30910559F08B8B1C8A41E050E0BE014F
:100C40006D5E7F4FC8010E94E803EECF8091E71EE2
:100C50009091E81E009709F41AC169817A816115A3
:100C6000710509F412C14091E91E5091EA1E2D81CF
:100C70003E814217530708F408C10E94CB098D81B9
:100C80009E819093EC1E8093EB1E1E821D82C801F4
:100C90000E94B8031A8219821C821B821E821D8246
:100CA0004CE050E062E27EE1C8010E9414044091F1
:100CB000EB1E5091EC1E6091E71E7091E81EC8017A
:100CC0000E94E803811103C0C8010E94A603C80165
:100CD0000E949103C8010E94B803D12CC12C8091BD
:100CE000EB1E9091EC1EC816D90608F0F0C0E091FA
:100CF000E71EF091E81E309709F0E0C01092451E03
:100D0000E5E4FEE16081E62E062E000CFF0821E2FC
:100D1000E216F1040CF4B5C08AE49EE10E943502AB
:100D20001C8A1B8A1E8A1D8A188E1F8A4AE0B801F7
:100D3000C7010E947F07F80101900020E9F7319771
:100D4000AF01401B510BB801CE0143960E94140421
:100D50001A8219821C821B821E821D8242E050E090
:100D60006FE27EE1C8010E9414044F89588D6B899F
:100D70007C89C8010E94E803811103C0C8010E9458
:100D8000A60343E050E062E37EE1C8010E94E8036D
:100D9000811103C0C8010E94A603C8010E949103EB
:100DA000C8010E94B803CE0143960E94B80381E2B5
:100DB000E81AF1089DE49E9D90019F9D300D11243D
:100DC000F901E45BFD4F7F013BE0232E312C2FEF37
:100DD000822E2DE1922EB12CA12CF4018081F2E023
:100DE0008F0E911CF701EA0DFB1D9081911169C0D6
:100DF00060E00E94D3028DE29EE10E9484032FEF07
:100E0000A21AB20A87E0A816B10439F78FE19EE171
:100E10000E9484030E945F032B013C0194EF892E02
:100E200099249394A12CB12C0E945F036419750935
:100E300086099709683E734081059105A8F391E002
:100E4000891A9108A108B108E8EE4E0EE3E05E1E93
:100E5000611C711C81149104A104B10429F721E0E3
:100E6000221A310887E0E81AF1082114310409F048
:100E7000AECF88E39EE10E9484038FE19EE10E9451
:100E800084039FEFC91AD90A2ACF0E945808898182
:100E90009A819093E81E8093E71E8B819C819093AA
:100EA000EA1E8093E91E8D819E819093EC1E8093B3
:100EB000EB1E1A8219821C821B82E7CEEC0DFD1DEF
:100EC00021CF61E00E94D30286E39EE196CF8DE0C0
:100ED000E82E8EE1F82EE2E0EE1AF10860E0F7016C
:100EE00080810E94D302FFEFEF16FDE1FF0699F724
:100EF0000E94A20284CE87EE9EE10C94B803BB2729
:100F00004A3031F4992322F4BDE2909581959F4FA8
:100F10000C948B07BB27FB015527AA27880F991F25
:100F2000AA1FA41710F0A41B83955051B9F7A05D18
:100F3000AA3308F0A95DA193009779F7B111B19395
:100F40001192CB010C94A407DC01FC01672F719175
:100F50007723E1F7329704C07C916D93708362919F
:100F6000AE17BF07C8F30895EE0FFF1F881F8BBF92
:100F70000790F691E02D19940F931F93CF93DF9371
:100F80008230910510F482E090E0E091EF1EF09144
:100F9000F01E30E020E0B0E0A0E0309799F4211599
:100FA000310509F44AC0281B390B24303105D8F526
:100FB0008A819B816115710589F1FB01938382838D
:100FC000FE0111C0408151810281138148175907E8
:100FD000E0F04817590799F4109761F012960C93B6
:100FE000129713961C933296CF01DF91CF911F91E8
:100FF0000F9108950093EF1E1093F01EF4CF21156A
:10100000310551F04217530738F0A901DB019A016D
:10101000BD01DF01F801C1CFEF01F9CF9093F01EC0
:101020008093EF1ECDCFFE01E20FF31F81939193CA
:101030002250310939832883D7CF2091ED1E30917A
:10104000EE1E232B41F420910202309103023093D3
:10105000EE1E2093ED1E2091000230910102211519
:10106000310541F42DB73EB740910402509105027D
:10107000241B350BE091ED1EF091EE1EE217F307F5
:10108000A0F42E1B3F0B2817390778F0AC014E5FF8
:101090005F4F2417350748F04E0F5F1F5093EE1E29
:1010A0004093ED1E819391939FCFF0E0E0E09CCFC1
:1010B000CF93DF930097E9F0FC01329713821282FD
:1010C000A091EF1EB091F01EED0130E020E01097EE
:1010D000A1F420813181820F931F2091ED1E309168
:1010E000EE1E2817390709F061C0F093EE1EE09359
:1010F000ED1EDF91CF910895EA01CE17DF07E8F5E5
:101100004A815B819E0141155105B1F7E901FB83DD
:10111000EA8349915991C40FD51FEC17FD0761F47B
:10112000808191810296840F951FE90199838883BC
:10113000828193819B838A83F0E0E0E012968D9117
:101140009C9113970097B9F52D913C911197CD0182
:101150000296820F931F2091ED1E3091EE1E2817EC
:10116000390739F6309751F51092F01E1092EF1EA4
:10117000B093EE1EA093ED1EBCCFD383C2834081FB
:101180005181840F951FC817D90761F44E5F5F4FD7
:1011900088819981480F591F518340838A819B819F
:1011A000938382832115310509F0B0CFF093F01EAF
:1011B000E093EF1E9ECFFD01DC01C0CF13821282AF
:1011C000D7CF4F925F926F927F928F929F92AF9202
:1011D000BF92CF92DF92EF92FF920F931F93CF9324
:1011E000DF938C01009799F4CB01DF91CF911F9190
:1011F0000F91FF90EF90DF90CF90BF90AF909F90B6
:101200008F907F906F905F904F900C94BC07FC0183
:10121000E60FF71F9C0122503109E217F30708F48B
:10122000AEC0D901CD91DC911197C617D70720F137
:10123000C530D10578F0CE0104978617970750F096
:10124000C61BD70B2297C193D1936D937C93CF018B
:101250000E945808C801DF91CF911F910F91FF9014
:10126000EF90DF90CF90BF90AF909F908F907F9046
:101270006F905F904F9008955B01AC1ABD0A4C01CE
:101280008C0E9D1EA091EF1EB091F01E512C412C92
:10129000F12CE12C109731F58091ED1E9091EE1E0E
:1012A0008815990509F05CC04616570608F058C025
:1012B0008091000290910102009741F48DB79EB792
:1012C0004091040250910502841B950BE817F90721
:1012D00008F055C0F093EE1EE093ED1EF901718306
:1012E0006083B8CF8D919C91119712966C90129754
:1012F00013967C901397A815B90559F56C0142E037
:10130000C40ED11CCA14DB0420F1AC014A195B09DC
:10131000DA011296159780F06282738251834083BE
:10132000D9016D937C93E114F10471F0D701139608
:10133000FC93EE9312978ECF22968C0F9D1FF9018E
:1013400091838083F301EFCFF093F01EE093EF1EC3
:1013500081CF4816590608F42C017D01D3019ACF9C
:10136000CB010E94BC077C01009749F0AE01B80197
:101370000E94C209C8010E94580887016BCF10E083
:1013800000E068CFFB01DC0102C001900D924150EA
:101390005040D8F70895FB01DC0101900D92002028
:1013A000E1F7089511E0CAE2D1E000E006C0802F25
:1013B000FE010E94B4072196011DCB32D10780E0C7
:0813C0000807A9F7F894FFCF1C
:1013C8000000F11E80000000000000000000000086
:1013D8000100000000000001000000000000010002
:1013E80000000000000100000000000001000000F3
:1013F80000000000000000000000010100000000E3
:1014080000010100000000000000000000000000D2
:1014180000000000000000000000000001000100C2
:1014280000000001000100000000010001000000B0
:1014380000000000000000000000000000000000A4
:101448000000000000000000000000000000000094
:101458000000000000000000000000000000000084
:101468000000000000000000000100010000000072
:10147800010001000001010101010100000001005B
:10148800010000000100010000000101010101014B
:101498000000010001000000000100010000000040
:1014A8000000000000000000000000000000000034
:1014B800010000000000010101000000010001001E
:1014C8000000000100010000000000010100000010
:1014D8000000000101000000000001000100000000
:1014E80000010001000001010101000000000001ED
:1014F80000000000000000000000000000000000E4
:1015080000010101000000010100010000010001CB
:1015180000010001000001010101000000000000BD
:1015280001010100000001010001000001000100AB
:10153800010001000001010100000000000000009E
:101548000000000000000000000000000000000093
:10155800010101000000010000010000000100007D
:10156800010000000001010000000001000100016D
:10157800000100000100010001000000010000005E
:10158800010101000101000000000000000000004E
:101598000000000000000000000000000000010042
:1015A8000000000000010000000000000100000031
:1015B8000000000000000000000000000000000023
:1015C8000000000000000000000000000000000013
:1015D8000000000000000000000000000000000003
:1015E80000000000000100000000000100000000F1
:1015F80000000100000000000100000000000001E0
:1016080000000000000001000000000000010000D0
:1016180000000000010000000000000001000000C0
:1016280000000001000000000000000100000000B0
:10163800010000000000000001000000000000019F
:101648000000000000000001000000000000010090
:101658000000000000010000000000000100000080
:101668000000000100000000000100000000000070
:101678000100000000000100000000000000000060
:10168800000000000001000000000100010001004E
:10169800000001010100000001000100010000003C
:1016A8000001000000000000000000000000000031
:1016B8000000000000000000000000000000000022
:1016C8000000000000000000000000000000000012
:1016D8000000000000000000000000000000000002
:1016E80001000000000000010000000001010101EC
:1016F80001000000000100000000000001000000DF
:1017080000000000000000000000000000000000D1
:1017180000000000000000000000000000000000C1
:1017280000000000000000000000000000000000B1
:1017380000000000000000000000000000000000A1
:10174800000000000000000001010000000000018E
:10175800010000000000010100000000010100007C
:101768000000000000000000000000000000000071
:101778000000000000000000000000000000000061
:10178800000000000000000101010100000000004D
:101798000000000000000000000000000000000041
:1017A8000000000000000000000000000000000031
:1017B8000000000000000000000000000000000021
:1017C8000000000000000000000000000000000011
:1017D8000000000000000000000000000000000001
:1017E80000000101000000000001010000000000ED
:1017F80000000000000000000000000000000000E1
:1018080000000000000000000100000000000100CE
:1018180000000000000100000000000100000000BE
:1018280000000100000000000001000000000001AD
:10183800000000000000010000000000010000009E
:101848000000000000000000000000000000000090
:101858000000010101010000000100000101000178
:101868000000000101000100000100010001000169
:101878000000010001010000000100010100000159
:10188800000000010101010000000000000000004C
:10189800000000000000000000000000000000013F
:1018A800010000000001000100000000000001002C
:1018B800000000000001000000000000010000001E
:1018C800000000010000000000000100000000010D
:1018D80001010101000000000000000000000000FC
:1018E80000000000000000000000000001010100ED
:1018F80000000100000001000000000000010000DD
:1019080000000000010000000000010000000000CD
:1019180001000000000001000000000001010101B9
:1019280001000000000000000000000000000000AE
:10193800000000000000000001010101000000009B
:10194800000000010000000000000100000001018B
:10195800010000000000000001000000000000017C
:10196800000000000000010000010101010000006A
:10197800000000000000000000000000000000005F
:10198800000000000000000101000000000001014B
:10199800000000000100010000000100000100003B
:1019A8000100000001000001010101010100000027
:1019B800000001000000000000010000000000001D
:1019C800000000000000000000000000000000000F
:1019D80000000101010101000001000000000000F9
:1019E80001000000000000010101010000000000EA
:1019F80000000100000000000001000000000001DC
:101A080001000001010101000000000000000000C9
:101A180000000000000000000000000000000000BE
:101A280001010100000000010000000000010000A9
:101A38000000000001010101000000010000000198
:101A4800000001000000010000010000000100008A
:101A5800000101010000000000000000000000007B
:101A6800000000000000000000000000010101016A
:101A7800010000000000000100000000000100005B
:101A8800000000000100000000000100000000004C
:101A9800000100000000000101000000000001003A
:101AA800000000000000000000000000000000002E
:101AB800000000000000000000000101010000001B
:101AC8000100000001000001010000010000000108
:101AD80001010000000101000101000001000000F7
:101AE80001000001000000010000000101010000E8
:101AF80000000000000000000000000000000000DE
:101B080000000000000000010101000000010000C9
:101B180000010000010000000100000100000001B8
:101B280000000001010101000000000000010000A8
:101B38000000000100000001010100000000000099
:101B4800000000000000000000000000000000008D
:101B5800000000000000000000000000000000007D
:101B68000000010100000000000101000000000069
:101B7800000000000000000000000000000001015B
:101B8800000000000001010000000000000000004B
:101B9800000000000000000000000000000000003D
:101BA800000000000000000000000000000000012C
:101BB800010000000000010100000000000000001A
:101BC800000000000000000000000001010000000B
:101BD80000000101000000000001010000000001F8
:101BE80001000000000000000000000000000000EC
:101BF80000000000000000000100000000010100DA
:101C080000000001000000000001000000000000CA
:101C180000010000000000000001010000000000B9
:101C280000000100000000000000000000000000AB
:101C3800000000000000000000000000000000009C
:101C4800000000000000000000000000000000018B
:101C58000101010100000000000000000001010175
:101C6800010100000000000000000000000000006A
:101C7800000000000000000000000000000000005C
:101C8800000000000000000000000000000001004B
:101C98000000000000000101000000000000000139
:101CA800000000000000000100000000000100002A
:101CB8000000010100000000010000000000000019
:101CC800000000000000000000000000000000000C
:101CD80000000000000101000000000000000101F8
:101CE80000000000000001000000000000010000EA
:101CF80000010101000000000000000000000001D8
:101D080001000000000001010000000000000000C8
:101D180000000000000000000000000000000000BB
:101D280000000001010101000001010000010000A4
:101D38000100000000000100000101000001000195
:101D48000001000001000100010000010001010183
:101D58000100010000000000000001000000000078
:101D68000001010101000000000000000000000067
:101D78000100000000000100010000000001000156
:101D88000000000001000100000001000000010047
:101D98000001010101010000010000000100000133
:101DA800000000010000000000000000000000002A
:101DB8000000000000000000000000010101010017
:101DC8000000010000000100000100000001000007
:101DD80001010101000000010000000100000100F4
:101DE80000000100000100000001000001010101E4
:101DF80000000000000000000000000000000000DB
:101E080000000000000000000000010101000000C7
:101E180001000000000001000000000000010000B7
:101E280000000000010000000000000100000000A8
:101E38000000010000000000000001010101000095
:101E4800000000000000000000000000000000008A
:101E58000000000000010101010000000100000075
:101E68000100000100000001000001000000010065
:101E78000001000000010000010000000100000155
:101E88000000000000000101010100000000000046
:101E9800000000000000000000000000000000003A
:101EA8000000010101010000000100000000000025
:101EB8000100000000000001010101000000010014
:101EC8000000000000010000000000000100000008
:101ED80000000001010101000000000000000000F6
:101EE80000000000000000000000000000000001E9
:101EF80001010100000001000000000000010000D5
:101F080000000000010101010000000100000000C4
:101F180000000100000000000001000000000000B7
:101F280001000000000000000000000000000000A8
:101F38000000000000000000000000000001010196
:101F48000100000100000000000100000000000086
:101F58000100000101010001000000000100010072
:101F68000000000100000100000001000000010164
:101F78000101000000000000000000000000000057
:101F88000000000000000000000100000001000047
:101F98000100000001000001000000010000010133
:101FA8000101010000010000000100000100000023
:101FB8000100000100000001000001000000010014
:101FC8000000000000000000000000000000000009
:101FD80000000000000001010101010000000001F3
:101FE80000000000000001000000000000010000E7
:101FF80000000000010000000000000100000000D7
:1020080000000100000000010101010100000000C2
:1020180000000000000000000000000000000000B8
:1020280000000001010101000000000000010000A3
:102038000000000001000000000000010000000096
:102048000000010000000000000100000000000086
:102058000100000001010100000000000000000074
:102068000000000000000000000000000000000068
:102078000100000001000001000001000000010053
:102088000100000000010100000000000101000043
:102098000000000100010000000001000001000034
:1020A8000001000000010000000000000000000026
:1020B8000000000000000000000000000001000017
:1020C8000000000001000000000000010000000006
:1020D80000000100000000000001000000000000F6
:1020E80001000000000000010000000000000101E4
:1020F80001010000000000000000000000000000D6
:1021080000000000000000000000010000000100C5
:1021180000010000000100000101000101000001B0
:1021280001000101000001000100010000010000A0
:102138000001000001000000010000010000000192
:102148000000000000000000000000000000000087
:102158000000000000000001010000010000010172
:102168000000010000010100000100000100010061
:102178000100000100010001000001000001010050
:102188000001000001010000010000010100000041
:102198000000000000000000000000000000000037
:1021A8000000000001010101000001000000000121
:1021B8000001000000000100010000000001000112
:1021C8000000000001000100000000010001000003
:1021D80000000100000101010100000000000000F2
:1021E80000000000000000000000000000000000E7
:1021F80000010101010000000100000001000001D0
:1022080000000001000001000000010000010101C0
:1022180001000000010000000000000100000000B3
:1022280000000100000000000000000000000000A5
:102238000000000000000000000000000000010194
:102248000101000000010000010100010000000080
:102258000100010000000001000100000000010071
:102268000100000000010001010000010000000160
:102278000101010000000001000000000000000151
:102288000101000000000000000000010101010040
:102298000000010000000100000100000001000032
:1022A800010000000100000101010100000001001F
:1022B8000001000000010000000100000100000012
:1022C8000101000000000000000000000000000004
:1022D80000000000000000000001010100000001F2
:1022E80000000000000001000000000000000101E3
:1022F80000000000000000010000000000000001D4
:1023080000000000000001000001010101000000C0
:1023180000000000000000000000000000000000B5
:10232800000000000001010101010000000001009F
:102338000000000000010000000000000100000093
:102348000000000100000000000001000000000083
:102358000001000000000000010000000000000073
:102368000000000000000000000000000000000065
:102378000000010000000100000100000001000051
:102388000100000001000001000000010000010040
:102398000000010000010000000100000100000031
:1023A8000100000001010100000000000000000021
:1023B8000000000000000000000000000000000114
:1023C8000000000100000100000001000001000001
:1023D80000010000010100010000000001000100EF
:1023E80000000001000100000000010001000000E1
:1023F80000000100000000000000000000000000D4
:1024080000000000000000000000000001000000C3
:1024180001000001000000010000010000000100AF
:10242800000100010001000001010001010000019C
:10243800010001010000010100010100000100008C
:102448000001000000000000000000000000000083
:102458000000000000000000010100000101000070
:10246800010000010000000001010100000000015E
:10247800010000000000010100000000000100014F
:10248800000000010000000100010100000001013E
:102498000000000000000000000000000000000034
:1024A8000000000000010000000000010001000021
:1024B800000100000101000101000000010001000D
:1024C8000000000001000000000000010000000002
:1024D80000000100000000000001000000000000F2
:1024E80000000000000000000000000000000000E4
:1024F80000000001010101010000000000010000CE
:1025080000000000010000000000010000000000C1
:1025180000010000000000010000000000000100B0
:10252800000000000101010101000000000000009E
:102538000000000000000000000000000000000093
:10254800000101010000000001000000000000017E
:102558000000000000000100000000000001000071
:102568000000000001000000000000010000000061
:102578000000010000000000000100000000000051
:10258800010101000000000000000000000100003F
:102598000000000000010000000000000100000031
:1025A8000000000001000000000000010000000021
:1025B8000000010000000000000001000000000011
:1025C8000001000000000000000100000000000001
:1025D80000000000000000000000000101010000F0
:1025E80000000000010000000000000100000000E1
:1025F80000000100000000000001000000000000D1
:1026080001000000000000010000000000000100BF
:1026180000000000000100000000010101000000AE
:1026280000000000000000000001000000000001A0
:10263800000100000001000000010000010000008E
:102648000100000000000000000000000000000081
:102658000000000000000000000000000000000072
:102668000000000000000000000000000000000062
:102678000000000000000000000000000000000052
:102688000000000000000000000000000000000042
:102698000000000000000000000000000000000032
:1026A8000000000000000000000000000000000022
:1026B8000000010101010101010001010000000009
:1026C8000000010100000000000000000000000000
:1026D80000000000000000000000000000000000F2
:1026E80000000000000000000000000000000000E2
:1026F80000000000000000000000000000000000D2
:1027080000000000000000000000000000000000C1
:1027180000000000000000000000000000010101AE
:10272800000000000000000100000001010101009C
:10273800000100000001000001000000010000008D
:10274800010101010000000000000000000000007D
:102758000000000000000000000000010000000070
:10276800000001000000000000010101010000005C
:10277800010000000100000100000001000001004C
:10278800000001000001000000010000010101013A
:102798000000000000000000000000000000000031
:1027A8000000000000000000000000000000000021
:1027B800000000000000000101010100000100000C
:1027C80000000000010000000000000100000000FF
:1027D80000000100000000000000010101010000EC
:1027E80000000000000000000000000000000000E1
:1027F80000000000000000000001000000000000D0
:1028080001000000010101010000010000000100B9
:1028180000010000000100000100000001000001AB
:10282800000000010000000101010100000000009B
:102838000000000000000000000000000000000090
:102848000000000000000000000000000000000080
:102858000001010100000001000000010000010169
:10286800010101000001000000000000010000005B
:10287800000000000101010100000000000000004C
:102888000000000000000000000000000000000040
:10289800000101010000000100000000000001002B
:1028A800000000010101010100000000010000001A
:1028B800000000010000000000000100000000000E
:1028C80000010000000000000000000000000000FF
:1028D80000000000000000000000000000000000F0
:1028E80000000000000000000000000101010101DB
:1028F80000010000000100000100000001000001CB
:1029080001010100000000010000000000010101B8
:1029180001010000010000000100000101010100A7
:10292800000000000000000000010000000000009E
:102938000100000000000001000101000000010189
:10294800000001000001000000010000010000007B
:10295800010000010000000100000100000001006A
:10296800000000000000000000000000000000005F
:10297800000101000000000001010000000000004B
:10298800000000000101010000000000000100003B
:10299800000000000100000000000001000000002D
:1029A8000000010000000001010101010000000019
:1029B800000000000000000000000000000001010D
:1029C80000000000000101000000000000000000FD
:1029D80000010101010000000000000100000000EA
:1029E80000000100000000000001000000000000DD
:1029F80001000000000000010000000000000100CC
:102A080000000101010000000000000000000000BB
:102A180001000000000000010000000000000100AB
:102A28000001000000010001000000000101000099
:102A3800000000010001000000000100000100008A
:102A4800000100000001000000000000000000007C
:102A5800000000000000000000000000000101016B
:102A6800000000000000010000000000000100005C
:102A7800000000000100000000000001000000004C
:102A8800000001000000000000010000000001013A
:102A9800010101000000000000000000000000002B
:102AA800000000000000000000000000000000001E
:102AB8000000000000000000010101010100000108
:102AC80000010001000001000100010000010001F7
:102AD80000010000010001000100000100010001E7
:102AE80000000000000000000000000000000000DE
:102AF80000000000000000000000000000000000CE
:102B080000000000000100010100000001010000B8
:102B180001000001000000010000010000000100A8
:102B28000001000000010000010000000100000099
:102B3800000000000000000000000000000000008D
:102B4800000000000000000000000000000000007D
:102B58000000000101010000000100000001000068
:102B68000100000001000001000000010000010058
:102B78000000010000000101010000000000000049
:102B8800000000000000000000000000000000003D
:102B9800000000000000000000000000000000012C
:102BA8000001010000000101000001000001000017
:102BB8000001000001000000010000010000000108
:102BC80000000101010100000001000000000000F8
:102BD80001000000000000000000000000000000EC
:102BE80000000000000000000000000000010101DA
:102BF80001000001000000010000010000000100C8
:102C080000010000000100000100000101000000B7
:102C180001010001000000000000010000000000A8
:102C2800000100000000000000000000000000009B
:102C38000000000000000000000100010101000088
:102C48000101000001000001000000000000010077
:102C5800000000000001000000000000010000006A
:102C6800000000000000000000000000000000005C
:102C7800000000000000000000000000000000004C
:102C88000000000000000001010100000001000038
:102C98000000000001010000000000000001010028
:102CA8000000000000010000000101010000000018
:102CB800000000000000000000000000000000000C
:102CC80000000000000001000000000000010000FA
:102CD80000000101010101000000000100000000E6
:102CE80000000100000000000001000000000000DA
:102CF80001000000000000010101000000000000C8
:102D080000000000000000000000000000000000BB
:102D180000000000000000000000000000000000AB
:102D28000100000001000001000000010000010096
:102D38000000010000010000000100000100000186
:102D48000100000001010001000000000000000077
:102D5800000000000000000000000000000000006B
:102D6800000000000000000000000000000100005A
:102D78000001000001000000010000010000000146
:102D88000000000100010000000001000100000037
:102D9800000001000000000000000000000000002A
:102DA800000000000000000000000000000000001B
:102DB8000000000000000000000001000000010009
:102DC80000010001000100000100010001000001F4
:102DD80000010001000001010001010000000100E4
:102DE80001000000000000000000000000000000DA
:102DF80000000000000000000000000000000000CB
:102E080000000000000000010100010100000001B5
:102E180000010000000000010000000000010001A6
:102E28000000000100000001000001000000010096
:102E3800000000000000000000000000000000008A
:102E4800000000000000000000000000000000007A
:102E58000000000001000000010000010000000166
:102E68000000000100010000000001000100000056
:102E78000001010000000000000100000000000146
:102E88000000000001010100000000000000000037
:102E9800000000000000000000000000000000002A
:102EA8000001010101010000000000010000000014
:102EB8000001000000000000010000000000010007
:102EC80000000000010101010100000000000000F5
:102ED80000000000000000000000000000000000EA
:102EE80000000001010000000001000000000000D7
:102EF80001000000000000010000000001010000C6
:102F080000000000000100000000000001000000B7
:102F180000000001000000000000010000000000A7
:102F28000000010100000000010000000000000195
:102F38000000000000000100000000000001000087
:102F48000000000001000000000000010000000077
:102F58000000010000000000000100000000000067
:102F68000100000000000001000000000000010056
:102F78000000000000000000000001010000000047
:102F88000000000100000000000001000000000037
:102F98000001000000000000000101000000000125
:102FA8000000000000000100000000000001000017
:102FB80000000000010000000001010000000015F1
:102FC80000140013001200110010000F0000000090
:102FD8000035025F018C018202FD019B01EF010DAA
:102FE8000A005573657220496E7075743A20002086
:102FF800280029203A002A002D2D2D2D2D2D2D00B9
:00000001FF
