:100000000C94D1010C9402020C9402020C94020292
:100010000C9402020C9402020C9402020C94020250
:100020000C9402020C9402020C9402020C94020240
:100030000C9402020C9402020C9402020C94020230
:100040000C9402020C9402020C9402020C94020220
:100050000C9402020C9402020C9402020C94BA0B4F
:100060000C9402020C94840B0C945A0B0C94020214
:100070000C9402020C9402020C9402020C940202F0
:100080000C9402020C9402020C9402020C940202E0
:100090000C9402020C9402020C9402020C94040CC4
:1000A0000C9402020C9402020C9402020C940202C0
:1000B0000C9402020C9402020C9402020C940202B0
:1000C0000C9402020C9402020C9402020C940202A0
:1000D0000C9402020C9402020C9402020C94020290
:1000E0000C9402020C9429020C94BB030C945E0441
:1000F0000C94F7060C94B2030C94F8060C94720658
:100100000C9490030C9471060C94ED030C948503ED
:100110000C94A8030C94AE030C944F080C94790231
:100120000C9487020C9481060C947B030C940C03B2
:100130000C9427020C949B060C9496030C949A033F
:100140000C94B6030C9489030C948D030C94280230
:100150000C9481030C943E140C94C8060C94280D46
:100160000C9456020C941E040C94A0030C94940658
:100170000C94BF020C94C0030C94A4030C94BC0315
:100180000C94650200407A10F35A00A0724E1809D0
:100190000010A5D4E80000E87648170000E40B54EE
:1001A000020000CA9A3B000000E1F50500008096BD
:1001B0009800000040420F000000A08601000000EF
:1001C000102700000000E8030000000064000000A9
:1001D00000000A00000000000100000000002C7672
:1001E000D888DC674F0823DFC1DFAE59E1B1B7968D
:1001F000E5E3E453C63AE651997696E8E6C28426EA
:10020000EB898C9B62ED407C6FFCEFBC9C9F40F2C5
:10021000BAA56FA5F490055A2AF75C936B6CF96741
:100220006DC11BFCE0E40D47FEF520E6B500D0ED06
:10023000902E0300943577050080841E080000206E
:100240004E0A000000C80C333333330F986E12830C
:100250001141EF8D2114893BE65516CFFEE6DB18E0
:10026000D1844B381BF77C1D901DA4BBE4242032A5
:1002700084725E228100C9F124ECA1E53D270000D3
:100280002100240027002A002D0030003300010146
:100290000000040107010A010000220025002800D7
:1002A0002B002E003100340002010000050108017E
:1002B0000B01000020002300260029002C002F0045
:1002C00032000001000003010601090105050505D2
:1002D000070508080808020202020A0A08080404BE
:1002E00004040101010101010101030303030303EC
:1002F0000303040707070C0C0C0C0C0C0C0C02027B
:10030000020206060606060606060B0B0B0B0B0B77
:100310000B0B010210202008081020401020408004
:1003200002010201080402010102040810204080B9
:100330008040201008040201800402018040201047
:100340000804020108040201010204081020408090
:10035000010204081020408000000A0B02090C0D65
:100360000E08070304010000000000000000000068
:10037000000000000000000000000000000000007D
:10038000000000001211100000000000000000003A
:100390000000000000000000000000000000280D28
:1003A0003E1411241FBECFEFD1E2DEBFCDBF00E06F
:1003B0000CBF24E0A8ECB2E001C01D92A63FB2073A
:1003C000E1F712E0A0E0B2E0E6E9F7E300E00BBFFE
:1003D00002C007900D92A83CB107D9F711E0C0ED1B
:1003E000D1E000E006C021970109802FFE010E94A4
:1003F0009B19CF3CD10780E00807A9F70E94320E75
:100400000C94B91B0C94000096E0899FD001112434
:10041000AD57BB4F90967C936E935F9791E091960A
:100420009C939197E091F004F091F1049091EF0486
:10043000992339F0309751F0811108C080919F04C1
:100440001994309719F05C968C91FACF089508951D
:100450000895AF92BF92CF92DF92EF92FF920F93E7
:100460001F93CF93DF936C017B018B01040F151F4A
:10047000EB015E01AE18BF08C017D10759F06991B2
:10048000D601ED91FC910190F081E02DC601199506
:10049000892B79F7C501DF91CF911F910F91FF90C3
:1004A000EF90DF90CF90BF90AF900895FC01538DF7
:1004B000448D252F30E0842F90E0821B930B54173E
:1004C00010F0CF96089501970895FC01918D828DCB
:1004D000981761F0A28DAE0FBF2FB11D5D968C9164
:1004E000928D9F5F9F73928F90E008958FEF9FEFA3
:1004F0000895FC01918D828D981731F0828DE80F5F
:10050000F11D858D90E008958FEF9FEF0895FC0118
:10051000918D228D892F90E0805C9F4F821B9109E5
:100520008F739927089584E993E00E94870221E060
:10053000892B09F420E0822F0895FC01A48DA80FD7
:10054000B92FB11DA35ABF4F2C91848D90E0019615
:100550008F739927848FA689B7892C93A089B18935
:100560008C91837080648C93938D848D981306C0D6
:100570000288F389E02D80818F7D80830895EF923A
:10058000FF920F931F93CF93DF93EC0181E0888F4D
:100590009B8D8C8D98131AC0E889F989808185FF1D
:1005A00015C09FB7F894EE89FF896083E889F989BF
:1005B00080818370806480839FBF81E090E0DF91C1
:1005C000CF911F910F91FF90EF900895F62E0B8D14
:1005D00010E00F5F1F4F0F731127E02E8C8D8E11CF
:1005E0000CC00FB607FCFACFE889F989808185FF36
:1005F000F5CFCE010E949D02F1CFEB8DEC0FFD2FC8
:10060000F11DE35AFF4FF0829FB7F8940B8FEA89F0
:10061000FB8980818062CFCFCF93DF93EC01888DFF
:100620008823B9F0AA89BB89E889F9898C9185FD6D
:1006300003C0808186FD0DC00FB607FCF7CF8C91FB
:1006400085FFF2CF808185FFEDCFCE010E949D0214
:10065000E9CFDF91CF91089580E090E0892B29F0D8
:100660000E94930281110E94000080E090E0892B9B
:1006700049F080E090E0892B29F00E940000811170
:100680000E94000080E090E0892B49F080E090E03B
:10069000892B29F00E94000081110E94000080E057
:1006A00090E0892B49F080E090E0892B29F00E94AE
:1006B000000081110C94000008958150823108F0EF
:1006C0005AC0E82FF0E08827E759FC4F8F4F0C9471
:1006D0009B1989038D037B0381038503BB0390036F
:1006E00096039A03A003A403A803AE03B203BB03BB
:1006F000B603BC03C003809180008F778093800095
:100700000895809180008F7DF9CF80918000877F50
:10071000F5CF84B58F7784BD089584B58F7DFBCFE9
:100720008091B0008F778093B00008958091B000E1
:100730008F7DF9CF809190008F77809390000895FE
:10074000809190008F7DF9CF80919000877FF5CFC9
:100750008091A0008F778093A00008958091A000E1
:100760008F7DF9CF8091A000877FF5CF8091200108
:100770008F77809320010895809120018F7DF9CF9C
:1007800080912001877FF5CFCF93DF93282F30E032
:10079000F901E85AFC4F8491F901EE5EFC4FD491C7
:1007A000F901E453FD4FC491CC23A1F081110E94C3
:1007B0005D03EC2FF0E0EE0FFF1FEE54FD4FA5910F
:1007C000B491EC91ED2381E090E009F480E0DF91B9
:1007D000CF91089580E090E0FACF862F0C94C40367
:1007E0001F93CF93DF93282F30E0F901E85AFC4F95
:1007F0008491F901EE5EFC4FD491F901E453FD4F71
:10080000C491CC23A9F0162F81110E945D03EC2F17
:10081000F0E0EE0FFF1FE856FD4FA591B4918FB7A2
:10082000F894EC91111108C0D095DE23DC938FBFB2
:10083000DF91CF911F910895DE2BF8CF862F642F83
:100840000C94F003CF93DF9390E0FC01EE5EFC4F3D
:10085000249184539D4FFC0184918823C9F090E03A
:10086000880F991FFC01E258FD4FA591B491FC013E
:10087000E856FD4FC591D49161110DC09FB7F89412
:100880008C91209582238C938881282328839FBF75
:10089000DF91CF910895623051F49FB7F8943C9165
:1008A000822F809583238C93E8812E2BEFCF8FB7F7
:1008B000F894EC912E2B2C938FBFEACF862F642FC8
:1008C0000C9422043FB7F894809111039091120385
:1008D000A0911303B091140326B5A89B05C02F3F28
:1008E00019F00196A11DB11D3FBFBA2FA92F982F56
:1008F0008827BC01CD01620F711D811D911D42E051
:10090000660F771F881F991F4A95D1F708958F9218
:100910009F92AF92BF92CF92DF92EF92FF920E948E
:1009200062044B015C0182E3C82ED12CE12CF12C36
:100930000E946204681979098A099B09683E73401C
:1009400081059105A8F321E0C21AD108E108F10858
:1009500088EE880E83E0981EA11CB11CC114D1043E
:10096000E104F10429F7FF90EF90DF90CF90BF9062
:10097000AF909F908F9008952FB7F89460910D03DA
:1009800070910E0380910F03909110032FBF089573
:100990000F931F93CF93DF93C82FD62F86E0C89F66
:1009A000F0011124ED57FB4F11A2878D90A18130EA
:1009B0009105F1F058F082309105F1F1039709F4B7
:1009C00040C0DF91CF911F910F9108956623C9F325
:1009D00061E070E08C2F0E9404020E94BC046093CE
:1009E000DB047093DC048093DD049093DE04E9CF94
:1009F0000E94BC040091DB041091DC042091DD0412
:100A00003091DE04AB01BC01401B510B620B730B38
:100A10008091ED049091EE04B0E0A0E0841795077A
:100A2000A607B70748F462E070E08C2FDF91CF9102
:100A30001F910F910C94040263E070E0D111C1CFBB
:100A4000F4CF70E060E0F1CF2091E902260F332768
:100A5000331F21323105ECF420916A03FC0190E050
:100A600080E0243069F082E00895A091E9022191AC
:100A7000AC0147535D4FA40FB52FB11D2C930196C8
:100A8000861798F38091E902680F6093E90280E08D
:100A9000089581E0089510926A0381E080936903CC
:100AA0001092440361E084E10E94F00361E085E17B
:100AB0000E94F003E9EBF0E080818E7F80838081EB
:100AC0008D7F808388E48093B80085E48093BC00A8
:100AD0000895CF93DF9391E09093C8028823B9F0F3
:100AE000C091B800D091BA008091BC008A7B8093FD
:100AF000BC0060E084E10E94F00360E085E10E94B8
:100B0000F0030E944B05D093BA00C093B800DF9168
:100B1000CF910895CF92DF92EF92FF920F931F93A0
:100B2000CF93DF93D091930381E0D13208F09CC042
:100B3000C09192030E9462046B017C0180916A0360
:100B400081116CC082E080936A0381E08093690325
:100B50008FEF8093680310926703D0936603A2E738
:100B6000B3E0E6E4F3E080E0D8138DC010924503D3
:100B700080914503CC0FC82BC0934503809144035B
:100B8000813009F084C0109244030E9462046B011A
:100B90007C01809145038093BB0080916C03909110
:100BA0006D03A0916E03B0916F03892B8A2B8B2B61
:100BB000A1F00E94620400916C0310916D032091DA
:100BC0006E0330916F036C197D098E099F0906171A
:100BD00017072807390708F442C08091BC0083FD3D
:100BE000D8CF85EC8093BC000E9462046B017C012D
:100BF00080916A03823009F44CC0809168038F3F72
:100C000009F469C080916803803209F466C080915C
:100C10006803803309F463C084E026C080916C03CC
:100C200090916D03A0916E03B0916F03892B8A2B75
:100C30008B2B09F483CF0E94620400916C03109106
:100C40006D0320916E0330916F036C197D098E093D
:100C50009F09061717072807390708F06FCF8091FB
:100C60006B030E94690585E0109271031092930353
:100C700010927003DF91CF911F910F91FF90EF9031
:100C8000DF90CF9008959D9191938F5F6DCF85EE0A
:100C9000A9CF80916C0390916D03A0916E03B091E8
:100CA0006F03892B8A2B8B2B09F4A2CF0E9462043D
:100CB00000916C0310916D0320916E0330916F03CE
:100CC0006C197D098E099F09061717072807390730
:100CD00008F08ECFC4CF80E0C7CF82E0C5CF83E0DD
:100CE000C3CF0895E0911A0380911903E81730F4F7
:100CF000F0E0E55EFC4F808190E008958FEF9FEF7C
:100D0000089590911A03809119032FEF3FEF9817E0
:100D100048F4E92FF0E0E55EFC4F208130E09F5F72
:100D200090931A03C90108958091190390911A03B1
:100D3000891B990B0895CF92DF92EF92FF920F9348
:100D40001F93CF93DF937C01CB018A012091700325
:100D5000222389F0EB016B01C40ED51ECC15DD05F5
:100D600069F06991D701ED91FC910190F081E02D3E
:100D7000C7011995F3CF642F0E942405C801DF91A4
:100D8000CF911F910F91FF90EF90DF90CF9008953A
:100D9000CF93DF931F92CDB7DEB7698320917003A5
:100DA0002223F9F020919303203258F021E030E023
:100DB000FC013383228390E080E00F90DF91CF919C
:100DC000089580917103E82FF0E0EE58FC4F99816F
:100DD00090838F5F809371038093930381E090E011
:100DE000ECCF61E0CE0101960E942405F7CF089573
:100DF00090E080E00895CF93DF93EC0160E08E8176
:100E00000E94F00361E08E810E94F00360E08E8119
:100E10000E94F0038BE891E00197F1F7DF91CF9109
:100E20000895CF92DF92EF92FF920F931F93CF938B
:100E3000DF936C017C0187E0E80EF11CD0E0C0E09C
:100E4000062F10E0B8010C2E02C0759567950A9424
:100E5000E2F76170F70181917F010E94F003219612
:100E6000C430D10579F7C601DF91CF911F910F9161
:100E7000FF90EF90DF90CF900C94FB06CF92DF9223
:100E8000EF92FF920F931F93CF93DF93EC01F62E17
:100E9000642F8C810E94F0038D818F3F19F060E0F8
:100EA0000E94F0030F2D10E08F8584FF25C06E0196
:100EB00087E0C80ED11CF12CE12CB8010E2C02C029
:100EC000759567950A94E2F76170F60181916F015B
:100ED0000E94F003FFEFEF1AFF0A88E0E816F10422
:100EE00061F7CE01DF91CF911F910F91FF90EF90AD
:100EF000DF90CF900C94FB06B80184E07595679560
:100F00008A95E1F7CE010E9411076F2DCE01DF9186
:100F1000CF911F910F91FF90EF90DF90CF900C94A5
:100F2000110740E0682F8BE694E00C943E0781E0C7
:100F30000E9491078BE39FE10197F1F70895CF930A
:100F4000DF93823029F490917A04986090937A0428
:100F500080937E0410927F0480E48093800480E17B
:100F60008093810480E58093820461E080916F0426
:100F70000E942204809170048F3F19F061E00E946A
:100F8000220461E0809171040E942204CBE6D4E047
:100F90009E012B56344080917A0484FD0BC084E07E
:100FA00090E021962817390744F461E08E810E9471
:100FB0002204EECF88E090E0F4CF8BE39DE0019730
:100FC000F1F760E080916F040E94F00360E080918F
:100FD00071040E94F003809170048F3F19F060E06B
:100FE0000E94F00380917A0484FD34C063E08BE6B4
:100FF00094E00E941107CBE4D6E4CE010197F1F70B
:1010000063E08BE694E00E9411072197F1F763E01B
:101010008BE694E00E94110783E592E00197F1F7D7
:1010200062E08BE694E00E94110780917A0480626E
:101030000E94910784E080937B048CE00E949107DA
:101040000E94970782E080937C0486E0DF91CF9135
:101050000C94910780620E9491078BE496E40197BB
:10106000F1F780917A0480620E94910783E592E013
:101070000197F1F780917A0480620E949107D5CFA1
:1010800090917E04691710F06FEF690FE62FF0E082
:10109000E559FB4F9489890F80680C94910741E0D2
:1010A0000E943E0781E090E00895FC01019000203D
:1010B000E9F73197AF01481B590BBC0184E993E074
:1010C0000C9429028F929F92AF92BF920F931F931D
:1010D000CF93DF93CDB7DEB7A1970FB6F894DEBFFD
:1010E0000FBECDBF19A2423008F44AE08E010F5D59
:1010F0001F4F842E912CB12CA12CA50194010E948C
:101100007919E62FB901CA01EA30F4F4E05DD8019B
:10111000EE938D01232B242B252B79F790E080E093
:10112000109719F0CD010E945508A1960FB6F894BA
:10113000DEBF0FBECDBFDF91CF911F910F91BF904A
:10114000AF909F908F900895E95CE1CFCF92DF92AE
:10115000EF92FF92CF93DF936B017C016DE284E904
:1011600093E00E94BF02EC0166277727CB016C1940
:101170007D098E099F094AE00E9462088C0F9D1F1D
:10118000DF91CF91FF90EF90DF90CF900895CF93B4
:10119000DF9397FF0CC00E94A608EC0180E692E066
:1011A0000E9455088C0F9D1FDF91CF9108954AE052
:1011B0000E946208F2CF4F925F926F927F928F925D
:1011C0009F92AF92BF92CF92DF92EF92FF920F93D6
:1011D0001F93CF936B017C01742EAC019B010E9485
:1011E0007419882399F083E692E0CF911F910F91B3
:1011F000FF90EF90DF90CF90BF90AF909F908F9037
:101200007F906F905F904F900C9455084601570166
:10121000E894B7F82FEF3FEF4FE75FE7C501B40160
:101220000E94741981110DC02FEF3FEF4FE75FE768
:10123000C501B4010E94361718161CF487E692E027
:10124000D4CF2FEF3FEF4FE75FE4C701B6010E9415
:101250006F1918161CF48BE692E0C7CF2FEF3FEF03
:101260004FE75FECC701B6010E94361787FDF3CF49
:1012700020E030E0A901C701B6010E94361710E056
:1012800000E087FF0AC06DE284E993E00E94BF029C
:101290008C01F7FAF094F7F8F094C0E060E070E0A9
:1012A00080E09FE37C1641F020E030E040E251E432
:1012B0000E94C718CF5FF6CFA70196010E945B1866
:1012C0002B013C010E9440194B015C014AE00E9445
:1012D00062087C01E00EF11ECC23C1F1C501B4010E
:1012E0000E943B179B01AC01C301B2010E945A1836
:1012F0004B015C016EE284E993E00E94BF02E80EBC
:10130000F91EC15018F120E030E040E251E4C5017F
:10131000B4010E949C172B013C010E9440194B0113
:10132000B12CA12C4AE0C501B4010E946208E80E6C
:10133000F91EC501B4010E943B179B01AC01C3011A
:10134000B2010E945A184B015C01DBCFC701CF915B
:101350001F910F91FF90EF90DF90CF90BF90AF90D3
:101360009F908F907F906F905F904F9008950F9314
:101370001F93CF93DF93EC0188819981009759F0F7
:101380002A813B812617370730F081E0DF91CF912A
:101390001F910F9108958B016F5F7F4F0E94C81AB4
:1013A000009759F0998388831B830A832C813D81A0
:1013B000232B59F7FC011082E8CF80E0E7CFEF92B2
:1013C000FF920F931F93CF93DF936115710541F443
:1013D00080E0DF91CF911F910F91FF90EF900895E2
:1013E00041155105B1F07B01EC010C811D81040F09
:1013F000151FB8010E94B709882351F3288139814C
:101400008C819D81B701820F931F0E94B21B1D83A7
:101410000C8381E0DECFCF93DF93EC01888199814B
:10142000009711F00E943F1A198218821D821C82B7
:101430001B821A82DF91CF910895EF92FF920F9352
:101440001F93CF93DF93EC017B018A01BA010E94C5
:10145000B70981110BC0CE010E940B0ACE01DF91AA
:10146000CF911F910F91FF90EF9008951D830C83F2
:10147000B701888199810E94B21BF0CFFB010190D6
:101480000020E9F73197AF01461B570B0C941D0A5A
:101490000F931F93CF93DF93CDB7DEB762970FB64D
:1014A000F894DEBF0FBECDBF8C01CB01F8011182D5
:1014B000108213821282158214824AE0BE016F5F8D
:1014C0007F4F0E949B14BE016F5F7F4FC8010E9437
:1014D0003E0A62960FB6F894DEBF0FBECDBFDF9115
:1014E000CF911F910F910895FC01118210821382F8
:1014F000128215821482FB0101900020E9F73197D6
:10150000AF01461B570B0C941D0AFC018081918191
:10151000009711F00C943F1A08950F931F93CF93E7
:10152000DF93CDB7DEB72C970FB6F894DEBF0FBEB2
:10153000CDBF8C010E94970760E080E00E944008C8
:1015400062E672E0CE0107960E94740AF80180817B
:101550009181009781F00E947414623071058105B9
:10156000910509F469C00CF052C061307105810524
:10157000910509F45AC000914203109143031A8265
:1015800019821C821B821E821D826F8178856115E3
:10159000710531F04B855C85CE0101960E941D0AD4
:1015A00086E0809FF001819FF00D1124E95BFB4FE5
:1015B0004481558160817181CE0101960E94DF09CD
:1015C000811104C0CE0101960E940B0A4D815E81FB
:1015D00069817A818BE694E00E942902CE0101960E
:1015E0000E94850A62E672E085E694E00E943E0A67
:1015F000CE0107960E94850A2C960FB6F894DEBF9E
:101600000FBECDBFDF91CF911F910F910895633031
:1016100071058105910599F0643071058105910589
:1016200009F0A9CF63E872E002C06FE672E0CE0174
:1016300007960E943E0A9FCF62E772E0F8CF68E704
:1016400072E0F5CF85ED8093BC0080916C039091A2
:101650006D03A0916E03B0916F030796A11DB11D9C
:1016600023E0B695A795979587952A95D1F7209170
:10167000BC0024FD03C010926A03089540916C03DE
:1016800050916D0360916E0370916F03452B462B53
:10169000472B69F30097A105B10541F025E32A9591
:1016A000F1F700000197A109B109E1CF80916B0327
:1016B0000C9469051F920F920FB60F9211240BB66E
:1016C0000F922F933F934F935F936F937F938F93DB
:1016D0009F93AF93BF93EF93FF9384E993E00E94AE
:1016E0009D02FF91EF91BF91AF919F918F917F915B
:1016F0006F915F914F913F912F910F900BBE0F9083
:101700000FBE0F901F9018951F920F920FB60F9259
:1017100011240BB60F922F938F939F93EF93FF9308
:10172000E091A403F091A5038081E091AA03F091D8
:10173000AB0382FD1DC090818091AD038F5F8F73DD
:101740002091AE03821741F0E091AD03F0E0EC563A
:10175000FC4F958F8093AD03FF91EF919F918F91F7
:101760002F910F900BBE0F900FBE0F901F901895EA
:101770008081F2CF1F920F920FB60F9211242F93F8
:101780003F938F939F93AF93BF9380910D0390915D
:101790000E03A0910F03B091100330910C0323E0CE
:1017A000230F2D3758F50196A11DB11D20930C0371
:1017B00080930D0390930E03A0930F03B093100337
:1017C0008091110390911203A0911303B09114031F
:1017D0000196A11DB11D8093110390931203A09354
:1017E0001303B0931403BF91AF919F918F913F91D9
:1017F0002F910F900FBE0F901F90189526E8230F82
:101800000296A11DB11DD2CF1F920F920FB60F925B
:1018100011240BB60F922F933F934F935F936F93C7
:101820007F938F939F93AF93BF93EF93FF93809199
:10183000B900887F803609F44DC008F040C0883276
:1018400009F4A9C028F5803109F49DC0C8F48823A3
:1018500009F4FBC0883009F496C0FF91EF91BF9165
:10186000AF919F918F917F916F915F914F913F9138
:101870002F910F900BBE0F900FBE0F901F901895D9
:10188000883109F488C0803241F78093680314C01E
:10189000803409F49DC040F48033B9F38833E9F60D
:1018A0008093680385ECB0C0803509F485C0883525
:1018B00009F496C0883489F60E94220BCECF88396D
:1018C00009F48CC038F5883729F050F4883611F0C7
:1018D000803719F683E080936A0310920B0357C098
:1018E000883809F47BC0803919F0803809F0B5CF09
:1018F00080910B03803208F071C0E0910B0381E00E
:101900008E0F80930B038091BB00F0E0E551FD4FFB
:1019100080833DC0803B39F0E0F4803A09F479C01F
:10192000883A09F09ACF84E080936A031092EA0221
:101930001092E902E0911703F09118031995809134
:10194000E90281110FC081E08093E9021092C9027F
:1019500009C0803C09F4A6CF883C09F4A3CF883B9A
:1019600009F07BCFE091EA0281E08E0F8093EA02DA
:10197000F0E0E753FD4F80818093BB009091EA0235
:101980008091E90229C0809145038093BB0085ECDA
:101990008093BC0062CF9091670380916603981793
:1019A00058F5E091670381E08E0F80936703F0E0C4
:1019B000EA5BFC4F8081E9CFE091670381E08E0F05
:1019C000809367038091BB00F0E0EA5BFC4F80836B
:1019D00090916703809166039817C8F285E8D8CF85
:1019E000E091670381E08E0F809367038091BB00D5
:1019F000F0E0EA5BFC4F80838091690381115CCF4A
:101A000081E08093440384EA8093BC0010926A03CF
:101A100024CF85EC8093BC0010926A0380910B0365
:101A2000803230F4E0910B03F0E0E551FD4F10827D
:101A300060910B0370E0E0911503F09116038BEEBB
:101A400092E0199510920B0308CF1092680334CFDF
:101A5000109297031092960388EE93E0A0E0B0E016
:101A60008093980390939903A0939A03B0939B0358
:101A70002AE232E0309395032093940325EC30E082
:101A80003093A1032093A00324EC30E03093A30310
:101A90002093A20320EC30E03093A5032093A4030D
:101AA00021EC30E03093A7032093A60322EC30E032
:101AB0003093A9032093A80326EC30E03093AB03C6
:101AC0002093AA031092AD031092AE031092AF03BD
:101AD0001092B003109234041092330480933504B2
:101AE00090933604A0933704B09338048CE392E0CB
:101AF00090933204809331041092850410928904EB
:101B00001092880410928A048AE592E090938404EB
:101B100080938304EFE9F4E010821482138215822B
:101B2000369684E0EB3DF807B9F788E092E09093B1
:101B3000E6048093E50484E092E09093E8048093C7
:101B4000E70484E08093E9048093EA048CE092E067
:101B50009093E4048093E3048AE090E09093EC0493
:101B60008093EB0484EF91E09093EE048093ED0476
:101B70001092F1041092F0041092DF041092E0042D
:101B80001092E1041092E2041092EF0410926E049D
:101B900010926D048EE492E090936C0480936B0439
:101BA0008DE080936F048FEF809370048CE08093BE
:101BB000710488E08093720489E0809373048AE062
:101BC000809374048BE080937504109276041092D5
:101BD0007704109278041092790410927A0481E0CC
:101BE0000E949F0762E672E085E694E00E94740A14
:101BF00068E872E087E494E00E94740A61E972E0A8
:101C00008DE494E00E94740A6BE972E083E594E04D
:101C10000E94740A61EA72E089E594E00E94740A05
:101C200069EA72E08FE594E00E94740A80910002F4
:101C300090E090934604809345040E94BC04609316
:101C400041047093420480934304909344040E949F
:101C5000BC0460933D0470933E0480933F049093D2
:101C600040040895CF93DF93CDB7DEB7AD970FB69D
:101C7000F894DEBF0FBECDBF789484B5826084BD7A
:101C800084B5816084BD85B5826085BD85B5816080
:101C900085BD80916E00816080936E0010928100FE
:101CA00080918100826080938100809181008160B9
:101CB000809381008091800081608093800080917A
:101CC000B10084608093B1008091B0008160809306
:101CD000B00080919100826080939100809191008A
:101CE000816080939100809190008160809390004A
:101CF0008091A10082608093A1008091A100816009
:101D00008093A1008091A00081608093A0008091C9
:101D10002101826080932101809121018160809363
:101D200021018091200181608093200180917A00BF
:101D3000846080937A0080917A00826080937A0038
:101D400080917A00816080937A0080917A00806827
:101D500080937A001092C100E091A403F091A50352
:101D600082E08083E091A003F091A1031082E091D2
:101D7000A203F091A3038FEC80831092AC03E09157
:101D8000A803F091A90386E08083E091A603F09177
:101D9000A703808180618083E091A603F091A7036F
:101DA000808188608083E091A603F091A703808101
:101DB00080688083E091A603F091A70380818F7DE6
:101DC000808310921A0310921903109271031092DB
:101DD00093030E944B0587E292E09093180380934F
:101DE000170388E292E0909316038093150382E034
:101DF0000E949F070E94970760E080E00E944008D1
:101E000061E085E30E94220461E084E30E942204F1
:101E100061E083E30E94220461E082E30E942204E5
:101E20009E012F5F3F4F79018AE0F90111928A9557
:101E3000E9F781E08093700380E58093920360E08E
:101E400081E394E00E94C80662E381E394E00E948B
:101E5000C8060E948A050E9462044B015C018091C1
:101E60006A03811165C081E080936A0380936903EE
:101E70009FEF909368031092670399E09093660335
:101E80008093450380914503806A80934503809148
:101E90004403813009F05EC1109244030E94620441
:101EA0004B015C01809145038093BB0080916C03E2
:101EB00090916D03A0916E03B0916F03892B8A2BD3
:101EC0008B2BA1F00E94620400916C0310916D03B2
:101ED00020916E0330916F03681979098A099B0973
:101EE000061717072807390708F443C08091BC007C
:101EF00083FDD8CF85EC8093BC000E9462044B0127
:101F00005C0180916A03813009F426C180916703E6
:101F10008A3008F043C180916703A6E4B3E0EBE1A7
:101F2000F3E090E0981751F12D9121939F5FFACF44
:101F300080916C0390916D03A0916E03B0916F033B
:101F4000892B8A2B8B2B09F48ACF0E946204009183
:101F50006C0310916D0320916E0330916F0368192B
:101F600079098A099B09061717072807390708F016
:101F700076CF80916B030E94690580E010921A036E
:101F80008093190387019E01255F3F4F39A728A73A
:101F900081E394E00E948106F80181938F0128A5D6
:101FA00039A52E173F07A1F719811F3F09F44CC02F
:101FB000C12ED12CD0924303C09242030A810093D8
:101FC0003B036F81788589859A850E9439194B0179
:101FD0008B81809300028C81809301028D8180939C
:101FE00002028E8180930302B401092C000C880B3D
:101FF000990B0E943D1760933C0370933D038093BF
:102000003E0390933F039092460480924504123021
:1020100009F0C6C081E08093400310E0F801EE5D56
:10202000FD4F61E080810E94F003B8016F5F7F4F38
:10203000CE0182960E94480ACE0182960E948D0AA5
:10204000CE0182960E94850A412C512C3201439484
:10205000809140038111C2C080903C0390903D0369
:10206000A0903E03B0903F0361E080E00E944008F2
:102070001BA21AA21DA21CA21FA21EA2870122E05F
:1020800044E0C501B4010E945614009709F488C1C8
:10209000BC01CE0182960E943E0A60EB72E0C7014D
:1020A0000E94740A4EA15FA16AA17BA1C7010E9490
:1020B000DF09811103C0C7010E940B0A42E050E012
:1020C00067EB72E0C7010E94DF09811103C0C701FD
:1020D0000E940B0A4D815E8169817A818BE694E0D2
:1020E0000E942902C7010E94850ACE0182960E94A1
:1020F000850A81E08093EF040E94BC040091DF0414
:102100001091E0042091E1043091E204AB01BC01A4
:10211000401B510B620B730B8091EB049091EC040C
:10212000B0E0A0E084179507A607B70708F0B3C290
:1021300010E08091E904181708F037C1E091E50438
:10214000F091E604E10FF11D62E080810E9422041B
:102150001F5FEFCF85EECFCE80916C0390916D0322
:10216000A0916E03B0916F03892B8A2B8B2B09F4FE
:10217000C8CE0E94620400916C0310916D032091FF
:102180006E0330916F03681979098A099B09061754
:1021900017072807390708F0B4CEEBCE8AE0BDCE8A
:1021A00034E0C316D10489F461E085E30E94F003B2
:1021B00061E084E30E94F00361E083E30E94F003A6
:1021C00061E082E30E94F00302C00330C9F362E6DB
:1021D00072E0CE0182960E94740A2ECF0E94BC0447
:1021E0004B015C010E94C708609145047091460450
:1021F000072E000C880B990B97FFA6C00E94A6081B
:1022000080E692E00E94550860914104709142047A
:1022100080914304909144040E94C7086091450452
:1022200070914604072E000C880B990B0E943D17F5
:102230006AA77BA78CA79DA7809141049091420437
:10224000A0914304B0914404A5019401281B390BCB
:102250004A0B5B0BCA01B9010E943D1720E030E038
:102260004AE754E40E94C7189B01AC016AA57BA50C
:102270008CA59DA50E945A1860933C0370933D0362
:1022800080933E0390933F0342E00E94DB0880E688
:1022900092E00E94550820E030E0A90160913C03E3
:1022A00070913D0380913E0390913F030E94361749
:1022B0001816D4F1C0903B03D12C3FEFC31AD30AB8
:1022C00043E0C422DD24C0923B03C114D10409F0D1
:1022D0003FC01092400384E090E0909343038093CA
:1022E000420361E085E30E94F00361E084E30E9421
:1022F000F00361E083E30E94F00361E082E30E9467
:10230000F00362E672E0C7010E94740AC7010E94EE
:102310008D0AC7010E94850A10923C0310923D036A
:1023200010923E0310923F0360913C0370913D0375
:1023300080913E0390913F0342E00E94DB0880E6DB
:1023400092E00E94550888CE4AE00E94620858CF69
:102350000E94BC0460934104709342048093430440
:1023600090934404F601E050FE4F808190E09093FA
:1023700046048093450486010E5D1D4FF801319798
:1023800060E080810E94F00361E0F80180810E949A
:10239000F003B6016F5F7F4FC7010E94480AB6CFB6
:1023A000CE0182960E940B0A78CE312C8091EA04ED
:1023B000381608F061C0C32CD12CE091E704F091ED
:1023C000E804EC0DFD1D61E080810E942204E09193
:1023D000E704F091E804EC0DFD1D60E080810E94AF
:1023E000F003D301C201032C04C0880F991FAA1F58
:1023F000BB1F0A94D2F74C015C01A094B094212C2D
:102400008091E904281608F5022D10E0E091E5041A
:10241000F091E604E00FF11F80810E94C4030C5F7D
:102420001F4F000F111FF801ED57FB4F892B41F48F
:102430008081918188299929918380832394E0CF99
:10244000808191818A219B21F7CFE091E704F0916F
:10245000E804EC0DFD1D61E080810E94F003809195
:10246000E7049091E804C80ED91E60E0F60180816F
:102470000E94220433949ACF03E814E06801F60125
:10248000878D90A1892B31F4148E2FEF3FEF368F7B
:10249000258F11A236E0C30ED11C4FEBC41644E0C9
:1024A000D40669F7B12C8091E904B81608F053C03E
:1024B000A12C8B2C912C880C991CC40185579B4F07
:1024C0004C012091EA04A21608F043C0F401608197
:1024D00071810A2C02C0769567950A94E2F7B29E44
:1024E000900111242A0D311DE3E8F4E080E0458DD0
:1024F000568D2417350709F48EC18F5F36968A30C2
:10250000B1F760FF24C0E3E8F4E090E080E0448DA0
:10251000411118C0E091E304F091E404E20FF31FCD
:10252000408156E0589FF001599FF00D1124ED575E
:10253000FB4F448F368F258F10A2178E61E00E94CB
:10254000C80405C0019636968A30910501F7A39418
:10255000B8CFB394A8CFB12CF80181A18111B82EC6
:102560000A5F1F4FC016D106B9F70E94BC046093E2
:10257000DF047093E0048093E1049093E204BB20B5
:1025800009F489C08091A404882309F484C02091AF
:10259000A2043091A3042130310509F07CC01091D0
:1025A0009F0411117BC00E94BC0400913D04109156
:1025B0003E0420913F0430914004601B710B820B5C
:1025C000930B693B7B408105910508F45FC08091C6
:1025D0004203898380913B038A83809100028B832D
:1025E000809101028C83809102028D83809103028D
:1025F0008E8380913C0390913D03A0913E03B09166
:102600003F038F839887A987BA8781E080937003FF
:1026100040E540939203109271031092930360E09F
:1026200081E394E00E94C80662E381E394E00E94A3
:10263000C8068701F801D1908F016D2D81E394E0E8
:102640000E94C8068AEB92E00E9455086D2D70E04A
:1026500090E080E04AE00E94620880E692E00E94FA
:1026600055080E94870428A539A50217130711F7FA
:102670000E948A050E9487040E94BC0460933D0466
:1026800070933E0480933F04909340040E9487041B
:102690000E942C03DDCC1092EF0485CF8091420381
:1026A000909143030097B9F48FEC810F843008F0C8
:1026B00053C030934303209342038093410362E667
:1026C00072E0C7010E94740AC7010E948D0AC70107
:1026D0000E94850A68CF8130910509F09EC01D33A4
:1026E00009F07FC010924303109242038091650469
:1026F0009091660460E0009711F00E947414E091DC
:102700004103F0E0E050FE4F608362E672E0CE01EC
:1027100001960E94740ACE0101960E948D0ACE0194
:102720000196D6CF1A3209F03ECF23E030E0309345
:102730004303209342031092400360913C03709145
:102740003D0380913E0390913F030E94391970939D
:10275000460460934504D9CF1A3209F024CF82E0B1
:1027600090E090934303809342038091000290E0B5
:10277000909346048093450410923B030E94BC044E
:102780006093410470934204809343049093440403
:1027900081E08093400361E085E30E94F00361E003
:1027A00070E0CE0101960E94480AB5CF049709F067
:1027B000FACE1A3209F0F7CE109243031092420378
:1027C00060E085E30E94F00360E084E30E94F00390
:1027D00060E083E30E94F00360E082E30E94F00384
:1027E00094CF909151048091690460E0890F0E9418
:1027F000400841E0612F8BE694E00E943E07198378
:102800001A8241E050E0BE016F5F7F4F85E694E0A1
:102810000E94DF09C8CE617092CE8230910509F422
:1028200081CF8330910511F61A3209F0BCCE82E0D7
:1028300090E090934303809342030E94BC04609312
:10284000410470934204809343049093440481E0D4
:102850008093400360913C0370913D0380913E035F
:1028600090913F030E943919709346046093450488
:1028700060913B0370E06F5F7F4F93CF8FE594E0F3
:102880000E94850A89E594E00E94850A83E594E028
:102890000E94850A8DE494E00E94850A87E494E012
:1028A0000E94850A85E694E00C94850AEF920F93C6
:1028B0001F93CF93DF93E80134E047FD34E1042E0A
:1028C000000C550B57FF03C0519541955109E32E5C
:1028D000022F242FAE010E94D514CE01DF91CF919B
:1028E0001F910F91EF9008951F93FC01992788275E
:1028F000BC01E89411911032E9F3193010F01E3048
:10290000C8F31B3251F01D3249F4689406C00E948E
:10291000A614610F711D811D911D119110531A3064
:10292000B0F33EF490958095709561957F4F8F4FF1
:102930009F4F1F910895BB274A3031F4992322F409
:10294000BDE2909581959F4F0C94BC14592F482F50
:10295000372F262F660F771F881F991F660F771F47
:10296000881F991F620F731F841F951F660F771FA3
:10297000881F991F0895BB27FB015527AA27880F99
:10298000991FAA1FA41710F0A41B83955051B9F7E3
:10299000A05DAA3308F0A95DA193009779F7B11162
:1029A000B1931192CB010C9426178F929F92AF9204
:1029B000BF92CF92DF92EF92FF920F931F93CF932C
:1029C000DF9300D000D000D0CDB7DEB76A01F22E81
:1029D000B02E102FFBE3AF2EA01608F41BE31F5FF1
:1029E000012F27E0AE014F5F5F4F0E944E16BC01E2
:1029F0008981982F9970913009F44EC09BE2E1FCD7
:102A000004C09E2D9170E0FC49C05E2D5071E82FEE
:102A1000E87083FF55C084E0911101C083E0EF2D81
:102A2000E81B8F1508F0E0E0D6018E2F20E2552339
:102A3000C9F1992329F0D6019C93C60101966C0136
:102A400096012D5F3F4FE2FE33C08EE4D6018C939A
:102A500091E411969C93119712968C93D9018E2F25
:102A600090E281112AC0E20FF32FF11D10828EEF48
:102A70009FEF29960FB6F894DEBF0FBECDBFDF9152
:102A8000CF911F910F91FF90EF90DF90CF90BF906B
:102A9000AF909F908F9008959DE2B7CF90E2B5CF11
:102AA0002D9381508111FCCFCE0ED11CE0E0C1CF1F
:102AB0008EE6D6018C9391E6CCCF9D938150D1CFF9
:102AC000482F447082FF3DC084E0911101C083E033
:102AD0008F1510F4EF2DE81BD6018E2F20E2552321
:102AE00009F1992329F0D6019C93C60101966C0146
:102AF00096012D5F3F4FE2FE1BC089E4D6018C9307
:102B00008EE411968C93119786E412968C93D901DA
:102B10008E2F90E2882309F4A6CF9D938150FACF9F
:102B20002D9381508111FCCFCE0ED11CE0E0D9CF86
:102B300089E6D6018C938EE611968C93119786E6E2
:102B4000E4CF9B0177FF02C030E020E0A1E0B0E0DD
:102B5000911102C0B0E0A0E0F9013196AE0FBF1FA5
:102B60008B2C912CBB2009F461C05401EFEFAE1AFD
:102B7000BE0AAA0DBB1DFA161B0619F014F04F2D44
:102B80004A1B511188C0E3FC59C07601A42FB0E262
:102B9000A1114FC0C40ED11C992309F45BC040E0C1
:102BA000D6011196F60190836D01552309F448C0B2
:102BB000012F060F9A81582F507184FF03C0913363
:102BC00009F4015010160CF047C0093008F008E075
:102BD000EEE2FE2E5B01A01AB1088501919481946A
:102BE00091082F3F320729F4D601FC92F601319665
:102BF0006F016217730794F1021713077CF5DB016D
:102C0000A21BB30BAA24A394B12CAC0EBD1EAA0D1B
:102C1000BB1D11968C9121503109D60111962815B2
:102C20003905F4F0F60180836D01DBCFB12CA12CC6
:102C3000A0CFF701B1937F01A150AACF9111B0CFDE
:102C4000D601942F50E302C05D9391509111FCCFB7
:102C5000C40ED11C40E0ACCF01E0BACF80E3DBCFA3
:102C60006217730731F4963388F4953311F45523C2
:102C700069F0F6018083FD01842F90E2811108C084
:102C8000A40FB11D1C9290E080E0F3CE81E3F1CF60
:102C900091938150F3CF911183CF8ACF283008F0E0
:102CA00027E03327DA01990F311D87FD91600096E7
:102CB0006105710539F432602E5F3D9330E32A954A
:102CC000E1F708959F3F30F080387105610509F004
:102CD0003C5F3C5F3D93913008F08068911DDF932D
:102CE000CF931F930F93FF92EF92192F987F969592
:102CF000E92F96959695E90FFF27E252FE4F992707
:102D00003327EE24FF24A701E701059008940794D8
:102D100028F4360FE71EF81E491F511D660F771F56
:102D2000881F991F0694A1F70590079428F4E70ED1
:102D3000F81E491F561FC11D770F881F991F661F58
:102D40000694A1F70590079428F4F80E491F561F22
:102D5000C71FD11D880F991F661F771F0694A1F703
:102D60000590079420F4490F561FC71FD81F990FCD
:102D7000661F771F881F0694A9F784911095177016
:102D800041F0D695C79557954795F794E7941A95CE
:102D9000C1F7E4E8F1E068941590159135916591DB
:102DA000959105907FE27395E118F10A430B560B5C
:102DB000C90BD009C0F7E10CF11E431F561FC91FF4
:102DC000D01D7EF4703311F48A95E6CFE89401505B
:102DD00030F0080F0AF40027021708F4202F23957B
:102DE000022F7A3328F079E37D932A95E9F710C012
:102DF0007D932A9589F6069497956795379517954B
:102E00001794E118F10A430B560BC90BD00998F03F
:102E100023957E9173957A3308F070E37C932013A9
:102E2000B8F77E9170617D9330F0839571E37D9367
:102E300070E32A95E1F71124EF90FF900F911F9115
:102E4000CF91DF91992787FD90950895DC01FC01D2
:102E5000672F71917723E1F7329704C07C916D93CE
:102E600070836291AE17BF07C8F308950E94781768
:102E700008F481E00895E89409C097FB3EF490952A
:102E80008095709561957F4F8F4F9F4F9923A9F043
:102E9000F92F96E9BB279395F695879577956795D2
:102EA000B795F111F8CFFAF4BB0F11F460FF1BC016
:102EB0006F5F7F4F8F4F9F4F16C0882311F096E9A9
:102EC00011C0772321F09EE8872F762F05C0662357
:102ED00071F096E8862F70E060E02AF09A95660F10
:102EE000771F881FDAF7880F9695879597F90895C9
:102EF000990F0008550FAA0BE0E8FEEF161617060B
:102F0000E807F907C0F012161306E407F50798F072
:102F1000621B730B840B950B39F40A2661F0232B8B
:102F2000242B252B21F408950A2609F4A140A69507
:102F30008FEF811D811D08950E94AF170C942018FA
:102F40000E94121838F00E94191820F0952311F0F1
:102F50000C9409180C940F1811240C9454180E9406
:102F6000311870F3959FC1F3950F50E0551F629F84
:102F7000F001729FBB27F00DB11D639FAA27F00DD2
:102F8000B11DAA1F649F6627B00DA11D661F829FF9
:102F90002227B00DA11D621F739FB00DA11D621FDE
:102FA000839FA00D611D221F749F3327A00D611DFB
:102FB000231F849F600D211D822F762F6A2F1124DD
:102FC0009F5750409AF0F1F088234AF0EE0FFF1F10
:102FD000BB1F661F771F881F91505040A9F79E3F67
:102FE000510580F00C9409180C9454185F3FE4F3D9
:102FF000983ED4F3869577956795B795F795E795BD
:103000009F5FC1F7FE2B880F911D9695879597F9C5
:10301000089597F99F6780E870E060E008959FEF5A
:1030200080EC089500240A9416161706180609065F
:10303000089500240A94121613061406050608952E
:10304000092E0394000C11F4882352F0BB0F40F4B6
:10305000BF2B11F460FF04C06F5F7F4F8F4F9F4FF6
:10306000089557FD9058440F551F59F05F3F71F078
:103070004795880F97FB991F61F09F3F79F08795DF
:103080000895121613061406551FF2CF4695F1DF68
:1030900008C0161617061806991FF1CF86957105F8
:1030A000610508940895E894BB2766277727CB012C
:1030B00097F908955058BB27AA270E9472180C94BC
:1030C00020180E94121838F00E94191820F039F4C4
:1030D0009F3F19F426F40C940F180EF4E095E7FBCB
:1030E0000C940918E92F0E94311858F3BA17620797
:1030F00073078407950720F079F4A6F50C9453180C
:103100000EF4E0950B2EBA2FA02D0B01B901900102
:103110000C01CA01A0011124FF27591B99F0593F46
:1031200050F4503E68F11A16F040A22F232F342F8E
:103130004427585FF3CF469537952795A795F040DC
:103140005395C9F77EF41F16BA0B620B730B840BF1
:10315000BAF09150A1F0FF0FBB1F661F771F881FA9
:10316000C2F70EC0BA0F621F731F841F48F4879501
:1031700077956795B795F7959E3F08F0B0CF9395F3
:10318000880F08F09927EE0F9795879508950E946C
:10319000DB180C9420180E94191858F00E9412187D
:1031A00040F029F45F3F29F00C94091851110C9458
:1031B00054180C940F180E94311868F39923B1F336
:1031C000552391F3951B550BBB27AA27621773074D
:1031D000840738F09F5F5F4F220F331F441FAA1FE1
:1031E000A9F335D00E2E3AF0E0E832D0915050409D
:1031F000E695001CCAF72BD0FE2F29D0660F771F4B
:10320000881FBB1F261737074807AB07B0E809F030
:10321000BB0B802DBF01FF2793585F4F3AF09E3FB5
:10322000510578F00C9409180C9454185F3FE4F39E
:10323000983ED4F3869577956795B795F7959F5FF8
:10324000C9F7880F911D9695879597F90895E1E044
:10325000660F771F881FBB1F621773078407BA07A3
:1032600020F0621B730B840BBA0BEE1F88F7E095FE
:1032700008950E9440196894B1110C94541808954F
:103280000E94391888F09F5798F0B92F9927B751A5
:10329000B0F0E1F0660F771F881F991F1AF0BA95FA
:1032A000C9F714C0B13091F00E945318B1E00895ED
:1032B0000C945318672F782F8827B85F39F0B93FDF
:1032C000CCF3869577956795B395D9F73EF49095AD
:1032D0008095709561957F4F8F4F9F4F08950E9405
:1032E000781708F48FEF08950E947817880B990BD0
:1032F0000895A1E21A2EAA1BBB1BFD010DC0AA1F37
:10330000BB1FEE1FFF1FA217B307E407F50720F04E
:10331000A21BB30BE40BF50B661F771F881F991FC9
:103320001A9469F760957095809590959B01AC0112
:10333000BD01CF010895EE0FFF1F881F8BBF0790BF
:10334000F691E02D19940F931F93CF93DF93823062
:10335000910510F482E090E0E091F404F091F5041E
:1033600030E020E0B0E0A0E0309799F4211531057D
:1033700009F44AC0281B390B24303105D8F58A815D
:103380009B816115710589F1FB0193838283FE01A5
:1033900011C0408151810281138148175907E0F023
:1033A0004817590799F4109761F012960C931297E9
:1033B00013961C933296CF01DF91CF911F910F91FD
:1033C00008950093F4041093F504F4CF211531050A
:1033D00051F04217530738F0A901DB019A01BD01F2
:1033E000DF01F801C1CFEF01F9CF9093F50480938D
:1033F000F404CDCFFE01E20FF31F8193919322508D
:10340000310939832883D7CF2091F2043091F30416
:10341000232B41F420911E0230911F023093F304BC
:103420002093F20420911C0230911D0221153105D8
:1034300041F42DB73EB74091200250912102241B48
:10344000350BE091F204F091F304E217F307A0F4D6
:103450002E1B3F0B2817390778F0AC014E5F5F4FEA
:103460002417350748F04E0F5F1F5093F304409325
:10347000F204819391939FCFF0E0E0E09CCFCF9353
:10348000DF930097E9F0FC01329713821282A0913A
:10349000F404B091F504ED0130E020E01097A1F4C0
:1034A00020813181820F931F2091F2043091F30427
:1034B0002817390709F061C0F093F304E093F20490
:1034C000DF91CF910895EA01CE17DF07E8F54A8131
:1034D0005B819E0141155105B1F7E901FB83EA8348
:1034E00049915991C40FD51FEC17FD0761F48081F4
:1034F00091810296840F951FE901998388838281C7
:1035000093819B838A83F0E0E0E012968D919C91F9
:1035100013970097B9F52D913C911197CD01029623
:10352000820F931F2091F2043091F304281739077A
:1035300039F6309751F51092F5041092F404B093D7
:10354000F304A093F204BCCFD383C28340815181A2
:10355000840F951FC817D90761F44E5F5F4F8881AC
:103560009981480F591F518340838A819B8193839E
:1035700082832115310509F0B0CFF093F504E09373
:10358000F4049ECFFD01DC01C0CF13821282D7CF9D
:103590004F925F926F927F928F929F92AF92BF9263
:1035A000CF92DF92EF92FF920F931F93CF93DF930F
:1035B0008C01009799F4CB01DF91CF911F910F916E
:1035C000FF90EF90DF90CF90BF90AF909F908F9043
:1035D0007F906F905F904F900C94A319FC01E60FC1
:1035E000F71F9C0122503109E217F30708F4AEC01F
:1035F000D901CD91DC911197C617D70720F1C530BD
:10360000D10578F0CE0104978617970750F0C61BB6
:10361000D70B2297C193D1936D937C93CF010E94D6
:103620003F1AC801DF91CF911F910F91FF90EF904A
:10363000DF90CF90BF90AF909F908F907F906F90D2
:103640005F904F9008955B01AC1ABD0A4C018C0E3F
:103650009D1EA091F404B091F504512C412CF12C45
:10366000E12C109731F58091F2049091F3048815C4
:10367000990509F05CC04616570608F058C08091BD
:103680001C0290911D02009741F48DB79EB74091A6
:10369000200250912102841B950BE817F90708F0CE
:1036A00055C0F093F304E093F204F9017183608351
:1036B000B8CF8D919C91119712966C90129713969A
:1036C0007C901397A815B90559F56C0142E0C40E1A
:1036D000D11CCA14DB0420F1AC014A195B09DA01E0
:1036E0001296159780F06282738251834083D901CC
:1036F0006D937C93E114F10471F0D7011396FC9360
:10370000EE9312978ECF22968C0F9D1FF901918315
:103710008083F301EFCFF093F504E093F40481CFBD
:103720004816590608F42C017D01D3019ACFCB012C
:103730000E94A3197C01009749F0AE01B8010E94D4
:10374000A91BC8010E943F1A87016BCF10E000E05F
:1037500068CFFB01DC0102C001900D924150504046
:10376000D8F70895FB01DC0101900D920020E1F7EC
:10377000089511E0C0EDD1E000E006C0802FFE0109
:103780000E949B192196011DC13DD10780E00807C9
:06379000A9F7F894FFCF39
:103796000102010217191B1D1F2123253738392F56
:1037A6003435362A3132332D6F303D2B0000F60486
:1037B60080003534333200000000BF022902560271
:1037C6000C0387026502790200000000C8069B060A
:1037D600F8067106940681067206000000004F087E
:1037E6002902F806F706000000005E041E04ED0339
:1037F6000D0A006E616E00696E66006F7666005097
:1038060072655761736820005761746572576173FA
:103816006820004472792000776F726B6C65737351
:103826000054696D65205365742000206D6F6465D2
:103836000073746F707065640066696E6973680002
:1038460054696D657220002020005472616E7369A0
:0838560074696F6E3A20000056
:00000001FF
