:100000000C9428010C9459010C9459010C94590139
:100010000C9459010C9459010C9459010C945901F8
:100020000C9459010C9459010C9459010C945901E8
:100030000C9459010C9459010C9459010C945901D8
:100040000C9459010C9459010C9459010C945901C8
:100050000C9459010C9459010C9459010C94CF0241
:100060000C9459010C9443030C9419030C945901FA
:100070000C9459010C9459010C9459010C94590198
:100080000C9459010C9459010C9459010C94590188
:100090000C9459010C9459010C9459010C94590178
:1000A0000C9459010C9459010C9459010C94590168
:1000B0000C9459010C9459010C9459010C94590158
:1000C0000C9459010C9459010C9459010C94590148
:1000D0000C9459010C9459010C9459010C94590138
:1000E0000C9459010C9420050C9497010C94B504C0
:1000F0000C9440050C9416050C94AB010C942E0541
:100100000C942A050C9431020C9401050C940505FD
:100110000C9409050C9432050C94F9010C947E02A0
:100120000C9412050C9424050C94FD040C945B01B2
:100130000C9438050C94BA040C941C050C940C0512
:100140000C9488010C943C05000021002400270039
:100150002A002D00300033000101000004010701D6
:100160000A0100002200250028002B002E0031008B
:10017000340002010000050108010B010505050519
:10018000070508080808020202020A0A080804040F
:10019000040401010101010101010303030303033D
:1001A0000303040707070C0C0C0C0C0C0C0C0202CC
:1001B000020206060606060606060B0B0B0B0B0BC9
:1001C0000B0B010210202008081020401020408056
:1001D000020102010804020101020408102040800B
:1001E0008040201008040201800402018040201099
:1001F00008040201080402010102040810204080E2
:10020000010204081020408000000A0B02090C0DB6
:100210000E080703040100000000000000000000B9
:1002200000000000000000000000000000000000CE
:10023000000000001211100000000000000000008B
:100240000000000000000000000000000000400569
:1002500011241FBECFEFD1E2DEBFCDBF00E00CBF47
:1002600022E0AEE2B2E001C01D92A43DB207E1F788
:1002700012E0A0E0B2E0E2E2FBE000E00BBF02C06F
:1002800007900D92AE32B107D9F711E0C8E2D1E084
:1002900000E006C021970109802FFE010E9487051A
:1002A000C732D10780E00807A9F70E9479030C94B0
:1002B0008F050C940000AF92BF92CF92DF92EF9225
:1002C000FF920F931F93CF93DF936C017B018B0100
:1002D000040F151FEB015E01AE18BF08C017D10750
:1002E00059F06991D601ED91FC910190F081E02DDA
:1002F000C6011995892B79F7C501DF91CF911F911F
:100300000F91FF90EF90DF90CF90BF90AF90089546
:10031000FC01538D448D252F30E0842F90E0821B0B
:10032000930B541710F0CF96089501970895FC0190
:10033000918D828D981761F0A28DAE0FBF2FB11DE8
:100340005D968C91928D9F5F9F73928F90E0089540
:100350008FEF9FEF0895FC01918D828D981731F0FA
:10036000828DE80FF11D858D90E008958FEF9FEF4E
:1003700008952FB7F8948091330290913402A091A0
:100380003502B09136022FBF80933F029093400216
:10039000A0934102B093420287E392E00E94AB0136
:1003A00097FF26C02FB7F8948091330290913402C2
:1003B000A0913502B09136022FBF40913F0250917B
:1003C00040026091410270914202841B950BA60B82
:1003D000B70B40913B0250913C0260913D027091FD
:1003E0003E0284179507A607B707B0F28FEF9FEF7D
:1003F0000895FC01918D228D892F90E0805C9F4FA4
:10040000821B91098F739927089587E392E00E94D8
:10041000F90121E0892B09F420E0822F0895FC01E5
:10042000A48DA80FB92FB11DA35ABF4F2C91848D55
:1004300090E001968F739927848FA689B7892C93B2
:10044000A089B1898C91837080648C93938D848D05
:10045000981306C00288F389E02D80818F7D808308
:100460000895EF92FF920F931F93CF93DF93EC01C8
:1004700081E0888F9B8D8C8D98131AC0E889F9894B
:10048000808185FF15C09FB7F894EE89FF8960834E
:10049000E889F98980818370806480839FBF81E0CF
:1004A00090E0DF91CF911F910F91FF90EF90089511
:1004B000F62E0B8D10E00F5F1F4F0F731127E02EEC
:1004C0008C8D8E110CC00FB607FCFACFE889F98924
:1004D000808185FFF5CFCE010E940F02F1CFEB8D19
:1004E000EC0FFD2FF11DE35AFF4FF0829FB7F894F8
:1004F0000B8FEA89FB8980818062CFCFCF93DF9316
:10050000EC01888D8823B9F0AA89BB89E889F9892B
:100510008C9185FD03C0808186FD0DC00FB607FC60
:10052000F7CF8C9185FFF2CF808185FFEDCFCE0193
:100530000E940F02E9CFDF91CF91089580E090E013
:10054000892B29F00E94050281110E94000080E0A1
:1005500090E0892B49F080E090E0892B29F00E94FF
:10056000000081110E94000080E090E0892B49F09A
:1005700080E090E0892B29F00E94000081110E9408
:10058000000080E090E0892B49F080E090E0892B2A
:1005900029F00E94000081110C94000008951F9220
:1005A0000F920FB60F9211242F933F938F939F9327
:1005B000AF93BF938091330290913402A0913502A2
:1005C000B09136023091320223E0230F2D3758F5D7
:1005D0000196A11DB11D20933202809333029093A6
:1005E0003402A0933502B093360280912E0290918E
:1005F0002F02A0913002B09131020196A11DB11DD0
:1006000080932E0290932F02A0933002B093310278
:10061000BF91AF919F918F913F912F910F900FBEFE
:100620000F901F90189526E8230F0296A11DB11D6B
:10063000D2CF1F920F920FB60F9211240BB60F92CA
:100640002F933F934F935F936F937F938F939F93DA
:10065000AF93BF93EF93FF9387E392E00E940F0263
:10066000FF91EF91BF91AF919F918F917F916F918A
:100670005F914F913F912F910F900BBE0F900FBE46
:100680000F901F9018951F920F920FB60F92112482
:100690000BB60F922F938F939F93EF93FF93E0915D
:1006A0004702F09148028081E0914D02F0914E02A4
:1006B00082FD1DC09081809150028F5F8F732091C9
:1006C0005102821741F0E0915002F0E0E95CFD4FE9
:1006D000958F80935002FF91EF919F918F912F9171
:1006E0000F900BBE0F900FBE0F901F90189580813A
:1006F000F2CF789484B5826084BD84B5816084BD76
:1007000085B5826085BD85B5816085BD80916E00AF
:10071000816080936E0010928100809181008260E0
:10072000809381008091810081608093810080911D
:1007300080008160809380008091B100846080930C
:10074000B1008091B00081608093B00080919100F1
:1007500082608093910080919100816080939100EC
:10076000809190008160809390008091A1008260D0
:100770008093A1008091A10081608093A10080916D
:10078000A00081608093A00080912101826080930D
:1007900021018091210181608093210180912001BC
:1007A00081608093200180917A00846080937A0038
:1007B00080917A00826080937A0080917A008160D3
:1007C00080937A0080917A00806880937A001092FA
:1007D000C100E0914702F091480282E08083E091FD
:1007E0004302F09144021082E0914502F0914602EA
:1007F0008FEC808310924F02E0914B02F0914C02FB
:1008000086E08083E0914902F0914A028081806114
:100810008083E0914902F0914A0280818860808360
:10082000E0914902F0914A02808180688083E091E2
:100830004902F0914A0280818F7D80832BE132E072
:10084000A2E1B2E08D9190E0FC01EE53FE4F4491A5
:1008500084589E4FFC018491882399F090E0880F82
:10086000991FFC01E85BFE4FC591D491FC01EE5944
:10087000FE4F859194918FB7F894E881E42BE8833B
:100880008FBF2A173B07F1F687E392E00E94F90138
:10089000181619060CF05BC00E94B901FC0197FD07
:1008A00060C08D32910521F0C0970A9708F052C0C0
:1008B000C12CD12C7601C0E0E130F105D9F0ED3248
:1008C000F10509F44CC0CF01C0970A9798F4AAE04B
:1008D000B0E0A70196010E946D056F01FF0FEE08C1
:1008E000FF08C60ED71EE81EF91EF0E3CF1AD10886
:1008F000E108F10887E392E00E9497010E94B901A4
:10090000FC01C0970A97C0F2E130F105A9F2CC23AF
:1009100041F0F094E094D094C094C11CD11CE11C2F
:10092000F11CA2E1B2E08AE0C816D1048CF14EE0DD
:1009300050E06BE172E087E392E00E945B0142E0ED
:1009400050E06AE272E087E392E00E945B010E945D
:100950009E029ACF87E392E00E9497019DCFC1E06B
:10096000C9CFC12CD12C7601DCCF809180008F774C
:1009700080938000E22FF0E0EE0FFF1FEE59FE4F54
:10098000C591D4918FB7F894E8819E2B98838FBF3F
:10099000CD01825192408C159D05CCF62D9130E011
:1009A000F901E85FFD4F8491F901EE53FE4F9491F8
:1009B00024583E4FF9012491222351F38823D1F288
:1009C00081508231B8F6E82FF0E08827E551FB4FDF
:1009D0008F4F0C94870505050905B504FD04010535
:1009E000BA040C05120516051C05200524052A0568
:1009F0002E05BA04320538053C05809180008F7DB4
:100A0000B7CF80918000877FB3CF84B58F7784BDC7
:100A1000B1CF84B58F7DFBCF8091B0008F7780936D
:100A2000B000A8CF8091B0008F7DF9CF8091900069
:100A30008F77809390009ECF809190008F7DF9CF2B
:100A400080919000877FF5CF8091A0008F77809371
:100A5000A00090CF8091A0008F7DF9CF8091A00061
:100A6000877FF5CF809120018F778093200182CFFF
:100A7000809120018F7DF9CF80912001877FF5CF74
:100A8000E7E3F2E01382128288EE93E0A0E0B0E0A8
:100A900084839583A683B78384E092E091838083E7
:100AA00085EC90E09587848784EC90E09787868733
:100AB00080EC90E0918B808B81EC90E0938B828B2B
:100AC00082EC90E0958B848B86EC90E0978B868B04
:100AD000118E128E138E148E08950E947805A59F94
:100AE000900DB49F900DA49F800D911D1124089529
:100AF000A29FB001B39FC001A39F700D811D11245F
:100B0000911DB29F700D811D1124911D0895EE0F4E
:100B1000FF1F881F8BBF0790F691E02D1994F89462
:020B2000FFCF05
:100B22000000000031025B0188017E02F901970199
:100B3200AB01363738393A3B3C3D3E696E76616CE3
:0E0B42006964206E756D626572000D0A000018
:00000001FF
