:100000000C9446010C9477010C9477010C947701C1
:100010000C9477010C9477010C9477010C94770180
:100020000C9477010C9477010C9477010C94770170
:100030000C9477010C9477010C9477010C94770160
:100040000C9477010C944A0B0C9477010C94770173
:100050000C9477010C9477010C9477010C94760A38
:100060000C9477010C94400A0C94160A0C947701B6
:100070000C9477010C9477010C9477010C94770120
:100080000C941C0B0C9477010C9477010C94770161
:100090000C9477010C9477010C9477010C94770100
:1000A0000C9477010C9477010C94EE0A0C94770170
:1000B0000C9477010C9477010C9477010C94C00A8E
:1000C0000C9477010C9477010C9477010C947701D0
:1000D0000C9477010C9477010C9477010C947701C0
:1000E0000C9477010C943A020C94FC050C94710367
:1000F0000C94F0020C9402040C945D020C940D021A
:100100000C94CB070C949A030C945F030C943A0F55
:100110000C9465030C94D1030C946B020C94780B33
:100120000C9496030C948C030C946D030C9453075D
:100130000C94A0030C94A4030C9442040C94490264
:100140000C9474030C9488030C9484030C94920311
:100150000C947A030C9469030C949F030C94A302EF
:100160000C947E030C940C02000021002400270054
:100170002A002D00300033000101000004010701B6
:100180000A0100002200250028002B002E0031006B
:10019000340002010000050108010B0100002000ED
:1001A0002300260029002C002F003200000100004F
:1001B00003010601090105050505070508080808EA
:1001C000020202020A0A08080404040401010101EF
:1001D00001010101030303030303030304070707EA
:1001E0000C0C0C0C0C0C0C0C02020202060606068F
:1001F000060606060B0B0B0B0B0B0B0B010210205C
:10020000200808102040102040800201020108044C
:1002100002010102040810204080804020100804E0
:100220000201800402018040201008040201080439
:10023000020101020408102040800102040810207D
:10024000408000000A0B02090C0D0E080703040190
:10025000000000000000000000000000000000009E
:10026000000000000000000000000000000012116B
:10027000100000000000000000000000000000006E
:100280000000000000000000780B3A0F11241FBE90
:10029000CFEFD1E2DEBFCDBF00E00CBF12E0A0E0A7
:1002A000B2E0E4E4F4E200E00BBF02C007900D927C
:1002B000AE3EB107D9F724E0AEEEB2E001C01D9228
:1002C000A73CB207E1F711E0C5E4D1E000E006C0C9
:1002D00021970109802FFE010E94E90FC434D10744
:1002E00080E00807A9F70E94960C0C9410120C9459
:1002F000000096E0899FD0011124A55BBB4F90962A
:100300007C936E935F9791E091969C939197E09187
:10031000B804F091B9049091B704992339F030975B
:1003200051F0811108C0809167041994309719F039
:100330005C968C91FACF0895CF92DF92EF92FF9264
:100340000F931F9396E0899FF0011124E55BFB4F0B
:1003500011A2278D30A12130310551F178F02230E2
:10036000310509F451C02330310509F452C01F9101
:100370000F91FF90EF90DF90CF9008956623B9F32F
:1003800061E070E00E9479012FB7F8948091FB0240
:100390009091FC02A091FD02B091FE022FBF8093CC
:1003A000A3049093A404A093A504B093A604DFCF64
:1003B0009FB7F894C090FB02D090FC02E090FD0241
:1003C000F090FE029FBF0091A3041091A40420911D
:1003D000A5043091A604C01AD10AE20AF30A0091DA
:1003E000B5041091B60430E020E00C151D052E0573
:1003F0003F0550F462E070E01F910F91FF90EF9085
:10040000DF90CF900C9479016111B1CF63E070E07F
:10041000F3CF70E060E0F0CF0895AF92BF92CF923B
:10042000DF92EF92FF920F931F93CF93DF936C01B4
:100430007B018B01040F151FEB015E01AE18BF0895
:10044000C017D10759F06991D601ED91FC91019047
:10045000F081E02DC6011995892B79F7C501DF914F
:10046000CF911F910F91FF90EF90DF90CF90BF90B1
:10047000AF900895FC01538D448D252F30E0842FDB
:1004800090E0821B930B541710F0CF9608950197BC
:100490000895FC01918D828D981761F0A28DAE0FA9
:1004A000BF2FB11D5D968C91928D9F5F9F73928F30
:1004B00090E008958FEF9FEF0895FC01918D828D5C
:1004C000981731F0828DE80FF11D858D90E0089529
:1004D0008FEF9FEF0895FC01918D228D892F90E081
:1004E000805C9F4F821B91098F73992708958FEF2E
:1004F00092E00E946B0221E0892B09F420E0822F18
:100500000895FC01A48DA80FB92FB11DA35ABF4FA8
:100510002C91848D90E001968F739927848FA68902
:10052000B7892C93A089B1898C91837080648C9356
:10053000938D848D981306C00288F389E02D808105
:100540008F7D80830895EF92FF920F931F93CF9337
:10055000DF93EC0181E0888F9B8D8C8D98131AC0FE
:10056000E889F989808185FF15C09FB7F894EE89E5
:10057000FF896083E889F989808183708064808342
:100580009FBF81E090E0DF91CF911F910F91FF908D
:10059000EF900895F62E0B8D10E00F5F1F4F0F7335
:1005A0001127E02E8C8D8E110CC00FB607FCFACFF0
:1005B000E889F989808185FFF5CFCE010E9481020B
:1005C000F1CFEB8DEC0FFD2FF11DE35AFF4FF082C1
:1005D0009FB7F8940B8FEA89FB8980818062CFCF27
:1005E000CF93DF93EC01888D8823B9F0AA89BB896A
:1005F000E889F9898C9185FD03C0808186FD0DC055
:100600000FB607FCF7CF8C9185FFF2CF808185FF75
:10061000EDCFCE010E948102E9CFDF91CF91089505
:1006200080E090E0892B29F00E94770281110E94DE
:10063000000080E090E0892B49F080E090E0892B79
:1006400029F00E94000081110E94000080E090E0EB
:10065000892B49F080E090E0892B29F00E9400006E
:1006600081110E94000080E090E0892B49F080E039
:1006700090E0892B29F00E94000081110C94000069
:1006800008958150823108F05AC0E82FF0E08827A1
:10069000E35BFC4F8F4F0C94E90F6D0371035F0315
:1006A000650369039F0374037A037E03840388034D
:1006B0008C03920396039F039A03A003A4038091E3
:1006C00080008F77809380000895809180008F7DD7
:1006D000F9CF80918000877FF5CF84B58F7784BD77
:1006E000089584B58F7DFBCF8091B0008F77809384
:1006F000B00008958091B0008F7DF9CF8091900077
:100700008F77809390000895809190008F7DF9CF2E
:1007100080919000877FF5CF8091A0008F778093A4
:10072000A00008958091A0008F7DF9CF8091A00056
:10073000877FF5CF809120018F77809320010895E6
:10074000809120018F7DF9CF80912001877FF5CFA7
:10075000CF93DF93282F30E0F901EE5BFD4F8491BA
:10076000F901E450FE4FD491F901EA54FE4FC491CF
:10077000CC23A1F081110E944103EC2FF0E0EE0F99
:10078000FF1FE456FE4FA591B491EC91ED2381E05B
:1007900090E009F480E0DF91CF91089580E090E04F
:1007A000FACF862F0C94A8031F93CF93DF93282FA3
:1007B00030E0F901EE5BFD4F8491F901E450FE4F0A
:1007C000D491F901EA54FE4FC491CC23A9F0162F1D
:1007D00081110E944103EC2FF0E0EE0FFF1FEE5756
:1007E000FE4FA591B4918FB7F894EC91111108C008
:1007F000D095DE23DC938FBFDF91CF911F910895B9
:10080000DE2BF8CF862F642F0C94D403CF93DF9385
:1008100090E0FC01E450FE4F24918A549E4FFC016D
:1008200084918823C9F090E0880F991FFC01E85952
:10083000FE4FA591B491FC01EE57FE4FC591D491A6
:1008400061110DC09FB7F8948C91209582238C93F1
:100850008881282328839FBFDF91CF91089562303C
:1008600051F49FB7F8943C91822F809583238C9309
:10087000E8812E2BEFCF8FB7F894EC912E2B2C9391
:100880008FBFEACF862F642F0C9406043FB7F894ED
:100890008091F7029091F802A091F902B091FA02CA
:1008A00026B5A89B05C02F3F19F00196A11DB11DCB
:1008B0003FBFBA2FA92F982F8827BC01CD01620F07
:1008C000711D811D911D42E0660F771F881F991FC2
:1008D0004A95D1F708958F929F92AF92BF92CF928F
:1008E000DF92EF92FF924B015C010E9446046B0184
:1008F0007C010E9446046C197D098E099F09683E9F
:10090000734081059105A8F321E0821A9108A1089E
:10091000B10888EEC80E83E0D81EE11CF11C8114DA
:100920009104A104B10429F7FF90EF90DF90CF90DC
:10093000BF90AF909F908F9008958F929F92AF92AB
:10094000BF92FF920F931F93CF93DF93FC01F08030
:100950008FE28F1508F44AC0828108E512E0081B77
:10096000110987FD1395000F111F000F111F8181C1
:10097000C8E8D0E0C81BD10987FDD395CC0FDD1F97
:10098000CC0FDD1F4E010D2E000CAA08BB089801EC
:10099000012E000C440B550B281939094A095B0933
:1009A000DB010E94A40F24EB30E040E050E00E9405
:1009B0007A0F820E931EA41EB51E8C169D062CF077
:1009C000E801801691060CF4E4012297CC0FDD1F9C
:1009D0002FB7F8948F2D90E0FC01EE0FFF1FE80F6A
:1009E000F91FE456FC4FD283C1832FBFDF91CF9113
:1009F0001F910F91FF90BF90AF909F908F9008959F
:100A00008130910581F41092800082E08093810012
:100A10001092850010928400B19A80916F008260DC
:100A200080936F0008958230910569F410929000D0
:100A300082E080939100109295001092940088BB00
:100A40008093710008958330910569F41092A0009D
:100A500082E08093A1001092A5001092A40089BBAF
:100A6000809372000895892B61F41092200182E036
:100A70008093210110922501109224018ABB80935A
:100A800073000895AF92BF92CF92DF92EF92FF92E0
:100A90000F931F93CF93DF936B017A01EC01CE503C
:100AA000DD4F28813CE0389F8001399F100D1124D3
:100AB000A0902C04B12C27FF1FC0FB0111821082D3
:100AC00088818F5F888388819801280F311D87FD79
:100AD0003A95F6012A153B051CF488818C30C4F147
:100AE00080819181049680349C4908F473C0F6019A
:100AF00080819181049670C088819801280F311DF2
:100B000087FD3A952A153B05DCF68881A801480F38
:100B1000511D87FD5A95FA01EE0FFF1FE40FF51FD7
:100B2000E456FC4F808186FFCBCF8881F801E80F27
:100B3000F11D87FDFA95CF01EE0FFF1FE80FF91F9A
:100B4000E456FC4F808160E08F730E94D403B8CFDD
:100B5000808191812881A801420F511D27FD5A955E
:100B60009A01FA01EE0FFF1FE20FF31FE456FC4F4C
:100B700021813281820F931FF701918380838881C5
:100B80009801280F311D87FD3A95F901EE0FFF1FDF
:100B9000E20FF31FE456FC4F808186FF22C088815C
:100BA000080F111D87FD1A95F801EE0FFF1FE00FCA
:100BB000F11FE456FC4F808161E08F73DF91CF918C
:100BC0001F910F91FF90EF90DF90CF90BF90AF906B
:100BD0000C94D40380E49CE9F701918380838FEF28
:100BE0008883DF91CF911F910F91FF90EF90DF905D
:100BF000CF90BF90AF90089590E080E00895CF939C
:100C0000DF93EC0160E08E810E94D40361E08E816D
:100C10000E94D40360E08E810E94D4038BE891E0AF
:100C20000197F1F7DF91CF910895CF92DF92EF9284
:100C3000FF920F931F93CF93DF936C017C0187E0AA
:100C4000E80EF11CD0E0C0E0062F10E0B8010C2E39
:100C500002C0759567950A94E2F76170F70181917A
:100C60007F010E94D4032196C430D10579F7C601D3
:100C7000DF91CF911F910F91FF90EF90DF90CF9078
:100C80000C94FF05CF92DF92EF92FF920F931F9388
:100C9000CF93DF93EC01F62E642F8C810E94D40356
:100CA0008D818F3F19F060E00E94D4030F2D10E07A
:100CB0008F8584FF25C06E0187E0C80ED11CF12C02
:100CC000E12CB8010E2C02C0759567950A94E2F7E5
:100CD0006170F60181916F010E94D403FFEFEF1A5A
:100CE000FF0A88E0E816F10461F7CE01DF91CF91A9
:100CF0001F910F91FF90EF90DF90CF900C94FF0524
:100D0000B80184E0759567958A95E1F7CE010E9458
:100D100015066F2DCE01DF91CF911F910F91FF909E
:100D2000EF90DF90CF900C94150640E0682F83E39E
:100D300094E00C94420681E00E9495068BE39FE1CB
:100D40000197F1F70895CF93DF93823029F49091C2
:100D500042049860909342048093460410924704A2
:100D600080E48093480480E18093490480E5809387
:100D70004A0461E0809137040E940604809138049F
:100D80008F3F19F061E00E94060461E08091390410
:100D90000E940604C3E3D4E09E01235334408091B3
:100DA000420484FD0BC084E090E0219628173907A7
:100DB00044F461E08E810E940604EECF88E090E06A
:100DC000F4CF8BE39DE00197F1F760E08091370469
:100DD0000E94D40360E0809139040E94D403809182
:100DE00038048F3F19F060E00E94D40380914204E0
:100DF00084FD34C063E083E394E00E941506CBE4F5
:100E0000D6E4CE010197F1F763E083E394E00E941A
:100E100015062197F1F763E083E394E00E9415063D
:100E200083E592E00197F1F762E083E394E00E94AA
:100E300015068091420480620E94950684E08093AA
:100E400043048CE00E9495060E949B0682E08093FA
:100E5000440486E0DF91CF910C94950680620E9455
:100E600095068BE496E40197F1F780914204806245
:100E70000E94950683E592E00197F1F78091420484
:100E800080620E949506D5CF90914604691710F0B4
:100E90006FEF690FE62FF0E0ED5CFB4F9489890F4F
:100EA00080680C94950641E00E94420681E090E043
:100EB0000895FC0101900020E9F73197AF01481B2C
:100EC000590BBC0183E394E00C940D02FC0180817A
:100ED0009181009711F00C948D1008950F931F933A
:100EE000CF93DF93EC0188819981009759F02A8193
:100EF0003B812617370730F081E0DF91CF911F91BA
:100F00000F9108958B016F5F7F4F0E94161100971C
:100F100059F0998388831B830A832C813D81232B7D
:100F200059F7FC011082E8CF80E0E7CFEF92FF9203
:100F30000F931F93CF93DF93EC017B018A01BA01DA
:100F40000E946E0728813981811114C02115310555
:100F500019F0C9010E948D10198218821D821C820D
:100F60001B821A82CE01DF91CF911F910F91FF90CA
:100F7000EF9008951D830C83B701C9010E940912E7
:100F8000F1CFFB0101900020E9F73197AF01461B3B
:100F9000570B0C949607DF92EF92FF920F931F93DB
:100FA000CF93DF9300D000D0CDB7DEB7E0906A04D6
:100FB000F0906B0421E0E216F10409F092C0182FC2
:100FC00041E0682F83E394E00E9442061235A9F5C0
:100FD0006DE572E08DE294E00E94C1071092F1028B
:100FE0001092F0021092EF021092EE020E949B0605
:100FF00070E060E080EC94E00E949D0470E060E0AE
:101000008AEB94E00E949D0470E060E08DEB94E038
:101010000E949D0460E086E00E94D40360E084E0CA
:101020000E94D40360E082E00E94D40386E492E050
:101030000E94590761E080E0CDC01B3209F05FC01B
:10104000E090F002F090F10281E0E816F10409F07E
:10105000C9C170E060E080EC94E00E949D0470E003
:1010600060E08AEB94E00E949D0470E060E08DEB0C
:1010700094E00E949D041092F1021092F002F0920E
:10108000EF02E092EE021A8219821C821B821E82FB
:101090001D8250E040E06DE572E0CE0101960E94B5
:1010A000960761E086E00E94D40361E084E00E943C
:1010B000D40361E082E00E94D4030E949B066DE5A8
:1010C00072E08DE294E00E94C10781E592E00E9407
:1010D000590761E080E00E944407CE0101960E941A
:1010E000660726960FB6F894DEBF0FBECDBFDF9120
:1010F000CF911F910F91FF90EF90DF9008951D32D7
:1011000009F091C000913104109132041A821982C1
:101110001C821B821E821D8250E040E06DE572E061
:10112000CE0101960E94960780913104909132047D
:10113000009719F17801E1E0EE1AF1088E159F058C
:1011400008F47C01E0912D04F0912E04EE0DFF1DBA
:10115000D080108260912D0470912E04611571056C
:10116000E1F1CE0101960E94C10780912D0490917A
:101170002E04E80EF91EF701D08280912D04909183
:101180002E040097C9F169817A816115710591F189
:1011900040912F04509130042D813E814217530716
:1011A00048F10E9409128D819E81909332048093B0
:1011B00031041E821D82CE0101960E9466070150F5
:1011C00061E0802F0E9444078BE592E00E9459075E
:1011D00061E0802F0E94440784CF89819A81009723
:1011E00011F00E948D101A8219821E821D821C82AB
:1011F0001B82BBCF0E948D1089819A8190932E040F
:1012000080932D048B819C819093300480932F04D4
:101210008D819E8190933204809331041A821982C9
:101220001C821B82C6CF1A3209F0DCC00E949B06CA
:1012300060E080E00E9444078091EE029091EF020E
:10124000892B09F06BC08091310490913204892B75
:1012500009F443C06EE572E080912D0490912E0454
:101260000E940012892BC9F58AE892E00E94590772
:1012700064EF71E080E090E00E946B040E949B06A6
:101280006DE572E08DE294E00E94C10786E692E08F
:101290000E9459076AE570E080EC94E00E949D048A
:1012A0006AE570E08AEB94E00E949D046AE570E0D4
:1012B0008DEB94E00E949D04F092F102E092F00226
:1012C00068E572E080E090E00E946B040E949B065B
:1012D00087E792E00E94590704CF88E892E00E94D5
:1012E000590764EF71E080E090E00E946B040E9477
:1012F0009B0682E992E00E94590764EF71E080E06A
:1013000090E00E946B040E949B066DE572E08DE206
:1013100094E00E94C1078FE992E08ACE80912D046B
:1013200090912E04009709F446C00E943E0F6C3045
:1013300071058105910569F16D3071058105910592
:1013400089F16B30710581059105A9F58AEA92E072
:101350000E9459076AE570E080EC94E00E949D04C9
:101360006DE572E08DE294E00E94C10764E873E0ED
:1013700080E090E00E946B040E949B0682ED92E068
:101380000E94590761E080E00E94440781EE92E0EC
:10139000A1CF8FEA92E00E9459076AE570E08AEBDC
:1013A00094E0DCCF8EEB92E00E9459076AE570E092
:1013B0008DEB94E0D3CF85EC92E00E94590764EF67
:1013C00071E080E090E00E946B040E949B0660E068
:1013D00080E00E9444076DE572E08DE294E00E9497
:1013E000C107BECF19831A820091310410913204D3
:1013F0000F5F1F4FB8018DE294E00E946E078823B3
:1014000009F46FCE20912D0430912E048091310487
:1014100090913204BE016F5F7F4F820F931F0E9435
:10142000091210933204009331045BCE1F920F9285
:101430000FB60F9211240BB60F922F933F934F9339
:101440005F936F937F938F939F93AF93BF93EF932C
:10145000FF938FEF92E00E948102FF91EF91BF9185
:10146000AF919F918F917F916F915F914F913F913C
:101470002F910F900BBE0F900FBE0F901F901895DD
:101480001F920F920FB60F9211240BB60F922F934B
:101490008F939F93EF93FF93E0910F03F0911003CD
:1014A0008081E0911503F091160382FD1DC09081AB
:1014B000809118038F5F8F7320911903821741F079
:1014C000E0911803F0E0E150FD4F958F80931803F1
:1014D000FF91EF919F918F912F910F900BBE0F90E5
:1014E0000FBE0F901F9018958081F2CF1F920F9220
:1014F0000FB60F9211242F933F938F939F93AF9327
:10150000BF938091FB029091FC02A091FD02B091EB
:10151000FE023091F60223E0230F2D3758F5019695
:10152000A11DB11D2093F6028093FB029093FC0253
:10153000A093FD02B093FE028091F7029091F80211
:10154000A091F902B091FA020196A11DB11D8093FC
:10155000F7029093F802A093F902B093FA02BF91B8
:10156000AF919F918F913F912F910F900FBE0F9050
:101570001F90189526E8230F0296A11DB11DD2CF0A
:101580001F920F920FB60F9211240BB60F922F934A
:101590003F934F935F936F937F938F939F93AF93FB
:1015A000BF93EF93FF9348E251E064E271E090E073
:1015B00080E00E944205FF91EF91BF91AF919F9112
:1015C0008F917F916F915F914F913F912F910F90EC
:1015D0000BBE0F900FBE0F901F9018951F920F9289
:1015E0000FB60F9211240BB60F922F933F934F9388
:1015F0005F936F937F938F939F93AF93BF93EF937B
:10160000FF9348EA50E064EA70E083E090E00E94D3
:101610004205FF91EF91BF91AF919F918F917F9183
:101620006F915F914F913F912F910F900BBE0F9053
:101630000FBE0F901F9018951F920F920FB60F922A
:1016400011240BB60F922F933F934F935F936F9399
:101650007F938F939F93AF93BF93EF93FF9348E94B
:1016600050E064E970E082E090E00E944205FF9162
:10167000EF91BF91AF919F918F917F916F915F910A
:101680004F913F912F910F900BBE0F900FBE0F9077
:101690001F9018951F920F920FB60F9211240BB640
:1016A0000F922F933F934F935F936F937F938F93FB
:1016B0009F93AF93BF93EF93FF9348E850E064E8A4
:1016C00070E081E090E00E944205FF91EF91BF91B0
:1016D000AF919F918F917F916F915F914F913F91CA
:1016E0002F910F900BBE0F900FBE0F901F9018956B
:1016F000109202031092010388EE93E0A0E0B0E0A4
:101700008093030390930403A0930503B09306030F
:1017100082E292E0909300038093FF0285EC90E0D8
:1017200090930C0380930B0384EC90E090930E0352
:1017300080930D0380EC90E09093100380930F034F
:1017400081EC90E0909312038093110382EC90E07F
:10175000909314038093130386EC90E09093160308
:1017600080931503109218031092190310921A0314
:1017700010921B0380912C04803308F0ADC091E0DF
:10178000980F90932C048093C00490E0FC01EE0F1E
:10179000FF1FE80FF91FE456FC4F88EB9BE0928394
:1017A000818380912C04803308F49AC08FEF80935A
:1017B000BA0480912C04803308F4A5C08FEF809385
:1017C000BD0410924D0410925104109250041092D6
:1017D000520480E492E090934C0480934B04E7E63B
:1017E000F4E083EA94E01082148213821582369624
:1017F0008E179F07C1F784E092E09093AE04809328
:10180000AD0480E092E09093B0048093AF0484E054
:101810008093B1048093B20488E092E09093AC048A
:101820008093AB048AE090E09093B4048093B30477
:1018300084EF91E09093B6048093B5041092B904BC
:101840001092B8041092A7041092A8041092A90450
:101850001092AA041092B704109236041092350424
:1018600084E392E090933404809333048DE080937A
:1018700037048FEF809338048CE0809339048BE039
:1018800080933A048AE080933B0489E080933C048F
:1018900088E080933D0410923E0410923F04109221
:1018A0004004109241041092420481E00E94A30679
:1018B00010922E0410922D041092300410922F04D6
:1018C000109232041092310450E040E06DE572E075
:1018D0008DE294E00C9496078FEF8093C00461CF63
:1018E00091E0980F90932C048093BA0490E0FC014F
:1018F000EE0FFF1FE80FF91FE456FC4F88EB9BE04B
:101900009283818356CF91E0980F90932C0480931B
:10191000BD0490E0FC01EE0FFF1FE80FF91FE45635
:10192000FC4F88EB9BE0928381834BCF789484B506
:10193000826084BD84B5816084BD85B5826085BDCB
:1019400085B5816085BD80916E00816080936E0059
:10195000109281008091810082608093810080914B
:1019600081008160809381008091800081608093FC
:1019700080008091B10084608093B1008091B000BC
:1019800081608093B000809191008260809391008B
:10199000809191008160809391008091900081609E
:1019A000809390008091A10082608093A10080913B
:1019B000A10081608093A1008091A000816080934C
:1019C000A0008091210182608093210180912101FA
:1019D00081608093210180912001816080932001AA
:1019E00080917A00846080937A0080917A0082608E
:1019F00080937A0080917A00816080937A00809150
:101A00007A00806880937A001092C10061E086E0DD
:101A10000E94060461E084E00E94060461E082E026
:101A20000E9406048091C004803308F043C061E046
:101A300087E00E9406048091C004282F30E0F9015D
:101A4000EE0FFF1FE20FF31FE456FC4F9081907CD6
:101A5000976090831092C1041092C2042CE0622F10
:101A60000E94DD0F90E0829FB001112430E020E061
:101A7000AB01420F531FFA01EE0FFF1FE40FF51FDA
:101A8000E456FC4F408146FD07C02F5F3F4F2C308E
:101A9000310571F70E940005E091C0048E2F90E09F
:101AA000FC01EE0FFF1FE80FF91FE456FC4F808189
:101AB0008064808370E060E080EC94E00E949D048C
:101AC000CAEBD4E015E00CE08881803308F040C018
:101AD00061E0812F0E9406048881282F30E0F901FF
:101AE000EE0FFF1FE20FF31FE456FC4F9081907C36
:101AF000212F2F73922B908319821A82602F0E94BC
:101B0000DD0F90E0809FA001112430E020E0BA01B9
:101B1000620F731FFB01EE0FFF1FE60FF71FE45666
:101B2000FC4F608166FD07C02F5F3F4F2C303105B1
:101B300071F70E940005E8818E2F90E0FC01EE0F06
:101B4000FF1FE80FF91FE456FC4F808180648083FB
:101B500070E060E0CE010E949D0423961250113087
:101B600009F0B2CF82E00E94A30686E492E00E94D0
:101B7000590761E080E00E9444078BEC97E0909366
:101B8000B9048093B804E0910F03F091100382E050
:101B90008083E0910B03F0910C031082E0910D0320
:101BA000F0910E038FEC808310921703E0911303E2
:101BB000F091140386E08083E0911103F091120309
:101BC000808180618083E0911103F0911203808114
:101BD00088608083E0911103F09112038081806816
:101BE0008083E0911103F091120380818F7D8083C7
:101BF000812C912C5401839447E8442E44E0542EC8
:101C000066246A94762C51E05093B7048FB7F89409
:101C10004091FB025091FC026091FD027091FE0226
:101C20008FBF8091A7049091A804A091A904B091BE
:101C3000AA04481B590B6A0B7B0B8091B30490914B
:101C4000B404B0E0A0E0C0E084179507A607B7078A
:101C500028F01092B7040E941003D5CF8091B104F0
:101C6000C81760F4E091AD04F091AE04EC0FF11DE3
:101C700062E080810E940604CF5FF0CF312C80911A
:101C8000B204381608F05FC0032D10E0E091AF04F5
:101C9000F091B004E00FF11F61E080810E94060422
:101CA000E091AF04F091B004E00FF11F60E080819B
:101CB0000E94D403D501C401032C04C0880F991FCE
:101CC000AA1FBB1F0A94D2F76C017C01E094F09428
:101CD000212C8091B1042816F8F4C22DD0E0E091B7
:101CE000AD04F091AE04EC0FFD1F80810E94A803AB
:101CF0002496CC0FDD1FC55BDB4F892B41F4888117
:101D000099818C299D29998388832394E2CF8881A6
:101D100099818E219F21F7CFE091AF04F091B0041B
:101D2000E00FF11F61E080810E94D4038091AF0435
:101D30009091B004080F191F60E0F80180810E94A3
:101D4000060433949CCF0BE414E0E8018F8D98A136
:101D5000892B21F41C8E7E8E6D8E19A226964C1630
:101D60005D06A1F7D12C8091B104D81608F053C0BC
:101D7000C12CED2CF12CEE0CFF1CC7018D5A9B4F92
:101D80007C012091B204C21608F043C0F7016081C3
:101D900071810C2C02C0769567950A94E2F7D29E69
:101DA000900111242C0D311DEBE4F4E080E0458D11
:101DB000568D2417350709F45BC08F5F36968A303D
:101DC000B1F760FF24C0EBE4F4E090E080E0448DE4
:101DD000411118C0E091AB04F091AC04E20FF31F85
:101DE000408156E0589FF001599FF00D1124E55BAA
:101DF000FB4F448F368F258F10A2178E61E00E9413
:101E00009C0105C0019636968A30910501F7C3946E
:101E1000B8CFD394A8CF80E0F80191A19111892F78
:101E20000A5F1F4F0C171D07B9F79FB7F894409131
:101E3000FB025091FC026091FD027091FE029FBF77
:101E40004093A7045093A8046093A9047093AA0434
:101E5000882309F4FECE80916C04882309F4F9CE1E
:101E600080916A0490916B04019709F0F2CEF3CE51
:101E70006170C5CF8DE294E00C9466071F93FC015E
:101E800099278827BC01E89411911032E9F31930A1
:101E900010F01E30C8F31B3251F01D3249F4689423
:101EA00006C00E94650F610F711D811D911D11916A
:101EB00010531A30B0F33EF490958095709561956B
:101EC0007F4F8F4F9F4F1F910895592F482F372FC6
:101ED000262F660F771F881F991F660F771F881F91
:101EE000991F620F731F841F951F660F771F881F2E
:101EF000991F0895052E97FB1EF400940E94910FE0
:101F000057FD07D00E94AC0F07FC03D04EF40C9491
:101F1000910F50954095309521953F4F4F4F5F4F12
:101F2000089590958095709561957F4F8F4F9F4F45
:101F300008950E94CE0FA59F900DB49F900DA49F71
:101F4000800D911D11240895B7FF0C94990F0E94E4
:101F5000990F821B930B0895A1E21A2EAA1BBB1B9B
:101F6000FD010DC0AA1FBB1FEE1FFF1FA217B30765
:101F7000E407F50720F0A21BB30BE40BF50B661F7B
:101F8000771F881F991F1A9469F76095709580953F
:101F900090959B01AC01BD01CF010895A29FB001B6
:101FA000B39FC001A39F700D811D1124911DB29F8D
:101FB000700D811D1124911D0895991B79E004C0B5
:101FC000991F961708F0961B881F7A95C9F7809578
:101FD0000895EE0FFF1F881F8BBF0790F691E02D2D
:101FE00019940F931F93CF93DF938230910510F4D0
:101FF00082E090E0E091C504F091C60430E020E07A
:10200000B0E0A0E0309799F42115310509F44AC0F9
:10201000281B390B24303105D8F58A819B81611545
:10202000710589F1FB0193838283FE0111C0408118
:1020300051810281138148175907E0F04817590769
:1020400099F4109761F012960C93129713961C93C3
:102050003296CF01DF91CF911F910F910895009398
:10206000C5041093C604F4CF2115310551F0421771
:10207000530738F0A901DB019A01BD01DF01F80126
:10208000C1CFEF01F9CF9093C6048093C504CDCFA3
:10209000FE01E20FF31F819391932250310939839E
:1020A0002883D7CF2091C3043091C404232B41F45B
:1020B00020911A0230911B023093C4042093C30470
:1020C00020911802309119022115310541F42DB7E4
:1020D0003EB740911C0250911D02241B350BE0912C
:1020E000C304F091C404E217F307A0F42E1B3F0BC6
:1020F0002817390778F0AC014E5F5F4F241735077A
:1021000048F04E0F5F1F5093C4044093C304819363
:1021100091939FCFF0E0E0E09CCFCF93DF930097C7
:10212000E9F0FC01329713821282A091C504B091AC
:10213000C604ED0130E020E01097A1F42081318148
:10214000820F931F2091C3043091C40428173907CC
:1021500009F061C0F093C404E093C304DF91CF9110
:102160000895EA01CE17DF07E8F54A815B819E01F9
:1021700041155105B1F7E901FB83EA834991599172
:10218000C40FD51FEC17FD0761F480819181029681
:10219000840F951FE90199838883828193819B83B2
:1021A0008A83F0E0E0E012968D919C91139700975E
:1021B000B9F52D913C911197CD010296820F931F95
:1021C0002091C3043091C4042817390739F6309799
:1021D00051F51092C6041092C504B093C404A093A4
:1021E000C304BCCFD383C28340815181840F951F28
:1021F000C817D90761F44E5F5F4F88819981480FF6
:10220000591F518340838A819B8193838283211547
:10221000310509F0B0CFF093C604E093C5049ECF1A
:10222000FD01DC01C0CF13821282D7CF4F925F92A3
:102230006F927F928F929F92AF92BF92CF92DF92D6
:10224000EF92FF920F931F93CF93DF938C01009730
:1022500099F4CB01DF91CF911F910F91FF90EF90F7
:10226000DF90CF90BF90AF909F908F907F906F90B6
:102270005F904F900C94F10FFC01E60FF71F9C014B
:1022800022503109E217F30708F4AEC0D901CD910D
:10229000DC911197C617D70720F1C530D10578F02A
:1022A000CE0104978617970750F0C61BD70B2297CD
:1022B000C193D1936D937C93CF010E948D10C8017F
:1022C000DF91CF911F910F91FF90EF90DF90CF9012
:1022D000BF90AF909F908F907F906F905F904F9046
:1022E00008955B01AC1ABD0A4C018C0E9D1EA09195
:1022F000C504B091C604512C412CF12CE12C10974F
:1023000031F58091C3049091C4048815990509F0B2
:102310005CC04616570608F058C08091180290918C
:102320001902009741F48DB79EB740911C0250915D
:102330001D02841B950BE817F90708F055C0F093B0
:10234000C404E093C304F90171836083B8CF8D9115
:102350009C91119712966C90129713967C901397FC
:10236000A815B90559F56C0142E0C40ED11CCA1478
:10237000DB0420F1AC014A195B09DA0112961597CA
:1023800080F06282738251834083D9016D937C9384
:10239000E114F10471F0D7011396FC93EE931297B8
:1023A0008ECF22968C0F9D1FF90191838083F301BC
:1023B000EFCFF093C604E093C50481CF48165906C9
:1023C00008F42C017D01D3019ACFCB010E94F10FBB
:1023D0007C01009749F0AE01B8010E94F711C801D5
:1023E0000E948D1087016BCF10E000E068CFFB01E9
:1023F000DC0102C001900D9241505040D8F7089581
:10240000FB01DC018D91019080190110D9F3990B2A
:102410000895FB01DC0101900D920020E1F7089581
:1024200011E0C5E4D1E000E006C0802FFE010E946B
:10243000E90F2196011DC634D10780E00807A9F7EE
:04244000F894FFCF3E
:102444001A1B1C1D161718193738392F3435362A1C
:102454003132332D52303D2B0000C7048000000080
:102464000000A3020D023A02F0026B0249025D026F
:102474000000000053070D02FC050C0200000000E0
:1024840042040204D10370617373776F72643A205B
:1024940000666F6F64206964203A00202000393898
:1024A400333130323000646F6F72206973206F7083
:1024B400656E206E6F77007072657373202B2074C5
:1024C4006F20636C6F736500696E636F727265630E
:1024D4007400706C65617365207265747279007044
:1024E400617373776F7264203A006D696C6B00637B
:1024F400686F636F6C6174652063616B65006E6106
:10250400706B696E0077726F6E67206E756D6265B1
:1025140072007072657373204F4E2F4320666F7282
:0E252400006E65772072657175657374000036
:00000001FF
