:100000000C9444010C9475010C9475010C947501C9
:100010000C9475010C9475010C9475010C94750188
:100020000C9475010C9475010C9475010C94750178
:100030000C9475010C9475010C9475010C94750168
:100040000C9475010C9475010C9475010C94750158
:100050000C9475010C9475010C9475010C943B077C
:100060000C9475010C9405070C94DB060C94750137
:100070000C9475010C9475010C9475010C94750128
:100080000C9475010C9475010C9475010C94750118
:100090000C9475010C9475010C9475010C94750108
:1000A0000C9475010C9475010C9475010C947501F8
:1000B0000C9475010C9475010C9475010C947501E8
:1000C0000C9475010C9475010C9475010C947501D8
:1000D0000C9475010C9475010C9475010C947501C8
:1000E0000C9475010C9469040C94A1030C9485077D
:1000F0000C949D030C9468020C9437020C94FF033B
:100100000C945A020C9471030C948F030C94ED021E
:100110000C9497030C949C030C9485030C94770324
:100120000C946A030C9468040C94B1050C946E034F
:100130000C940A020C947B030C9489030C946203C4
:100140000C9493030C9446020C94A0020C945C0350
:100150000C94FD0A0C9481030C9466030C943F04E8
:100160000C94CE0300002100240027002A002D005B
:100170003000330001010000040107010A01000002
:100180002200250028002B002E003100340002013F
:100190000000050108010B010000200023002600DB
:1001A00029002C002F00320000010000030106018D
:1001B00009010505050507050808080802020202ED
:1001C0000A0A0808040404040101010101010101F3
:1001D0000303030303030303040707070C0C0C0CBE
:1001E0000C0C0C0C020202020606060606060606A7
:1001F0000B0B0B0B0B0B0B0B010210202008081034
:100200002040102040800201020108040201010286
:10021000040810204080804020100804020180045F
:1002200002018040201008040201080402010102BA
:1002300004081020408001020408102040800000C3
:100240000A0B02090C0D0E08070304010000000050
:10025000000000000000000000000000000000009E
:10026000000000000000000000001211100000005B
:10027000000000000000000000000000000000007E
:10028000000000008507FD0A11241FBECFEFD1E258
:10029000DEBFCDBF00E00CBF23E0A2E5B2E001C0AD
:1002A0001D92A739B207E1F712E0A0E0B2E0EEE755
:1002B000FBE100E00BBF02C007900D92A235B10731
:1002C000D9F711E0C3E4D1E000E006C021970109AD
:1002D000802FFE010E947B0BC234D10780E008070B
:1002E000A9F70E9449080C94AD0D0C94000096E00B
:1002F000899FD0011124AC5DBC4F90967C936E9386
:100300005F9791E091969C939197E0919103F09182
:10031000920390919003992339F0309751F0811115
:1003200008C0809140031994309719F05C968C9125
:10033000FACF0895CF92DF92EF92FF920F931F931F
:1003400096E0899FF0011124EC5DFC4F11A2278DEE
:1003500030A12130310551F178F02230310509F416
:1003600051C02330310509F452C01F910F91FF9005
:10037000EF90DF90CF9008956623B9F361E070E0CD
:100380000E9477012FB7F8948091590290915A02F8
:10039000A0915B02B0915C022FBF80937C0390938D
:1003A0007D03A0937E03B0937F03DFCF9FB7F894C4
:1003B000C0905902D0905A02E0905B02F0905C022B
:1003C0009FBF00917C0310917D0320917E033091AB
:1003D0007F03C01AD10AE20AF30A00918E0310913A
:1003E0008F0330E020E00C151D052E053F0550F46D
:1003F00062E070E01F910F91FF90EF90DF90CF903F
:100400000C9477016111B1CF63E070E0F3CF70E03D
:1004100060E0F0CFAF92BF92CF92DF92EF92FF9267
:100420000F931F93CF93DF936C017B018B01040F1C
:10043000151FEB015E01AE18BF08C017D10759F0B8
:100440006991D601ED91FC910190F081E02DC601FA
:100450001995892B79F7C501DF91CF911F910F91E4
:10046000FF90EF90DF90CF90BF90AF900895FC0188
:10047000538D448D252F30E0842F90E0821B930B09
:10048000541710F0CF96089501970895FC01918DAF
:10049000828D981761F0A28DAE0FBF2FB11D5D96B2
:1004A0008C91928D9F5F9F73928F90E008958FEF54
:1004B0009FEF0895FC01918D828D981731F0828D08
:1004C000E80FF11D858D90E008958FEF9FEF08955F
:1004D000FC01918D228D892F90E0805C9F4F821BC3
:1004E00091098F73992708958DE592E00E94680223
:1004F00021E0892B09F420E0822F0895FC01A48DCE
:10050000A80FB92FB11DA35ABF4F2C91848D90E035
:1005100001968F739927848FA689B7892C93A08918
:10052000B1898C91837080648C93938D848D9813A2
:1005300006C00288F389E02D80818F7D8083089535
:10054000EF92FF920F931F93CF93DF93EC0181E023
:10055000888F9B8D8C8D98131AC0E889F9898081CA
:1005600085FF15C09FB7F894EE89FF896083E889FD
:10057000F98980818370806480839FBF81E090E0EF
:10058000DF91CF911F910F91FF90EF900895F62E7C
:100590000B8D10E00F5F1F4F0F731127E02E8C8D16
:1005A0008E110CC00FB607FCFACFE889F98980815B
:1005B00085FFF5CFCE010E947E02F1CFEB8DEC0FCF
:1005C000FD2FF11DE35AFF4FF0829FB7F8940B8F78
:1005D000EA89FB8980818062CFCFCF93DF93EC01E2
:1005E000888D8823B9F0AA89BB89E889F9898C911B
:1005F00085FD03C0808186FD0DC00FB607FCF7CFD7
:100600008C9185FFF2CF808185FFEDCFCE010E94D6
:100610007E02E9CFDF91CF91089580E090E0892BB1
:1006200029F00E94740281110E94000080E090E095
:10063000892B49F080E090E0892B29F00E9400008E
:1006400081110E94000080E090E0892B49F080E059
:1006500090E0892B29F00E94000081110E94000087
:1006600080E090E0892B49F080E090E0892B29F030
:100670000E94000081110C94000008958150823185
:1006800008F05AC0E82FF0E08827E65BFC4F8F4F58
:100690000C947B0B6A036E035C03620366039C038A
:1006A000710377037B038103850389038F0393031E
:1006B0009C0397039D03A103809180008F77809313
:1006C00080000895809180008F7DF9CF8091800017
:1006D000877FF5CF84B58F7784BD089584B58F7DEE
:1006E000FBCF8091B0008F778093B0000895809108
:1006F000B0008F7DF9CF809190008F77809390002C
:100700000895809190008F7DF9CF80919000877F30
:10071000F5CF8091A0008F778093A00008958091FD
:10072000A0008F7DF9CF8091A000877FF5CF8091C9
:1007300020018F77809320010895809120018F7D83
:10074000F9CF80912001877FF5CFCF93DF93282FBA
:1007500030E0F901E25CFD4F8491F901E850FE4F71
:10076000D491F901EE54FE4FC491CC23A1F0811134
:100770000E943E03EC2FF0E0EE0FFF1FE856FE4F05
:10078000A591B491EC91ED2381E090E009F480E033
:10079000DF91CF91089580E090E0FACF862F0C94FE
:1007A000A5031F93CF93DF93282F30E0F901E25C7C
:1007B000FD4F8491F901E850FE4FD491F901EE54B8
:1007C000FE4FC491CC23A9F0162F81110E943E0345
:1007D000EC2FF0E0EE0FFF1FE258FE4FA591B49111
:1007E0008FB7F894EC91111108C0D095DE23DC93FB
:1007F0008FBFDF91CF911F910895DE2BF8CF862F09
:10080000642F0C94D103CF93DF9390E0FC01E85068
:10081000FE4F24918E549E4FFC0184918823C9F091
:1008200090E0880F991FFC01EC59FE4FA591B491FF
:10083000FC01E258FE4FC591D49161110DC09FB7E4
:10084000F8948C91209582238C9388812823288387
:100850009FBFDF91CF910895623051F49FB7F89414
:100860003C91822F809583238C93E8812E2BEFCFB0
:100870008FB7F894EC912E2B2C938FBFEACF862F55
:10088000642F0C9403043FB7F89480915302909125
:100890005402A0915502B091560226B5A89B05C0FE
:1008A0002F3F19F00196A11DB11D3FBFBA2FA92FEF
:1008B000982F8827BC01CD01620F711D811D911DEC
:1008C00042E0660F771F881F991F4A95D1F7089558
:1008D000089590E080E00895CF93DF93EC0160E00D
:1008E0008E810E94D10361E08E810E94D10360E07D
:1008F0008E810E94D1038BE891E00197F1F7DF919F
:10090000CF910895CF92DF92EF92FF920F931F93B2
:10091000CF93DF936C017C0187E0E80EF11CD0E0FF
:10092000C0E0062F10E0B8010C2E02C07595679547
:100930000A94E2F76170F70181917F010E94D1036F
:100940002196C430D10579F7C601DF91CF911F916F
:100950000F91FF90EF90DF90CF900C946C04CF92AA
:10096000DF92EF92FF920F931F93CF93DF93EC01EF
:10097000F62E642F8C810E94D1038D818F3F19F058
:1009800060E00E94D1030F2D10E08F8584FF25C009
:100990006E0187E0C80ED11CF12CE12CB8010E2CA1
:1009A00002C0759567950A94E2F76170F60181912E
:1009B0006F010E94D103FFEFEF1AFF0A88E0E816EB
:1009C000F10461F7CE01DF91CF911F910F91FF905C
:1009D000EF90DF90CF900C946C04B80184E0759593
:1009E00067958A95E1F7CE010E9482046F2DCE01B2
:1009F000DF91CF911F910F91FF90EF90DF90CF90FB
:100A00000C94820440E0682F8CE093E00C94AF04D7
:100A100081E00E9402058BE39FE10197F1F70895C1
:100A2000CF93DF93823029F490911B0398609093C9
:100A30001B0380931F031092200380E48093210303
:100A400080E18093220380E58093230361E080911D
:100A500010030E940304809111038F3F19F061E09D
:100A60000E94030461E0809112030E940304CCE021
:100A7000D3E09E012C50334080911B0384FD0BC0BA
:100A800084E090E021962817390744F461E08E81D4
:100A90000E940304EECF88E090E0F4CF8BE39DE06A
:100AA0000197F1F760E0809110030E94D10360E0AC
:100AB000809112030E94D103809111038F3F19F09E
:100AC00060E00E94D10380911B0384FD34C063E089
:100AD0008CE093E00E948204CBE4D6E4CE0101973F
:100AE000F1F763E08CE093E00E9482042197F1F734
:100AF00063E08CE093E00E94820483E592E001973A
:100B0000F1F762E08CE093E00E94820480911B0385
:100B100080620E94020584E080931C038CE00E94A6
:100B200002050E94080582E080931D0386E0DF91A4
:100B3000CF910C94020580620E9402058BE496E43A
:100B40000197F1F780911B0380620E94020583E503
:100B500092E00197F1F780911B0380620E940205E9
:100B6000D5CF41E00E94AF0481E090E008958F92DC
:100B70009F92AF92BF920F931F93CF93DF93CDB706
:100B8000DEB7A1970FB6F894DEBF0FBECDBF19A296
:100B9000423008F44AE08E010F5D1F4F842E912CE5
:100BA000B12CA12CA50194010E94590BE62FB9018B
:100BB000CA01EA3044F5E05DD801EE938D01232BA4
:100BC000242B252B79F790E080E0109769F0FD0148
:100BD00001900020E9F73197AF014A1B5B0BBD0183
:100BE0008CE093E00E940A02A1960FB6F894DEBF53
:100BF0000FBECDBFDF91CF911F910F91BF90AF90EE
:100C00009F908F900895E95CD7CFCF92DF92EF92BB
:100C1000FF926C01990FEE08FF08F7FE16C041E045
:100C20006DE28CE093E00E94AF0466277727CB014A
:100C30006C197D098E099F094AE00E94B70501964B
:100C4000FF90EF90DF90CF9008954AE0C701B60182
:100C5000FF90EF90DF90CF900C94B705FC0180815E
:100C60009181009711F00C94330C08950F931F930A
:100C7000CF93DF93EC0188819981009759F02A8105
:100C80003B812617370730F081E0DF91CF911F912C
:100C90000F9108958B016F5F7F4F0E94BC0C0097EE
:100CA00059F0998388831B830A832C813D81232BF0
:100CB00059F7FC011082E8CF80E0E7CFCF93DF93B4
:100CC000EC01198218821B821A821D821C8270E03C
:100CD00060E00E9436062881398181110FC02115FC
:100CE000310519F0C9010E94330C198218821D8246
:100CF0001C821B821A82DF91CF9108951D821C8273
:100D000060E572E0C901DF91CF910C94A60DCF93FD
:100D1000DF93EC0170E060E00E94360628813981A3
:100D200081110FC02115310519F0C9010E94330C42
:100D3000198218821D821C821B821A82DF91CF9138
:100D400008951D821C8260E572E0C901DF91CF9198
:100D50000C94A60DEF92FF920F931F93CF93DF9306
:100D60001F921F92CDB7DEB78C0169831A82FC01F6
:100D7000E480F580FFEFEF1AFF0AB7010E94360604
:100D8000882381F0F8012081318184819581BE0121
:100D90006F5F7F4F820F931F0E94A60DF801F582AF
:100DA000E48281E00F900F90DF91CF911F910F911E
:100DB000FF90EF9008951F920F920FB60F9211249B
:100DC0000BB60F922F933F934F935F936F937F9345
:100DD0008F939F93AF93BF93EF93FF938DE592E033
:100DE0000E947E02FF91EF91BF91AF919F918F91F1
:100DF0007F916F915F914F913F912F910F900BBE1B
:100E00000F900FBE0F901F9018951F920F920FB664
:100E10000F9211240BB60F922F938F939F93EF9302
:100E2000FF93E0916D02F0916E028081E091730278
:100E3000F091740282FD1DC09081809176028F5FD7
:100E40008F7320917702821741F0E0917602F0E0F3
:100E5000E35AFD4F958F80937602FF91EF919F911A
:100E60008F912F910F900BBE0F900FBE0F901F9080
:100E700018958081F2CF1F920F920FB60F92112416
:100E80002F933F938F939F93AF93BF93809159027A
:100E900090915A02A0915B02B0915C023091520293
:100EA00023E0230F2D3758F50196A11DB11D209386
:100EB00052028093590290935A02A0935B02B0931E
:100EC0005C028091530290915402A0915502B0911E
:100ED00056020196A11DB11D8093530290935402B6
:100EE000A0935502B0935602BF91AF919F918F91FD
:100EF0003F912F910F900FBE0F901F90189526E8ED
:100F0000230F0296A11DB11DD2CF10926002109244
:100F10005F0288EE93E0A0E0B0E0809361029093DE
:100F20006202A0936302B093640282E292E0909323
:100F30005E0280935D0285EC90E090936A0280935C
:100F4000690284EC90E090936C0280936B0280ECD9
:100F500090E090936E0280936D0281EC90E090930C
:100F6000700280936F0282EC90E090937202809303
:100F7000710286EC90E09093740280937302109259
:100F800076021092770210927802109279021092F3
:100F9000260310922A031092290310922B0380E457
:100FA00092E09093250380932403E0E4F3E0108221
:100FB000148213821582369683E0EC37F807B9F76E
:100FC00084E092E0909387038093860380E092E030
:100FD000909389038093880384E080938A038093AD
:100FE0008B0388E092E090938503809384038AE0EA
:100FF00090E090938D0380938C0384EF91E0909325
:101000008F0380938E03109292031092910310929B
:101010008003109281031092820310928303109236
:10102000900310920F0310920E0384E392E09093CA
:101030000D0380930C038DE0809310038FEF80935A
:1010400011038CE08093120388E08093130389E0FE
:10105000809314038AE0809315038BE0809316033A
:1010600010921703109218031092190310921A038A
:1010700010921B0381E00E94100586E093E00E941D
:101080005E0680E093E00E945E068AEF92E00C9498
:101090005E06789484B5826084BD84B5816084BD29
:1010A00085B5826085BD85B5816085BD80916E0006
:1010B000816080936E001092810080918100826037
:1010C0008093810080918100816080938100809174
:1010D00080008160809380008091B1008460809363
:1010E000B1008091B00081608093B0008091910048
:1010F0008260809391008091910081608093910043
:10110000809190008160809390008091A100826026
:101110008093A1008091A10081608093A1008091C3
:10112000A00081608093A000809121018260809363
:101130002101809121018160809321018091200112
:1011400081608093200180917A00846080937A008E
:1011500080917A00826080937A0080917A00816029
:1011600080937A0080917A00806880937A00109250
:10117000C100E0916D02F0916E0282E08083E09107
:101180006902F0916A021082E0916B02F0916C02A8
:101190008FEC808310927502E0917102F0917202DF
:1011A00086E08083E0916F02F0917002808180611F
:1011B0008083E0916F02F09170028081886080836B
:1011C000E0916F02F0917002808180688083E091ED
:1011D0006F02F091700280818F7D808382E00E9497
:1011E00010054AE050E066E472E08CE093E00E9473
:1011F0000A020E9443044B015C0168EEC62E63E0C4
:10120000D62EE12CF12C0E944304681979098A0931
:101210009B09683E734081059105A8F321E0C21A3D
:10122000D108E108F10858EE850E53E0951EA11C87
:10123000B11CC114D104E104F10429F70E9408058E
:10124000E1E080911F038111E0E0E195F0E0E45FCF
:10125000FC4F848980680E940205812C912C5401E6
:10126000839440E6242E43E0342E66246A94762C40
:10127000F1E0F09390038FB7F894409159025091A8
:101280005A0260915B0270915C028FBF8091800373
:1012900090918103A0918203B0918303481B590B65
:1012A0006A0B7B0B80918C0390918D03B0E0A0E0E2
:1012B00084179507A607B70708F00EC1C0E0809114
:1012C0008A03C81760F4E0918603F0918703EC0F5E
:1012D000F11D62E080810E940304CF5FF0CF512CAA
:1012E00080918B03581608F05FC0052D10E0E09147
:1012F0008803F0918903E00FF11F61E080810E9473
:101300000304E0918803F0918903E00FF11F60E08E
:1013100080810E94D103D501C401052C04C0880F2F
:10132000991FAA1FBB1F0A94D2F76C017C01E0949D
:10133000F094412C80918A034816F8F4C42DD0E033
:10134000E0918603F0918703EC0FFD1F80810E94DE
:10135000A5032496CC0FDD1FCC5DDC4F892B41F417
:10136000888199818C299D29998388834394E2CF30
:10137000888199818E219F21F7CFE0918803F09198
:101380008903E00FF11F61E080810E94D103809109
:10139000880390918903080F191F60E0F80180818C
:1013A0000E94030453949CCF04E213E0E8018F8D64
:1013B00098A1892B21F41C8E7E8E6D8E19A2269603
:1013C0002C163D06A1F7F12C80918A03F81608F03F
:1013D00053C0E12CCF2CD12CCC0CDD1CC601845D7C
:1013E0009C4F6C0120918B03E21608F043C0F6017C
:1013F000608171810E2C02C0769567950A94E2F7A0
:10140000F29E900111242E0D311DE4E2F3E080E004
:10141000458D568D2417350709F4B3C08F5F369676
:101420008A30B1F760FF24C0E4E2F3E090E080E0AE
:10143000448D411118C0E0918403F0918503E20FBF
:10144000F31F408156E0589FF001599FF00D112481
:10145000EC5DFC4F448F368F258F10A2178E61E014
:101460000E949A0105C0019636968A30910501F7CF
:10147000E394B8CFF394A8CF80E0F80191A1911143
:10148000892F0A5F1F4F0C171D07B9F79FB7F894F4
:101490004091590250915A0260915B0270915C0236
:1014A0009FBF4093800350938103609382037093A6
:1014B0008303882389F080914503882369F0809114
:1014C000430390914403019739F4C0914003C11143
:1014D00006C00E940D03CCCE10929003FACF41E0DB
:1014E0006C2F8CE093E00E94AF04C334D1F486E00B
:1014F00093E00E94870680E093E00E9487061092A6
:1015000058020E940805E1E080911F038111E0E08C
:10151000E195F0E0E45FFC4F848980680E94020559
:10152000D8CF80915802811160C08C2F8D7F8D3271
:1015300021F086ED8C0F823030F5C0935702F1E038
:10154000F0935802C6CFE1E028C060E070E0CB0124
:1015500033C060E070E0CB0138C04D3271F04F32E3
:1015600009F0B7CFCE010E94450BCB0103C0CE01DD
:10157000860F971F0E940506ACCFCE01861B970BE6
:10158000F9CF61706DCF6C2F86E093E0CD3391F58C
:10159000E0911F03E230B8F6E150F0E0E45FFC4F69
:1015A000848980680E940205809106039091070358
:1015B000009759F20E94090BEB0180910003909172
:1015C0000103009731F20E94090B409157024B3200
:1015D00071F21CF64A3209F07CCFC69FC001C79F4A
:1015E000900DD69F900D1124C5CF6C2F80E093E015
:1015F000CD3371F20E94AA066CCF8AEF92E00E946E
:101600002E0680E093E00E942E0686E093E00C9484
:101610002E061F93FC0199278827BC01E89411919D
:101620001032E9F3193010F01E30C8F31B3251F0BC
:101630001D3249F4689406C00E94300B610F711D81
:10164000811D911D119110531A30B0F33EF4909505
:101650008095709561957F4F8F4F9F4F1F91089593
:10166000592F482F372F262F660F771F881F991F56
:10167000660F771F881F991F620F731F841F951FA6
:10168000660F771F881F991F089597FB072E16F482
:10169000009407D077FD09D00E94830B07FC05D08A
:1016A0003EF4909581959F4F0895709561957F4F79
:1016B0000895A1E21A2EAA1BBB1BFD010DC0AA1F93
:1016C000BB1FEE1FFF1FA217B307E407F50720F0AB
:1016D000A21BB30BE40BF50B661F771F881F991F26
:1016E0001A9469F760957095809590959B01AC016F
:1016F000BD01CF010895EE0FFF1F881F8BBF07901C
:10170000F691E02D1994AA1BBB1B51E107C0AA1F3B
:10171000BB1FA617B70710F0A61BB70B881F991F92
:101720005A95A9F780959095BC01CD0108950F9326
:101730001F93CF93DF938230910510F482E090E005
:10174000E0919503F091960330E020E0B0E0A0E056
:10175000309799F42115310509F44AC0281B390B3B
:1017600024303105D8F58A819B816115710589F195
:10177000FB0193838283FE0111C04081518102816C
:10178000138148175907E0F04817590799F4109743
:1017900061F012960C93129713961C933296CF0118
:1017A000DF91CF911F910F910895009395031093AE
:1017B0009603F4CF2115310551F04217530738F045
:1017C000A901DB019A01BD01DF01F801C1CFEF01E1
:1017D000F9CF9093960380939503CDCFFE01E20F4E
:1017E000F31F819391932250310939832883D7CFF6
:1017F0002091930330919403232B41F420911A02FA
:1018000030911B023093940320939303209118028C
:10181000309119022115310541F42DB73EB74091A1
:101820001C0250911D02241B350BE0919303F09193
:101830009403E217F307A0F42E1B3F0B2817390778
:1018400078F0AC014E5F5F4F2417350748F04E0F1C
:101850005F1F5093940340939303819391939FCF81
:10186000F0E0E0E09CCFCF93DF930097E9F0FC013C
:10187000329713821282A0919503B0919603ED01E5
:1018800030E020E01097A1F420813181820F931F76
:1018900020919303309194032817390709F061C010
:1018A000F0939403E0939303DF91CF910895EA01BD
:1018B000CE17DF07E8F54A815B819E01411551058E
:1018C000B1F7E901FB83EA8349915991C40FD51F10
:1018D000EC17FD0761F4808191810296840F951FBA
:1018E000E90199838883828193819B838A83F0E0D5
:1018F000E0E012968D919C9113970097B9F52D9188
:101900003C911197CD010296820F931F2091930372
:10191000309194032817390739F6309751F5109212
:10192000960310929503B0939403A0939303BCCFB6
:10193000D383C28340815181840F951FC817D90773
:1019400061F44E5F5F4F88819981480F591F518321
:1019500040838A819B81938382832115310509F01D
:10196000B0CFF0939603E09395039ECFFD01DC0189
:10197000C0CF13821282D7CF4F925F926F927F9225
:101980008F929F92AF92BF92CF92DF92EF92FF928F
:101990000F931F93CF93DF938C01009799F4CB01A2
:1019A000DF91CF911F910F91FF90EF90DF90CF903B
:1019B000BF90AF909F908F907F906F905F904F906F
:1019C0000C94970BFC01E60FF71F9C012250310984
:1019D000E217F30708F4AEC0D901CD91DC9111975D
:1019E000C617D70720F1C530D10578F0CE0104978E
:1019F0008617970750F0C61BD70B2297C193D19338
:101A00006D937C93CF010E94330CC801DF91CF917D
:101A10001F910F91FF90EF90DF90CF90BF90AF900C
:101A20009F908F907F906F905F904F9008955B0193
:101A3000AC1ABD0A4C018C0E9D1EA0919503B0916D
:101A40009603512C412CF12CE12C109731F580910B
:101A50009303909194038815990509F05CC046168C
:101A6000570608F058C0809118029091190200970B
:101A700041F48DB79EB740911C0250911D02841B0A
:101A8000950BE817F90708F055C0F0939403E0931D
:101A90009303F90171836083B8CF8D919C91119765
:101AA00012966C90129713967C901397A815B9050F
:101AB00059F56C0142E0C40ED11CCA14DB0420F1BC
:101AC000AC014A195B09DA011296159780F062821F
:101AD000738251834083D9016D937C93E114F104A7
:101AE00071F0D7011396FC93EE9312978ECF229646
:101AF0008C0F9D1FF90191838083F301EFCFF09349
:101B00009603E093950381CF4816590608F42C01FB
:101B10007D01D3019ACFCB010E94970B7C010097E6
:101B200049F0AE01B8010E949D0DC8010E94330C1E
:101B300087016BCF10E000E068CFFB01DC0102C041
:101B400001900D9241505040D8F70895FB01DC01FF
:101B500001900D920020E1F7089511E0C3E4D1E077
:101B600000E006C0802FFE010E947B0B2196011D24
:0E1B7000C434D10780E00807A9F7F894FFCF2E
:101B7E0017191B1D1F2123253738392F3435362AC7
:101B8E003132332D43303D2B00009703800000008F
:101B9E000000A0020A023702ED02680246025A0253
:101BAE0000000000B1050A0269046804000000008C
:101BBE003F04FF03CE0343616C63756C61746F72F7
:021BCE00000015
:00000001FF
