:100000000C9444010C9475010C9475010C947501C9
:100010000C9475010C9475010C9475010C94750188
:100020000C9475010C9475010C9475010C94750178
:100030000C9475010C9475010C9475010C94750168
:100040000C9475010C9475010C9475010C94750158
:100050000C9475010C9475010C9475010C941706A1
:100060000C9475010C94E1050C94B7050C94750182
:100070000C9475010C9475010C9475010C94750128
:100080000C9475010C9475010C9475010C94750118
:100090000C9475010C9475010C9475010C94750108
:1000A0000C9475010C9475010C9475010C947501F8
:1000B0000C9475010C9475010C9475010C947501E8
:1000C0000C9475010C9475010C9475010C947501D8
:1000D0000C9475010C9475010C9475010C947501C8
:1000E0000C9475010C9477030C945A020C949C03A5
:1000F0000C946A030C9437020C9468020C94460228
:100100000C94A0020C94060A0C940A020C94660348
:100110000C947B030C945C030C9471030C946E039D
:100120000C9493030C943F040C9485030C9481036A
:100130000C9462030C949D030C9443040C944404AB
:100140000C94A1030C9461060C94FF030C94890396
:100150000C94ED020C948F030C9489050C94CE033F
:100160000C94970300002100240027002A002D0092
:100170003000330001010000040107010A01000002
:100180002200250028002B002E003100340002013F
:100190000000050108010B010000200023002600DB
:1001A00029002C002F00320000010000030106018D
:1001B00009010505050507050808080802020202ED
:1001C0000A0A0808040404040101010101010101F3
:1001D0000303030303030303040707070C0C0C0CBE
:1001E0000C0C0C0C020202020606060606060606A7
:1001F0000B0B0B0B0B0B0B0B010210202008081034
:100200002040102040800201020108040201010286
:10021000040810204080804020100804020180045F
:1002200002018040201008040201080402010102BA
:1002300004081020408001020408102040800000C3
:100240000A0B02090C0D0E08070304010000000050
:10025000000000000000000000000000000000009E
:10026000000000000000000000001211100000005B
:10027000000000000000000000000000000000007E
:10028000000000006106060A11241FBECFEFD1E274
:10029000DEBFCDBF00E00CBF23E0ACE6B2E001C0A2
:1002A0001D92A53AB207E1F712E0A0E0B2E0E0E962
:1002B000F8E100E00BBF02C007900D92AC36B10729
:1002C000D9F711E0C3E4D1E000E006C021970109AD
:1002D000802FFE010E940F0AC234D10780E0080778
:1002E000A9F70E944F070C94360C0C94000096E07E
:1002F000899FD0011124AE5CBC4F90967C936E9385
:100300005F9791E091969C939197E0919F03F09174
:10031000A00390919E03992339F0309751F08111F9
:1003200008C080914E031994309719F05C968C9117
:10033000FACF0895CF92DF92EF92FF920F931F931F
:1003400096E0899FF0011124EE5CFC4F11A2278DED
:1003500030A12130310551F178F02230310509F416
:1003600051C02330310509F452C01F910F91FF9005
:10037000EF90DF90CF9008956623B9F361E070E0CD
:100380000E9477012FB7F8948091730290917402C4
:10039000A0917502B09176022FBF80938A0390934B
:1003A0008B03A0938C03B0938D03DFCF9FB7F8949A
:1003B000C0907302D0907402E0907502F0907602C3
:1003C0009FBF00918A0310918B0320918C03309181
:1003D0008D03C01AD10AE20AF30A00919C0310911E
:1003E0009D0330E020E00C151D052E053F0550F45F
:1003F00062E070E01F910F91FF90EF90DF90CF903F
:100400000C9477016111B1CF63E070E0F3CF70E03D
:1004100060E0F0CFAF92BF92CF92DF92EF92FF9267
:100420000F931F93CF93DF936C017B018B01040F1C
:10043000151FEB015E01AE18BF08C017D10759F0B8
:100440006991D601ED91FC910190F081E02DC601FA
:100450001995892B79F7C501DF91CF911F910F91E4
:10046000FF90EF90DF90CF90BF90AF900895FC0188
:10047000538D448D252F30E0842F90E0821B930B09
:10048000541710F0CF96089501970895FC01918DAF
:10049000828D981761F0A28DAE0FBF2FB11D5D96B2
:1004A0008C91928D9F5F9F73928F90E008958FEF54
:1004B0009FEF0895FC01918D828D981731F0828D08
:1004C000E80FF11D858D90E008958FEF9FEF08955F
:1004D000FC01918D228D892F90E0805C9F4F821BC3
:1004E00091098F739927089587E792E00E94680227
:1004F00021E0892B09F420E0822F0895FC01A48DCE
:10050000A80FB92FB11DA35ABF4F2C91848D90E035
:1005100001968F739927848FA689B7892C93A08918
:10052000B1898C91837080648C93938D848D9813A2
:1005300006C00288F389E02D80818F7D8083089535
:10054000EF92FF920F931F93CF93DF93EC0181E023
:10055000888F9B8D8C8D98131AC0E889F9898081CA
:1005600085FF15C09FB7F894EE89FF896083E889FD
:10057000F98980818370806480839FBF81E090E0EF
:10058000DF91CF911F910F91FF90EF900895F62E7C
:100590000B8D10E00F5F1F4F0F731127E02E8C8D16
:1005A0008E110CC00FB607FCFACFE889F98980815B
:1005B00085FFF5CFCE010E947E02F1CFEB8DEC0FCF
:1005C000FD2FF11DE35AFF4FF0829FB7F8940B8F78
:1005D000EA89FB8980818062CFCFCF93DF93EC01E2
:1005E000888D8823B9F0AA89BB89E889F9898C911B
:1005F00085FD03C0808186FD0DC00FB607FCF7CFD7
:100600008C9185FFF2CF808185FFEDCFCE010E94D6
:100610007E02E9CFDF91CF91089580E090E0892BB1
:1006200029F00E94740281110E94000080E090E095
:10063000892B49F080E090E0892B29F00E9400008E
:1006400081110E94000080E090E0892B49F080E059
:1006500090E0892B29F00E94000081110E94000087
:1006600080E090E0892B49F080E090E0892B29F030
:100670000E94000081110C94000008958150823185
:1006800008F05AC0E82FF0E08827E65BFC4F8F4F58
:100690000C940F0A6A036E035C03620366039C03F7
:1006A000710377037B038103850389038F0393031E
:1006B0009C0397039D03A103809180008F77809313
:1006C00080000895809180008F7DF9CF8091800017
:1006D000877FF5CF84B58F7784BD089584B58F7DEE
:1006E000FBCF8091B0008F778093B0000895809108
:1006F000B0008F7DF9CF809190008F77809390002C
:100700000895809190008F7DF9CF80919000877F30
:10071000F5CF8091A0008F778093A00008958091FD
:10072000A0008F7DF9CF8091A000877FF5CF8091C9
:1007300020018F77809320010895809120018F7D83
:10074000F9CF80912001877FF5CFCF93DF93282FBA
:1007500030E0F901E25CFD4F8491F901E850FE4F71
:10076000D491F901EE54FE4FC491CC23A1F0811134
:100770000E943E03EC2FF0E0EE0FFF1FE856FE4F05
:10078000A591B491EC91ED2381E090E009F480E033
:10079000DF91CF91089580E090E0FACF862F0C94FE
:1007A000A5031F93CF93DF93282F30E0F901E25C7C
:1007B000FD4F8491F901E850FE4FD491F901EE54B8
:1007C000FE4FC491CC23A9F0162F81110E943E0345
:1007D000EC2FF0E0EE0FFF1FE258FE4FA591B49111
:1007E0008FB7F894EC91111108C0D095DE23DC93FB
:1007F0008FBFDF91CF911F910895DE2BF8CF862F09
:10080000642F0C94D103CF93DF9390E0FC01E85068
:10081000FE4F24918E549E4FFC0184918823C9F091
:1008200090E0880F991FFC01EC59FE4FA591B491FF
:10083000FC01E258FE4FC591D49161110DC09FB7E4
:10084000F8948C91209582238C9388812823288387
:100850009FBFDF91CF910895623051F49FB7F89414
:100860003C91822F809583238C93E8812E2BEFCFB0
:100870008FB7F894EC912E2B2C938FBFEACF862F55
:10088000642F0C940304089590E080E00895CF93C2
:10089000DF93EC0160E08E810E94D10361E08E81E4
:1008A0000E94D10360E08E810E94D1038BE891E029
:1008B0000197F1F7DF91CF910895CF92DF92EF92F8
:1008C000FF920F931F93CF93DF936C017C0187E01E
:1008D000E80EF11CD0E0C0E0062F10E0B8010C2EAD
:1008E00002C0759567950A94E2F76170F7018191EE
:1008F0007F010E94D1032196C430D10579F7C6014A
:10090000DF91CF911F910F91FF90EF90DF90CF90EB
:100910000C944704CF92DF92EF92FF920F931F93B4
:10092000CF93DF93EC01F62E642F8C810E94D103CC
:100930008D818F3F19F060E00E94D1030F2D10E0F0
:100940008F8584FF25C06E0187E0C80ED11CF12C75
:10095000E12CB8010E2C02C0759567950A94E2F758
:100960006170F60181916F010E94D103FFEFEF1AD0
:10097000FF0A88E0E816F10461F7CE01DF91CF911C
:100980001F910F91FF90EF90DF90CF900C94470450
:10099000B80184E0759567958A95E1F7CE010E94CC
:1009A0005D046F2DCE01DF91CF911F910F91FF90CC
:1009B000EF90DF90CF900C945D0440E0682F8AE1C7
:1009C00093E00C948A04CF93DF93823029F49091C2
:1009D000290398609093290380932D0310922E038E
:1009E00080E480932F0380E18093300380E580933F
:1009F000310361E080911E030E94030480911F0374
:100A00008F3F19F061E00E94030461E080912003B0
:100A10000E940304CAE1D3E09E012A513340809131
:100A2000290384FD0BC084E090E021962817390744
:100A300044F461E08E810E940304EECF88E090E0F0
:100A4000F4CF8BE39DE00197F1F760E080911E0306
:100A50000E94D10360E0809120030E94D103809125
:100A60001F038F3F19F060E00E94D103809129039A
:100A700084FD39C063E08AE193E00E945D04CBE429
:100A8000D6E4CE010197F1F763E08AE193E00E949A
:100A90005D042197F1F763E08AE193E00E945D0431
:100AA00083E592E00197F1F762E08AE193E00E942A
:100AB0005D048091290380620E94DD0484E08093BC
:100AC0002A038CE00E94DD0481E00E94DD048BE3B8
:100AD0009FE10197F1F782E080932B0386E0DF919D
:100AE000CF910C94DD0480620E94DD048BE496E4D7
:100AF0000197F1F78091290380620E94DD0483E56C
:100B000092E00197F1F78091290380620E94DD0451
:100B1000D0CF41E00E948A0481E090E008950F93D5
:100B20001F93CF93DF93EC0188819981009759F04F
:100B30002A813B812617370730F081E0DF91CF9182
:100B40001F910F9108958B016F5F7F4F0E943C0BA7
:100B5000009759F0998388831B830A832C813D81F8
:100B6000232B59F7FC011082E8CF80E0E7CF1F92DA
:100B70000F920FB60F9211240BB60F922F933F9343
:100B80004F935F936F937F938F939F93AF93BF9395
:100B9000EF93FF9387E792E00E947E02FF91EF912F
:100BA000BF91AF919F918F917F916F915F914F9185
:100BB0003F912F910F900BBE0F900FBE0F901F9083
:100BC00018951F920F920FB60F9211240BB60F9229
:100BD0002F938F939F93EF93FF93E0918702F09170
:100BE00088028081E0918D02F0918E0282FD1DC00D
:100BF0009081809190028F5F8F7320919102821774
:100C000041F0E0919002F0E0E958FD4F958F80931C
:100C10009002FF91EF919F918F912F910F900BBEBA
:100C20000F900FBE0F901F9018958081F2CF1F92EA
:100C30000F920FB60F9211242F933F938F939F9390
:100C4000AF93BF938091730290917402A09175024B
:100C5000B09176023091700223E0230F2D3758F5C2
:100C60000196A11DB11D2093700280937302909391
:100C70007402A0937502B093760280916C029091F9
:100C80006D02A0916E02B0916F020196A11DB11D7F
:100C900080936C0290936D02A0936E02B0936F02EA
:100CA000BF91AF919F918F913F912F910F900FBE68
:100CB0000F901F90189526E8230F0296A11DB11DD5
:100CC000D2CF10927A021092790288EE93E0A0E0DF
:100CD000B0E080937B0290937C02A0937D02B0935E
:100CE0007E0282E292E0909378028093770285EC14
:100CF00090E0909384028093830284EC90E0909340
:100D000086028093850280EC90E090938802809325
:100D1000870281EC90E090938A028093890282ECB2
:100D200090E090938C0280938B0286EC90E09093FD
:100D30008E0280938D021092900210929102109276
:100D40009202109293021092340310923803109280
:100D500037031092390380E492E090933303809339
:100D60003203EEE4F3E01082148213821582369689
:100D700083E0EA38F807B9F784E092E090939503AE
:100D80008093940380E092E090939703809396037E
:100D900084E0809398038093990388E092E0909395
:100DA0009303809392038AE090E090939B03809357
:100DB0009A0384EF91E090939D0380939C0310929B
:100DC000A00310929F0310928E0310928F03109233
:100DD00090031092910310929E0310921D031092A3
:100DE0001C0384E392E090931B0380931A038DE02D
:100DF00080931E038FEF80931F038CE0809320036A
:100E000088E08093210389E0809322038AE0809325
:100E100023038BE080932403109225031092260372
:100E200010922703109228031092290381E00E9458
:100E3000E3041092150310921403109217031092FA
:100E40001603109219031092180361E070E084E118
:100E500093E00E948F0520911403309115038111B6
:100E600013C02115310519F0C9010E94B30A10926F
:100E70001503109214031092190310921803109284
:100E8000170310921603089581E090E090931903E0
:100E90008093180366E472E0C9010C942F0CCF9381
:100EA000DF9300D000D01F921F92CDB7DEB77894A9
:100EB00084B5826084BD84B5816084BD85B582605F
:100EC00085BD85B5816085BD80916E008160809310
:100ED0006E00109281008091810082608093810079
:100EE0008091810081608093810080918000816089
:100EF000809380008091B10084608093B1008091E4
:100F0000B00081608093B0008091910082608093F6
:100F10009100809191008160809391008091900078
:100F20008160809390008091A10082608093A100F5
:100F30008091A10081608093A1008091A0008160D8
:100F40008093A00080912101826080932101809193
:100F50002101816080932101809120018160809333
:100F6000200180917A00846080937A0080917A00D9
:100F7000826080937A0080917A00816080937A0009
:100F800080917A00806880937A001092C100E0918D
:100F90008702F091880282E08083E0918302F091E1
:100FA00084021082E0918502F09186028FEC8083AA
:100FB00010928F02E0918B02F0918C0286E0808388
:100FC000E0918902F0918A02808180618083E091C2
:100FD0008902F0918A02808188608083E091890291
:100FE000F0918A02808180688083E0918902F0918B
:100FF0008A0280818F7D808382E00E94E30481E009
:101000000E94DD048BE39FE10197F1F7412C512C05
:1010100032014394AA24AA94BA2CE1E080912D03D2
:101020008111E0E0E195F0E0E65EFC4F848990916B
:101030007102890F80680E94DD041A8219821C8265
:101040001B821E821D8270E060E0CE0101960E942C
:101050008F0529813A81811143C02115310519F08D
:10106000C9010E94B30A1A8219821E821D821C8243
:101070001B8251E050939E038FB7F8944091730206
:101080005091740260917502709176028FBF8091C9
:101090008E0390918F03A0919003B0919103481B10
:1010A000590B6A0B7B0B80919A0390919B03B0E0E4
:1010B000A0E084179507A607B70708F023C110E042
:1010C000809198031817A0F4E0919403F091950390
:1010D000E10FF11D62E080810E9403041F5FF0CFE9
:1010E0001E821D826AE472E0C9010E942F0CC1CFEA
:1010F000312C80919903381608F061C0E32CF12C53
:10110000E0919603F0919703EE0DFF1D61E0808161
:101110000E940304E0919603F0919703EE0DFF1DEA
:1011200060E080810E94D103D301C201032C04C07E
:10113000880F991FAA1FBB1F0A94D2F74C016C019C
:10114000C094D094212C80919803281608F5022D84
:1011500010E0E0919403F0919503E00FF11F80817E
:101160000E94A5030C5F1F4F000F111FF801EE5CDA
:10117000FC4F892B41F480819181882999299183A1
:1011800080832394E0CF808191818C219D21F7CFB2
:10119000E0919603F0919703EE0DFF1D61E08081D1
:1011A0000E94D1038091960390919703E80EF91E57
:1011B00060E0F70180810E94030433949ACF02E338
:1011C00013E07801F701878D90A1892B21F4148E0B
:1011D000B68EA58E11A2F6E0EF0EF11C8EE693E01E
:1011E0008E159F0579F7912C80919803981608F039
:1011F00053C0812CC92CD12CCC0CDD1CF601E65C33
:10120000FC4F6F0120919903821608F043C0F6014C
:1012100060817181082C02C0769567950A94E2F787
:10122000929E90011124280D311DE2E3F3E080E04D
:10123000458D568D2417350709F4D0C08F5F36963B
:101240008A30B1F760FF24C0E2E3F3E090E080E091
:10125000448D411118C0E0919203F0919303E20F85
:10126000F31F408156E0589FF001599FF00D112463
:10127000EE5CFC4F448F368F258F10A2178E61E0F5
:101280000E949A0105C0019636968A30910501F7B1
:101290008394B8CF9394A8CF80E0F80191A19111E5
:1012A000892F0A5F1F4FE016F106B9F79FB7F89430
:1012B00040917302509174026091750270917602B0
:1012C0009FBF40938E0350938F036093900370935E
:1012D00091038823B9F080915303882399F080917A
:1012E000510390915203019769F410914E0311112B
:1012F0000CC089819A81009711F00E94B30A0E9464
:101300000D038BCE10929E03F4CF612F87E792E0FE
:101310000E94A00242E050E068E472E087E792E0B9
:101320000E940A0241E0612F8AE193E00E948A0450
:101330001A3221F11F8318860D811E810F5F1F4F06
:10134000B801CE0101960E948F05882369F029819A
:101350003A818D819E81BE01695F7F4F820F931F0D
:101360000E942F0C1E830D83809171029091720256
:1013700001969093720280937102BBCFE0912D038E
:10138000E23010F5E150F0E0E65EFC4F84898068C1
:101390000E94DD042D813E818091180390911903F4
:1013A00028173907B1F489819A81609114037091EB
:1013B00015030097A9F06115710541F4232BE9F09D
:1013C000FC01808190E017C0E1E0DDCF0E94260C97
:1013D00012C04EE050E06CE572E013C0617050CF77
:1013E0006115710551F0232B41F0FB01808190E0E4
:1013F000919581959109892B61F740E150E06BE46B
:1014000072E08AE193E00E940A0273CF8091140394
:1014100090911503009711F00C94B30A0895EE0F04
:10142000FF1F881F8BBF0790F691E02D19940F9333
:101430001F93CF93DF938230910510F482E090E008
:10144000E091A303F091A40330E020E0B0E0A0E03D
:10145000309799F42115310509F44AC0281B390B3E
:1014600024303105D8F58A819B816115710589F198
:10147000FB0193838283FE0111C04081518102816F
:10148000138148175907E0F04817590799F4109746
:1014900061F012960C93129713961C933296CF011B
:1014A000DF91CF911F910F9108950093A3031093A3
:1014B000A403F4CF2115310551F04217530738F03A
:1014C000A901DB019A01BD01DF01F801C1CFEF01E4
:1014D000F9CF9093A4038093A303CDCFFE01E20F35
:1014E000F31F819391932250310939832883D7CFF9
:1014F0002091A1033091A203232B41F420911A02E1
:1015000030911B023093A2032093A1032091180273
:10151000309119022115310541F42DB73EB74091A4
:101520001C0250911D02241B350BE091A103F09188
:10153000A203E217F307A0F42E1B3F0B281739076D
:1015400078F0AC014E5F5F4F2417350748F04E0F1F
:101550005F1F5093A2034093A103819391939FCF68
:10156000F0E0E0E09CCFCF93DF930097E9F0FC013F
:10157000329713821282A091A303B091A403ED01CC
:1015800030E020E01097A1F420813181820F931F79
:101590002091A1033091A2032817390709F061C0F7
:1015A000F093A203E093A103DF91CF910895EA01A4
:1015B000CE17DF07E8F54A815B819E014115510591
:1015C000B1F7E901FB83EA8349915991C40FD51F13
:1015D000EC17FD0761F4808191810296840F951FBD
:1015E000E90199838883828193819B838A83F0E0D8
:1015F000E0E012968D919C9113970097B9F52D918B
:101600003C911197CD010296820F931F2091A10367
:101610003091A2032817390739F6309751F5109207
:10162000A4031092A303B093A203A093A103BCCF81
:10163000D383C28340815181840F951FC817D90776
:1016400061F44E5F5F4F88819981480F591F518324
:1016500040838A819B81938382832115310509F020
:10166000B0CFF093A403E093A3039ECFFD01DC0170
:10167000C0CF13821282D7CF4F925F926F927F9228
:101680008F929F92AF92BF92CF92DF92EF92FF9292
:101690000F931F93CF93DF938C01009799F4CB01A5
:1016A000DF91CF911F910F91FF90EF90DF90CF903E
:1016B000BF90AF909F908F907F906F905F904F9072
:1016C0000C94170AFC01E60FF71F9C012250310908
:1016D000E217F30708F4AEC0D901CD91DC91119760
:1016E000C617D70720F1C530D10578F0CE01049791
:1016F0008617970750F0C61BD70B2297C193D1933B
:101700006D937C93CF010E94B30AC801DF91CF9102
:101710001F910F91FF90EF90DF90CF90BF90AF900F
:101720009F908F907F906F905F904F9008955B0196
:10173000AC1ABD0A4C018C0E9D1EA091A303B09162
:10174000A403512C412CF12CE12C109731F5809100
:10175000A1039091A2038815990509F05CC0461673
:10176000570608F058C0809118029091190200970E
:1017700041F48DB79EB740911C0250911D02841B0D
:10178000950BE817F90708F055C0F093A203E09312
:10179000A103F90171836083B8CF8D919C9111975A
:1017A00012966C90129713967C901397A815B90512
:1017B00059F56C0142E0C40ED11CCA14DB0420F1BF
:1017C000AC014A195B09DA011296159780F0628222
:1017D000738251834083D9016D937C93E114F104AA
:1017E00071F0D7011396FC93EE9312978ECF229649
:1017F0008C0F9D1FF90191838083F301EFCFF0934C
:10180000A403E093A30381CF4816590608F42C01E2
:101810007D01D3019ACFCB010E94170A7C0100976A
:1018200049F0AE01B8010E941D0CC8010E94B30A24
:1018300087016BCF10E000E068CFFB01DC0102C044
:1018400001900D9241505040D8F70895FB01DC0102
:101850008D91019080190110D9F3990B0895FB0126
:10186000DC0101900D920020E1F7089511E0C3E43E
:10187000D1E000E006C0802FFE010E940F0A2196F1
:10188000011DC434D10780E00807A9F7F894FFCF01
:1018900017191B1D1F2123253738392F3435362AB8
:1018A0003132332D44303D2B0000A5038000000071
:1018B0000000A0020A023702ED02680246025A0244
:1018C0000000000089050A024404430400000000EF
:1018D0003F04FF03CE0339000D0A00436F727265A7
:1018E00063742070617373776F72640057726F6EE8
:0C18F000672070617373776F72640000F2
:00000001FF
