:100000000C941F010C9412040C94E7030C94BC0391
:100010000C9491030C9466030C943B030C94100312
:100020000C94E5020C9440010C9440010C944001A6
:100030000C9440010C9440010C9440010C9440013C
:100040000C9440010C9440010C9440010C9440012C
:100050000C9440010C9440010C9440010C949B02C0
:100060000C9440010C9440010C9440010C9440010C
:100070000C9440010C9440010C9440010C944001FC
:100080000C9440010C9440010C9440010C944001EC
:100090000C9440010C9440010C9440010C944001DC
:1000A0000C9440010C9440010C9440010C944001CC
:1000B0000C9440010C9440010C9440010C944001BC
:1000C0000C9440010C9440010C9440010C944001AC
:1000D0000C9440010C9440010C9440010C9440019C
:1000E0000C9440010C94AC010C9466020C948D01AC
:1000F0000C949E010C94B6010C9477010C94C801E9
:100100000C94C4010C9472010C94CE010C94A201C5
:100110000C9489010C94BE010C94BA010C949A02BF
:100120000C94B0010C9495010C9472020C94910102
:100130000C9498010C94A8010000210024002700D1
:100140002A002D00300033000101000004010701E6
:100150000A0100002200250028002B002E0031009B
:10016000340002010000050108010B010505050529
:10017000070508080808020202020A0A080804041F
:10018000040401010101010101010303030303034D
:100190000303040707070C0C0C0C0C0C0C0C0202DC
:1001A000020206060606060606060B0B0B0B0B0BD9
:1001B0000B0B010210202008081020401020408066
:1001C000020102010804020101020408102040801B
:1001D00080402010080402018004020180402010A9
:1001E00008040201080402010102040810204080F2
:1001F000010204081020408000000A0B02090C0DC7
:100200000E080703040100000000000000000000C9
:1002100000000000000000000000000000000000DE
:10022000000000001211100000000000000000009B
:100230000000000000000000000000000000112489
:100240001FBECFEFD1E2DEBFCDBF00E00CBF12E09A
:10025000A0E0B2E0E2E1FAE000E00BBF02C00790EC
:100260000D92A031B107D9F722E0A0E1B2E001C0C0
:100270001D92A931B207E1F70E943D040C940705D5
:100280000C940000282F30E0F901E850FE4F9491C3
:10029000F901EE54FE4F449124593E4FF901249147
:1002A000222309F435C0992311F191509231F8F4C9
:1002B000E92FF0E08827E05AFE4F8F4F0C94FF049F
:1002C00091019501720189018D01770198019E01CB
:1002D000A201A801AC01B001B601BA017701BE01CB
:1002E000C401C801809180008F7780938000E22F45
:1002F000F0E0EE0FFF1FEE5AFE4FA591B4918FB7BD
:10030000F894EC91611148C040954E234C938FBFF7
:100310000895809180008F7DE8CF80918000877F55
:10032000E4CF84B58F7784BDE2CF84B58F7DFBCFDA
:100330008091B0008F778093B000D9CF8091B000CA
:100340008F7DF9CF809190008F7780939000CFCFF1
:10035000809190008F7DF9CF80919000877FF5CFBD
:100360008091A0008F778093A000C1CF8091A000E2
:100370008F7DF9CF8091A000877FF5CF80912001FC
:100380008F7780932001B3CF809120018F7DF9CFAB
:1003900080912001877FF5CF4E2BB8CFCF93C1E05E
:1003A00060E08C2F0E944201CF5FC730C9F7CF9128
:1003B0000895CF93DF9390E0FC01EE54FE4F24911B
:1003C00084599E4FFC0184918823D1F090E0880FDE
:1003D000991FFC01E85CFE4FA591B491FC01EE5A17
:1003E000FE4FC591D49161110EC09FB7F8948C91C6
:1003F000E22FE0958E238C932881E223E8839FBF30
:10040000DF91CF9108958FB7F894EC91E22BEC93A4
:100410008FBFF6CF3FB7F8948091150290911602E6
:10042000A0911702B091180226B5A89B05C02F3FD6
:1004300019F00196A11DB11D3FBFBA2FA92F982F0A
:100440008827BC01CD01620F711D811D911D42E005
:10045000660F771F881F991F4A95D1F708958F92CD
:100460009F92AF92BF92CF92DF92EF92FF920E9443
:100470000A024B015C0180E9C82E8FE5D82EEE24DC
:10048000E394F12C0E940A02681979098A099B09F0
:10049000683E734081059105A8F321E0C21AD10896
:1004A000E108F10888EE880E83E0981EA11CB11CBB
:1004B000C114D104E104F10429F7FF90EF90DF901B
:1004C000CF90BF90AF909F908F900895CF93C6E04C
:1004D00061E08C2F0E9442010E942F02C150C1F79F
:1004E000CF9108950F931F93CF9303E010E0C6E0E0
:1004F00061E08C2F0E944201C150C130C9F70E94B7
:100500002F02C6E060E08C2F0E944201C150C13032
:10051000C9F70E942F02C6E061E08C2F0E944201C1
:10052000C150C130C9F70150110909F7CF911F918E
:100530000F91089508951F920F920FB60F921124F4
:100540002F933F938F939F93AF93BF93809111020B
:1005500090911202A0911302B091140230911002F6
:1005600023E0230F2D3758F50196A11DB11D2093CF
:1005700010028093110290931202A0931302B09381
:1005800014028091150290911602A0911702B09169
:1005900018020196A11DB11D8093150290931602B9
:1005A000A0931702B0931802BF91AF919F918F91C2
:1005B0003F912F910F900FBE0F901F90189526E836
:1005C000230F0296A11DB11DD2CF1F920F920FB61D
:1005D0000F9211240BB60F922F933F934F935F937B
:1005E0006F937F938F939F93AF93BF93EF93FF93FB
:1005F000E0910E02F0910F021995FF91EF91BF91DA
:10060000AF919F918F917F916F915F914F913F91AA
:100610002F910F900BBE0F900FBE0F901F9018954B
:100620001F920F920FB60F9211240BB60F922F93B9
:100630003F934F935F936F937F938F939F93AF936A
:10064000BF93EF93FF93E0910C02F0910D02199587
:10065000FF91EF91BF91AF919F918F917F916F919A
:100660005F914F913F912F910F900BBE0F900FBE56
:100670000F901F9018951F920F920FB60F92112492
:100680000BB60F922F933F934F935F936F937F938C
:100690008F939F93AF93BF93EF93FF93E0910202E9
:1006A000F09103021995FF91EF91BF91AF919F9146
:1006B0008F917F916F915F914F913F912F910F900B
:1006C0000BBE0F900FBE0F901F9018951F920F92A8
:1006D0000FB60F9211240BB60F922F933F934F93A7
:1006E0005F936F937F938F939F93AF93BF93EF939A
:1006F000FF93E0910002F09101021995FF91EF91B3
:10070000BF91AF919F918F917F916F915F914F9129
:100710003F912F910F900BBE0F900FBE0F901F9027
:1007200018951F920F920FB60F9211240BB60F92CD
:100730002F933F934F935F936F937F938F939F93E9
:10074000AF93BF93EF93FF93E0910A02F0910B02F6
:100750001995FF91EF91BF91AF919F918F917F91EB
:100760006F915F914F913F912F910F900BBE0F9022
:100770000FBE0F901F9018951F920F920FB60F92F9
:1007800011240BB60F922F933F934F935F936F9368
:100790007F938F939F93AF93BF93EF93FF93E091DA
:1007A0000802F09109021995FF91EF91BF91AF9165
:1007B0009F918F917F916F915F914F913F912F9179
:1007C0000F900BBE0F900FBE0F901F9018951F92A9
:1007D0000F920FB60F9211240BB60F922F933F93E7
:1007E0004F935F936F937F938F939F93AF93BF9339
:1007F000EF93FF93E0910602F09107021995FF91A4
:10080000EF91BF91AF919F918F917F916F915F9188
:100810004F913F912F910F900BBE0F900FBE0F90F5
:100820001F9018951F920F920FB60F9211240BB6BE
:100830000F922F933F934F935F936F937F938F9379
:100840009F93AF93BF93EF93FF93E0910402F091D6
:1008500005021995FF91EF91BF91AF919F918F91F3
:100860007F916F915F914F913F912F910F900BBEB0
:100870000F900FBE0F901F901895789484B58260EA
:1008800084BD84B5816084BD85B5826085BD85B534
:10089000816085BD80916E00816080936E001092B2
:1008A000810080918100826080938100809181002D
:1008B00081608093810080918000816080938000BE
:1008C0008091B10084608093B1008091B00081601C
:1008D0008093B0008091910082608093910080911C
:1008E000910081608093910080919000816080935D
:1008F00090008091A10082608093A1008091A1006E
:1009000081608093A1008091A00081608093A0000D
:100910008091210182608093210180912101816079
:10092000809321018091200181608093200180913A
:100930007A00846080937A0080917A00826080934C
:100940007A0080917A00816080937A0080917A00A9
:10095000806880937A001092C10061E081E00E947B
:10096000D90161E082E00E94D90161E083E00E9448
:10097000D90161E084E00E94D90161E085E00E9434
:10098000D90161E086E00E94D90160E082E10E9425
:10099000D90160E083E10E94D90160E084E10E9416
:1009A000D90186E692E090930B0280930A0280912F
:1009B00069008F73806480936900EB9A82E792E00C
:1009C0009093090280930802809169008F7C806275
:1009D00080936900EA9A8EEC91E0909307028093ED
:1009E000060280916900837F846080936900E99AA0
:1009F000C0E0D0E02097F1F30E940000FBCFEE0FA3
:100A0000FF1F881F8BBF0790F691E02D1994F89473
:020A1000FFCF16
:100A12009A029A029A029A029A029A029A029A02F4
:00000001FF
