:100000000C9428010C9459010C9459010C94590139
:100010000C9459010C9459010C9459010C945901F8
:100020000C9459010C9459010C9459010C945901E8
:100030000C9459010C9459010C9459010C945901D8
:100040000C9459010C9459010C9459010C945901C8
:100050000C9459010C9459010C9459010C946C04A2
:100060000C9459010C9436040C940C040C94590112
:100070000C9459010C9459010C9459010C94590198
:100080000C9459010C9459010C9459010C94590188
:100090000C9459010C9459010C9459010C94590178
:1000A0000C9459010C9459010C9459010C94590168
:1000B0000C9459010C9459010C9459010C94590158
:1000C0000C9459010C9459010C9459010C94590148
:1000D0000C9459010C9459010C9459010C94590138
:1000E0000C9459010C94EF020C9411030C94E5024A
:1000F0000C943E020C940B030C94D6020C94DE027A
:100100000C94E2020C94DA020C94AB010C94BF0242
:100110000C94FD020C9488010C9433060C94F101AC
:100120000C94F9020C9407030C94C4020C94F5028D
:100130000C9497010C9403030C94EB020C945B0158
:100140000C94B9010C94150300002200250028002E
:100150002B002E00310034000201000005010801CF
:100160000B0100000A0B02090C0D0E080703040125
:10017000000000000000000000000000000000007F
:10018000000000000000000000000000000012114C
:10019000100000000000000000000000000000004F
:1001A00000000000000000000000210024002700E3
:1001B0002A002D0030003300010100000401070176
:1001C0000A01010210202008081020401020408061
:1001D000020102010804020101020408102040800B
:1001E0008040201008040201800402018040201099
:1001F00008040201080402010102040810204080E2
:1002000001020408102040800505050507050808BF
:100210000808020202020A0A080804040404010190
:1002200001010101010103030303030303030407A5
:1002300007070C0C0C0C0C0C0C0C0202020206063C
:100240000606060606060B0B0B0B0B0B0B0B3306F9
:1002500011241FBECFEFD1E2DEBFCDBF00E00CBF47
:1002600012E0A0E0B2E0E2E8FDE000E00BBF02C077
:1002700007900D92AE32B107D9F722E0AEE2B2E0BC
:1002800001C01D92A63DB207E1F711E0C8E2D1E03E
:1002900000E006C021970109802FFE010E94B006F0
:1002A000C732D10780E00807A9F70E94B6040C9472
:1002B000BF060C940000AF92BF92CF92DF92EF92F4
:1002C000FF920F931F93CF93DF936C017B018B0100
:1002D000040F151FEB015E01AE18BF08C017D10750
:1002E00059F06991D601ED91FC910190F081E02DDA
:1002F000C6011995892B79F7C501DF91CF911F911F
:100300000F91FF90EF90DF90CF90BF90AF90089546
:10031000FC01538D448D252F30E0842F90E0821B0B
:10032000930B541710F0CF96089501970895FC0190
:10033000918D828D981761F0A28DAE0FBF2FB11DE8
:100340005D968C91928D9F5F9F73928F90E0089540
:100350008FEF9FEF0895FC01918D828D981731F0FA
:10036000828DE80FF11D858D90E008958FEF9FEF4E
:100370000895FC01918D228D892F90E0805C9F4F24
:10038000821B91098F739927089589E392E00E9457
:10039000B90121E0892B09F420E0822F0895FC01A6
:1003A000A48DA80FB92FB11DA35ABF4F2C91848DD6
:1003B00090E001968F739927848FA689B7892C9333
:1003C000A089B1898C91837080648C93938D848D86
:1003D000981306C00288F389E02D80818F7D808389
:1003E0000895EF92FF920F931F93CF93DF93EC0149
:1003F00081E0888F9B8D8C8D98131AC0E889F989CC
:10040000808185FF15C09FB7F894EE89FF896083CE
:10041000E889F98980818370806480839FBF81E04F
:1004200090E0DF91CF911F910F91FF90EF90089591
:10043000F62E0B8D10E00F5F1F4F0F731127E02E6C
:100440008C8D8E110CC00FB607FCFACFE889F989A4
:10045000808185FFF5CFCE010E94CF01F1CFEB8DDA
:10046000EC0FFD2FF11DE35AFF4FF0829FB7F89478
:100470000B8FEA89FB8980818062CFCFCF93DF9396
:10048000EC01888D8823B9F0AA89BB89E889F989AC
:100490008C9185FD03C0808186FD0DC00FB607FCE1
:1004A000F7CF8C9185FFF2CF808185FFEDCFCE0114
:1004B0000E94CF01E9CFDF91CF91089580E090E0D5
:1004C000892B29F00E94C50181110E94000080E063
:1004D00090E0892B49F080E090E0892B29F00E9480
:1004E000000081110E94000080E090E0892B49F01B
:1004F00080E090E0892B29F00E94000081110E9489
:10050000000080E090E0892B49F080E090E0892BAA
:1005100029F00E94000081110C9400000895282FFA
:1005200030E0F901EE59FE4F9491F901EE53FE4F80
:100530004491285F3D4FF9012491222309F435C0ED
:10054000992311F191509231F8F4E92FF0E08827C6
:10055000E355FD4F8F4F0C94B006DE02E202BF025E
:10056000D602DA02C402E502EB02EF02F502F9025A
:10057000FD0203030703C4020B031103150380915B
:1005800080008F7780938000E22FF0E0EE0FFF1F56
:10059000E85BFE4FA591B4918FB7F894EC9161118F
:1005A00048C040954E234C938FBF089580918000A2
:1005B0008F7DE8CF80918000877FE4CF84B58F77EF
:1005C00084BDE2CF84B58F7DFBCF8091B0008F7763
:1005D0008093B000D9CF8091B0008F7DF9CF80910A
:1005E00090008F7780939000CFCF809190008F7D87
:1005F000F9CF80919000877FF5CF8091A0008F7711
:100600008093A000C1CF8091A0008F7DF9CF809111
:10061000A000877FF5CF809120018F778093200104
:10062000B3CF809120018F7DF9CF80912001877F0A
:10063000F5CF4E2BB8CFCF93DF9390E0FC01EE5374
:10064000FE4F2491885F9D4FFC0184918823D1F057
:1006500090E0880F991FFC01E855FE4FA591B491D9
:10066000FC01E85BFE4FC591D49161110EC09FB7AC
:10067000F8948C91E22FE0958E238C932881E223CD
:10068000E8839FBFDF91CF9108958FB7F894EC91E5
:10069000E22BEC938FBFF6CF90917B009860909304
:1006A0007B0086538770806480937C0080917A0001
:1006B000806480937A0080917A0086FDFCCF8091DF
:1006C00078009091790008953FB7F89480913302B3
:1006D00090913402A0913502B091360226B5A89BC4
:1006E00005C02F3F19F00196A11DB11D3FBFBA2FC4
:1006F000A92F982F8827BC01CD01620F711D811D84
:10070000911D42E0660F771F881F991F4A95D1F708
:1007100008958F929F92AF92BF92CF92DF92EF9205
:10072000FF924B015C010E9464036B017C010E94FB
:1007300064036C197D098E099F09683E7340810529
:100740009105A8F321E0821A9108A108B10888EE6A
:10075000C80E83E0D81EE11CF11C81149104A10491
:10076000B10429F7FF90EF90DF90CF90BF90AF904A
:100770009F908F900895FC0101900020E9F7319738
:10078000AF01481B590BBC0189E392E00C945B015B
:100790008F929F92AF92BF920F931F93CF93DF934D
:1007A000CDB7DEB7A1970FB6F894DEBF0FBECDBFB1
:1007B00019A2423008F44AE08E010F5D1F4F842ECB
:1007C000912CB12CA12CA50194010E947F06E62F4B
:1007D000B901CA01EA30F4F4E05DD801EE938D016D
:1007E000232B242B252B79F790E080E0109719F02C
:1007F000CD010E94BB03A1960FB6F894DEBF0FBED9
:10080000CDBFDF91CF911F910F91BF90AF909F907F
:100810008F900895E95CE1CF1F920F920FB60F926F
:1008200011240BB60F922F933F934F935F936F93C7
:100830007F938F939F93AF93BF93EF93FF9389E33E
:1008400092E00E94CF01FF91EF91BF91AF919F91F4
:100850008F917F916F915F914F913F912F910F9069
:100860000BBE0F900FBE0F901F9018951F920F9206
:100870000FB60F9211240BB60F922F938F939F9365
:10088000EF93FF93E0914902F0914A028081E09159
:100890004F02F091500282FD1DC090818091520262
:1008A0008F5F8F7320915302821741F0E0915202C3
:1008B000F0E0E75CFD4F958F80935202FF91EF913E
:1008C0009F918F912F910F900BBE0F900FBE0F90A5
:1008D0001F9018958081F2CF1F920F920FB60F9242
:1008E00011242F933F938F939F93AF93BF93809146
:1008F0002F0290913002A0913102B09132023091DA
:100900002E0223E0230F2D3758F50196A11DB11DAE
:1009100020932E0280932F0290933002A0933102F5
:10092000B09332028091330290913402A09135024B
:10093000B09136020196A11DB11D809333029093B0
:100940003402A0933502B0933602BF91AF919F91CC
:100950008F913F912F910F900FBE0F901F90189580
:1009600026E8230F0296A11DB11DD2CF789484B53D
:10097000826084BD84B5816084BD85B5826085BD9B
:1009800085B5816085BD80916E00816080936E0029
:10099000109281008091810082608093810080911B
:1009A00081008160809381008091800081608093CC
:1009B00080008091B10084608093B1008091B0008C
:1009C00081608093B000809191008260809391005B
:1009D000809191008160809391008091900081606E
:1009E000809390008091A10082608093A10080910B
:1009F000A10081608093A1008091A000816080931C
:100A0000A0008091210182608093210180912101C9
:100A10008160809321018091200181608093200179
:100A200080917A00846080937A0080917A0082605D
:100A300080937A0080917A00816080937A0080911F
:100A40007A00806880937A001092C100E091490298
:100A5000F0914A0282E08083E0914502F0914602E3
:100A60001082E0914702F09148028FEC808310924F
:100A70005102E0914D02F0914E0286E08083E091B8
:100A80004B02F0914C02808180618083E0914B02A7
:100A9000F0914C02808188608083E0914B02F0915C
:100AA0004C02808180688083E0914B02F0914C027F
:100AB00080818F7D808382E192E00E94BB038AE186
:100AC00092E00E94BB0361E08CE20E941B0361E0A4
:100AD0008CE20E948F0261E08DE20E941B0361E0C4
:100AE0008DE20E948F0260E08EE30E941B0360E0B3
:100AF0008FE30E941B03FFB6F894809137028111A7
:100B000027C0EDE3F2E08491E7EFF1E09491E82F64
:100B1000F0E0EE0FFF1FE855FE4FA591B491EC9168
:100B2000E92321F461E085E30E948F0261E085E31F
:100B30000E941B038CB580618CBD8CB580648CBD1C
:100B400061E084E30E941B0361E083E30E941B03D6
:100B5000809137028F5F80933702FFBECC24CA9406
:100B600083E0D82EE12CF12C92E3892E99249394E2
:100B7000A12CB12C68EE73E080E090E00E94890324
:100B80008FE30E944C0324E630E0DC010E94B806AB
:100B9000A70196010E946006C22F2093380260E0F0
:100BA0008CE20E948F02CEBD00000DB407FEFDCF87
:100BB0008EB58DE192E00E94BB036091380270E037
:100BC00090E080E04AE00E94C80385E292E00E9443
:100BD000BB038AE192E00E94BB0365E070E080E025
:100BE00090E00E94890361E08CE20E948F0268EE2F
:100BF00073E080E090E00E9489038EE30E944C0342
:100C000026E930E0DC010E94B806A50194010E94AB
:100C10006006C22F2093380260E08DE20E948F02AE
:100C2000CEBD00000DB407FEFDCF8EB587E292E089
:100C30000E94BB036091380270E090E080E04AE0DF
:100C40000E94C80365E070E080E090E00E948903A4
:100C500061E08DE20E948F028AE192E00E94BB0374
:100C60000E945E0287CFE9E3F2E01382128288EEEF
:100C700093E0A0E0B0E084839583A683B78384E00B
:100C800092E09183808385EC90E09587848784EC63
:100C900090E09787868780EC90E0918B808B81EC49
:100CA00090E0938B828B82EC90E0958B848B86EC2A
:100CB00090E0978B868B118E128E138E148E089572
:100CC000052E97FB1EF400940E94770657FD07D06F
:100CD0000E947F0607FC03D04EF40C9477065095D3
:100CE0004095309521953F4F4F4F5F4F0895909518
:100CF0008095709561957F4F8F4F9F4F0895A1E22A
:100D00001A2EAA1BBB1BFD010DC0AA1FBB1FEE1F85
:100D1000FF1FA217B307E407F50720F0A21BB30BD0
:100D2000E40BF50B661F771F881F991F1A9469F74C
:100D300060957095809590959B01AC01BD01CF01A8
:100D40000895A29FB001B39FC001A39F700D811DA4
:100D50001124911DB29F700D811D1124911D0895C4
:100D6000EE0FFF1F881F8BBF0790F691E02D19949F
:100D70000E94A106B7FF0895821B930B0895F89473
:020D8000FFCFA3
:100D820000000000F1015B0188013E02B9019701F8
:100D9200AB014D61737465723A000D0A006C6967AC
:0E0DA20068743A2000250074656D703A2000D8
:00000001FF
