:020000040040BA
:1000000000040020C1004000C5004000C7004000BF
:10001000C9004000CB004000CD00400000000000BF
:10002000000000000000000000000000CF004000C1
:10003000D100400000000000D3004000D500400087
:10004000D7004000D7004000D7004000D700400054
:10005000D7004000D7004000D7004000000000005B
:10006000D7004000D700400000000000D70040004B
:10007000D7004000D7004000D7004000D700400024
:10008000000000000000000000000000D700400059
:10009000D7004000D700400000000000D70040001B
:1000A000D7004000D7004000D7004000D7004000F4
:1000B000D7004000D7004000D7004000D7004000E4
:1000C00008480047FEE7FEE7FEE7FEE7FEE7FEE73B
:1000D000FEE7FEE7FEE7FEE703480449044A054B56
:1000E000704700008501400000000020000400204F
:1000F0000002002000020020704770477047000097
:1001000040F26840C4F20E004FF4007244F2003135
:10011000C0F8982540F20112C5F24D01C0F2371225
:10012000C16740F8482C00BF0268D207FCD048F2F3
:100130000162C2F20F0240F8402C00BF0268920731
:10014000FCD550F8382C022363F3061240F8382C03
:1001500002681207FCD5222240F8382C02681207E8
:10016000FCD5002240F8682C4FF4E052013140F8F1
:10017000582CC16741F25440C4F20E004FF40041C4
:100180000160704700F03EF800F043F800F046F8D8
:1001900000F049F832490A68402A2CD000F057F89C
:1001A00000F037F800F03AF800F03DF800F04FF8B2
:1001B00000F03EF800F04BF800F03AF800F03DF89F
:1001C00000F045F800F025F800F041F800F030F8B4
:1001D00000F024F800F036F800F039F800F019F8D3
:1001E00000F035F800F024F800F027F800F02FF8C0
:1001F00000F00FF805E000F01BF800F01EF800F02A
:1002000021F8C7E74FF00704164D2C60164D2C60FF
:1002100070474FF00104154D2C6070474FF00204F9
:10022000124D2C6070474FF00404104D2C60704745
:100230004FF001040E4D2C6070474FF002040C4D3E
:100240002C6070474FF00404094D2C6070474FF04C
:1002500000044FF4003504F10104AC42FBD17047B7
:100260004C0E0E40000E0E40100E0E40300E0E4092
:04027000340E0E40FA
:040000050040018531
:00000001FF
