:100000000C9444010C9475010C9475010C947501C9
:100010000C9475010C9475010C9475010C94750188
:100020000C9475010C9475010C9475010C94750178
:100030000C9475010C9475010C9475010C94750168
:100040000C9475010C9475010C9475010C94750158
:100050000C9475010C9475010C9475010C9429068F
:100060000C9475010C94F3050C94C9050C9475015E
:100070000C9475010C9475010C9475010C94750128
:100080000C9475010C9475010C9475010C94750118
:100090000C9475010C9475010C9475010C94750108
:1000A0000C9475010C9475010C9475010C947501F8
:1000B0000C9475010C9475010C9475010C947501E8
:1000C0000C9475010C9475010C9475010C947501D8
:1000D0000C9475010C9475010C9475010C947501C8
:1000E0000C9475010C9444040C9481030C949303B8
:1000F0000C947B030C948F030C94ED020C949B05E1
:100100000C9497030C9477030C945C030C94A0025A
:100110000C9443040C9471030C940A020C94620333
:100120000C9489030C9485030C94A1030C949D03F7
:100130000C9468020C94FF030C9446020C946A031E
:100140000C9437020C943F040C942D0A0C949C03DD
:100150000C94AF060C9466030C94CE030C945A02D4
:100160000C946E0300002100240027002A002D00BB
:100170003000330001010000040107010A01000002
:100180002200250028002B002E003100340002013F
:100190000000050108010B010000200023002600DB
:1001A00029002C002F00320000010000030106018D
:1001B00009010505050507050808080802020202ED
:1001C0000A0A0808040404040101010101010101F3
:1001D0000303030303030303040707070C0C0C0CBE
:1001E0000C0C0C0C020202020606060606060606A7
:1001F0000B0B0B0B0B0B0B0B010210202008081034
:100200002040102040800201020108040201010286
:10021000040810204080804020100804020180045F
:1002200002018040201008040201080402010102BA
:1002300004081020408001020408102040800000C3
:100240000A0B02090C0D0E08070304010000000050
:10025000000000000000000000000000000000009E
:10026000000000000000000000001211100000005B
:10027000000000000000000000000000000000007E
:1002800000000000AF062D0A11241FBECFEFD1E2FF
:10029000DEBFCDBF00E00CBF23E0ACE6B2E001C0A2
:1002A0001D92AB3AB207E1F712E0A0E0B2E0EEEE49
:1002B000F8E100E00BBF02C007900D92AC36B10729
:1002C000D9F711E0C3E4D1E000E006C021970109AD
:1002D000802FFE010E943E0AC234D10780E0080749
:1002E000A9F70E9473070C94650C0C94000096E02B
:1002F000899FD0011124A85CBC4F90967C936E938B
:100300005F9791E091969C939197E091A503F0916E
:10031000A6039091A403992339F0309751F08111ED
:1003200008C0809154031994309719F05C968C9111
:10033000FACF0895CF92DF92EF92FF920F931F931F
:1003400096E0899FF0011124E85CFC4F11A2278DF3
:1003500030A12130310551F178F02230310509F416
:1003600051C02330310509F452C01F910F91FF9005
:10037000EF90DF90CF9008956623B9F361E070E0CD
:100380000E9477012FB7F8948091730290917402C4
:10039000A0917502B09176022FBF80939003909345
:1003A0009103A0939203B0939303DFCF9FB7F89488
:1003B000C0907302D0907402E0907502F0907602C3
:1003C0009FBF00919003109191032091920330916F
:1003D0009303C01AD10AE20AF30A0091A203109112
:1003E000A30330E020E00C151D052E053F0550F459
:1003F00062E070E01F910F91FF90EF90DF90CF903F
:100400000C9477016111B1CF63E070E0F3CF70E03D
:1004100060E0F0CFAF92BF92CF92DF92EF92FF9267
:100420000F931F93CF93DF936C017B018B01040F1C
:10043000151FEB015E01AE18BF08C017D10759F0B8
:100440006991D601ED91FC910190F081E02DC601FA
:100450001995892B79F7C501DF91CF911F910F91E4
:10046000FF90EF90DF90CF90BF90AF900895FC0188
:10047000538D448D252F30E0842F90E0821B930B09
:10048000541710F0CF96089501970895FC01918DAF
:10049000828D981761F0A28DAE0FBF2FB11D5D96B2
:1004A0008C91928D9F5F9F73928F90E008958FEF54
:1004B0009FEF0895FC01918D828D981731F0828D08
:1004C000E80FF11D858D90E008958FEF9FEF08955F
:1004D000FC01918D228D892F90E0805C9F4F821BC3
:1004E00091098F739927089587E792E00E94680227
:1004F00021E0892B09F420E0822F0895FC01A48DCE
:10050000A80FB92FB11DA35ABF4F2C91848D90E035
:1005100001968F739927848FA689B7892C93A08918
:10052000B1898C91837080648C93938D848D9813A2
:1005300006C00288F389E02D80818F7D8083089535
:10054000EF92FF920F931F93CF93DF93EC0181E023
:10055000888F9B8D8C8D98131AC0E889F9898081CA
:1005600085FF15C09FB7F894EE89FF896083E889FD
:10057000F98980818370806480839FBF81E090E0EF
:10058000DF91CF911F910F91FF90EF900895F62E7C
:100590000B8D10E00F5F1F4F0F731127E02E8C8D16
:1005A0008E110CC00FB607FCFACFE889F98980815B
:1005B00085FFF5CFCE010E947E02F1CFEB8DEC0FCF
:1005C000FD2FF11DE35AFF4FF0829FB7F8940B8F78
:1005D000EA89FB8980818062CFCFCF93DF93EC01E2
:1005E000888D8823B9F0AA89BB89E889F9898C911B
:1005F00085FD03C0808186FD0DC00FB607FCF7CFD7
:100600008C9185FFF2CF808185FFEDCFCE010E94D6
:100610007E02E9CFDF91CF91089580E090E0892BB1
:1006200029F00E94740281110E94000080E090E095
:10063000892B49F080E090E0892B29F00E9400008E
:1006400081110E94000080E090E0892B49F080E059
:1006500090E0892B29F00E94000081110E94000087
:1006600080E090E0892B49F080E090E0892B29F030
:100670000E94000081110C94000008958150823185
:1006800008F05AC0E82FF0E08827E65BFC4F8F4F58
:100690000C943E0A6A036E035C03620366039C03C8
:1006A000710377037B038103850389038F0393031E
:1006B0009C0397039D03A103809180008F77809313
:1006C00080000895809180008F7DF9CF8091800017
:1006D000877FF5CF84B58F7784BD089584B58F7DEE
:1006E000FBCF8091B0008F778093B0000895809108
:1006F000B0008F7DF9CF809190008F77809390002C
:100700000895809190008F7DF9CF80919000877F30
:10071000F5CF8091A0008F778093A00008958091FD
:10072000A0008F7DF9CF8091A000877FF5CF8091C9
:1007300020018F77809320010895809120018F7D83
:10074000F9CF80912001877FF5CFCF93DF93282FBA
:1007500030E0F901E25CFD4F8491F901E850FE4F71
:10076000D491F901EE54FE4FC491CC23A1F0811134
:100770000E943E03EC2FF0E0EE0FFF1FE856FE4F05
:10078000A591B491EC91ED2381E090E009F480E033
:10079000DF91CF91089580E090E0FACF862F0C94FE
:1007A000A5031F93CF93DF93282F30E0F901E25C7C
:1007B000FD4F8491F901E850FE4FD491F901EE54B8
:1007C000FE4FC491CC23A9F0162F81110E943E0345
:1007D000EC2FF0E0EE0FFF1FE258FE4FA591B49111
:1007E0008FB7F894EC91111108C0D095DE23DC93FB
:1007F0008FBFDF91CF911F910895DE2BF8CF862F09
:10080000642F0C94D103CF93DF9390E0FC01E85068
:10081000FE4F24918E549E4FFC0184918823C9F091
:1008200090E0880F991FFC01EC59FE4FA591B491FF
:10083000FC01E258FE4FC591D49161110DC09FB7E4
:10084000F8948C91209582238C9388812823288387
:100850009FBFDF91CF910895623051F49FB7F89414
:100860003C91822F809583238C93E8812E2BEFCFB0
:100870008FB7F894EC912E2B2C938FBFEACF862F55
:10088000642F0C940304089590E080E00895CF93C2
:10089000DF93EC0160E08E810E94D10361E08E81E4
:1008A0000E94D10360E08E810E94D1038BE891E029
:1008B0000197F1F7DF91CF910895CF92DF92EF92F8
:1008C000FF920F931F93CF93DF936C017C0187E01E
:1008D000E80EF11CD0E0C0E0062F10E0B8010C2EAD
:1008E00002C0759567950A94E2F76170F7018191EE
:1008F0007F010E94D1032196C430D10579F7C6014A
:10090000DF91CF911F910F91FF90EF90DF90CF90EB
:100910000C944704CF92DF92EF92FF920F931F93B4
:10092000CF93DF93EC01F62E642F8C810E94D103CC
:100930008D818F3F19F060E00E94D1030F2D10E0F0
:100940008F8584FF25C06E0187E0C80ED11CF12C75
:10095000E12CB8010E2C02C0759567950A94E2F758
:100960006170F60181916F010E94D103FFEFEF1AD0
:10097000FF0A88E0E816F10461F7CE01DF91CF911C
:100980001F910F91FF90EF90DF90CF900C94470450
:10099000B80184E0759567958A95E1F7CE010E94CC
:1009A0005D046F2DCE01DF91CF911F910F91FF90CC
:1009B000EF90DF90CF900C945D0440E0682F80E2D0
:1009C00093E00C948A0481E00E94DD048BE39FE1B4
:1009D0000197F1F70895CF93DF93823029F4909136
:1009E0002F03986090932F03809333031092340366
:1009F00080E48093350380E18093360380E5809323
:100A0000370361E0809124030E9403048091250351
:100A10008F3F19F061E00E94030461E0809126039A
:100A20000E940304C0E2D3E09E0120523340809133
:100A30002F0384FD0BC084E090E02196281739072E
:100A400044F461E08E810E940304EECF88E090E0E0
:100A5000F4CF8BE39DE00197F1F760E080912403F0
:100A60000E94D10360E0809126030E94D10380910F
:100A700025038F3F19F060E00E94D10380912F037E
:100A800084FD34C063E080E293E00E945D04CBE427
:100A9000D6E4CE010197F1F763E080E293E00E9493
:100AA0005D042197F1F763E080E293E00E945D042A
:100AB00083E592E00197F1F762E080E293E00E9423
:100AC0005D0480912F0380620E94DD0484E08093A6
:100AD00030038CE00E94DD040E94E30482E08093F6
:100AE000310386E0DF91CF910C94DD0480620E9497
:100AF000DD048BE496E40197F1F780912F03806287
:100B00000E94DD0483E592E00197F1F780912F03C5
:100B100080620E94DD04D5CF90913303691710F0F5
:100B20006FEF690FE62FF0E0E05EFC4F9489890FCC
:100B300080680C94DD0441E00E948A0481E090E02A
:100B400008950F931F93CF93DF93EC0188819981D0
:100B5000009759F02A813B812617370730F081E052
:100B6000DF91CF911F910F9108958B016F5F7F4FA0
:100B70000E946B0B009759F0998388831B830A832B
:100B80002C813D81232B59F7FC011082E8CF80E0B6
:100B9000E7CF1F920F920FB60F9211240BB60F9250
:100BA0002F933F934F935F936F937F938F939F9375
:100BB000AF93BF93EF93FF9387E792E00E947E028B
:100BC000FF91EF91BF91AF919F918F917F916F9125
:100BD0005F914F913F912F910F900BBE0F900FBEE1
:100BE0000F901F9018951F920F920FB60F9211241D
:100BF0000BB60F922F938F939F93EF93FF93E091F8
:100C00008702F09188028081E0918D02F0918E023E
:100C100082FD1DC09081809190028F5F8F73209123
:100C20009102821741F0E0919002F0E0E958FD4F07
:100C3000958F80939002FF91EF919F918F912F91CB
:100C40000F900BBE0F900FBE0F901F9018958081D4
:100C5000F2CF1F920F920FB60F9211242F933F9352
:100C60008F939F93AF93BF9380917302909174027F
:100C7000A0917502B09176023091700223E0230FAB
:100C80002D3758F50196A11DB11D20937002809358
:100C9000730290937402A0937502B09376028091D0
:100CA0006C0290916D02A0916E02B0916F0201965C
:100CB000A11DB11D80936C0290936D02A0936E02F2
:100CC000B0936F02BF91AF919F918F913F912F9100
:100CD0000F900FBE0F901F90189526E8230F0296D5
:100CE000A11DB11DD2CFEF92FF920F931F93CF930F
:100CF000DF93EC017B01198218821B821A821D820C
:100D00001C82FB0101900020E9F731978F01061B3F
:100D1000170BB8010E94A10528813981811113C0E8
:100D20002115310519F0C9010E94E20A19821882C1
:100D30001D821C821B821A82DF91CF911F910F911D
:100D4000FF90EF9008951D830C83B701C901DF91D7
:100D5000CF911F910F91FF90EF900C945E0C109229
:100D60007A021092790288EE93E0A0E0B0E08093DE
:100D70007B0290937C02A0937D02B0937E0282E27C
:100D800092E0909378028093770285EC90E09093C4
:100D900084028093830284EC90E090938602809397
:100DA000850280EC90E0909388028093870281EC2A
:100DB00090E090938A028093890282EC90E0909375
:100DC0008C0280938B0286EC90E090938E0280934D
:100DD0008D02109290021092910210929202109243
:100DE000930210923A0310923E0310923D03109228
:100DF0003F0380E492E09093390380933803E4E565
:100E0000F3E01082148213821582369683E0E03973
:100E1000F807B9F784E092E090939B0380939A03DC
:100E200080E092E090939D0380939C0384E0809304
:100E30009E0380939F0388E092E0909399038093B0
:100E400098038AE090E09093A1038093A00384EF3D
:100E500091E09093A3038093A2031092A6031092B3
:100E6000A50310929403109295031092960310928A
:100E700097031092A403109223031092220384E399
:100E800092E090932103809320038DE080932403CC
:100E90008FEF809325038CE08093260388E0809376
:100EA000270389E0809328038AE0809329038BE05D
:100EB00080932A0310922B0310922C0310922D037F
:100EC00010922E0310922F0381E00E94EB0466E43F
:100ED00072E08AE193E00E9473066AE472E084E1C2
:100EE00093E00C947306CF93DF931F921F92CDB7BC
:100EF000DEB7789484B5826084BD84B5816084BD9A
:100F000085B5826085BD85B5816085BD80916E00A7
:100F1000816080936E0010928100809181008260D8
:100F20008093810080918100816080938100809115
:100F300080008160809380008091B1008460809304
:100F4000B1008091B00081608093B00080919100E9
:100F500082608093910080919100816080939100E4
:100F6000809190008160809390008091A1008260C8
:100F70008093A1008091A10081608093A100809165
:100F8000A00081608093A000809121018260809305
:100F900021018091210181608093210180912001B4
:100FA00081608093200180917A00846080937A0030
:100FB00080917A00826080937A0080917A008160CB
:100FC00080937A0080917A00806880937A001092F2
:100FD000C100E0918702F091880282E08083E09175
:100FE0008302F09184021082E0918502F0918602E2
:100FF0008FEC808310928F02E0918B02F0918C0233
:1010000086E08083E0918902F0918A02808180618C
:101010008083E0918902F0918A02808188608083D8
:10102000E0918902F0918A02808180688083E0915A
:101030008902F0918A0280818F7D808382E00E9404
:10104000EB040E94E30460E0809171020E948C0531
:10105000412C512C32014394AA24AA94BA2C60E06A
:10106000809171020E948C0551E05093A4038FB7C8
:10107000F8944091730250917402609175027091DE
:1010800076028FBF8091940390919503A09196036F
:10109000B0919703481B590B6A0B7B0B8091A003FF
:1010A0009091A103B0E0A0E084179507A607B707C9
:1010B00008F015C110E080919E03181760F4E091CC
:1010C0009A03F0919B03E10FF11D62E080810E9481
:1010D00003041F5FF0CF312C80919F03381608F076
:1010E00061C0E32CF12CE0919C03F0919D03EE0D87
:1010F000FF1D61E080810E940304E0919C03F09158
:101100009D03EE0DFF1D60E080810E94D103D3019D
:10111000C201032C04C0880F991FAA1FBB1F0A9489
:10112000D2F74C016C01C094D094212C80919E0385
:10113000281608F5022D10E0E0919A03F0919B0328
:10114000E00FF11F80810E94A5030C5F1F4F000F6D
:10115000111FF801E85CFC4F892B41F480819181DB
:1011600088299929918380832394E0CF808191817C
:101170008C219D21F7CFE0919C03F0919D03EE0D12
:10118000FF1D61E080810E94D10380919C039091BA
:101190009D03E80EF91E60E0F70180810E940304C0
:1011A00033949ACF08E313E07801F701878D90A17B
:1011B000892B21F4148EB68EA58E11A2F6E0EF0EC7
:1011C000F11C54E7E51653E0F50679F7912C809170
:1011D0009E03981608F053C0812CC92CD12CCC0C3E
:1011E000DD1CC601805C9C4F6C0120919F03821620
:1011F00008F043C0F60160817181082C02C0769529
:1012000067950A94E2F7929E90011124280D311DF2
:10121000E8E3F3E080E0458D568D2417350709F4A7
:1012200004C18F5F36968A30B1F760FF24C0E8E3CF
:10123000F3E090E080E0448D411118C0E091980304
:10124000F0919903E20FF31F408156E0589FF0019F
:10125000599FF00D1124E85CFC4F448F368F258F89
:1012600010A2178E61E00E949A0105C00196369681
:101270008A30910501F78394B8CF9394A8CF80E08A
:10128000F80191A19111892F0A5F1F4FE016F10615
:10129000B9F79FB7F894409173025091740260912E
:1012A0007502709176029FBF40939403509395030B
:1012B0006093960370939703882389F08091590374
:1012C000882369F08091570390915803019739F46E
:1012D000F0905403F11006C00E940D03C0CE10928E
:1012E000A403FACFF3E4FF1233C00E94E30460E0EA
:1012F00080E00E948C05109272021092710270E0E0
:1013000060E084E193E00E94A105209114033091F4
:101310001503811113C02115310519F0C9010E946F
:10132000E20A1092150310921403109219031092FE
:1013300018031092170310921603CECF10921903C0
:10134000109218036AE472E0C9010E945E0CC4CFD7
:101350005AE2F51609F43FC0F9821A820091180387
:10136000109119030F5F1F4FB80184E193E00E94B1
:10137000A105882399F020911403309115038091E1
:10138000180390911903BE016F5F7F4F820F931F67
:101390000E945E0C10931903009318036F2D87E7CA
:1013A00092E00E94A00242E050E068E472E087E729
:1013B00092E00E940A0241E06F2D80E293E00E94D9
:1013C0008A04809171029091720201969093720248
:1013D0008093710281CF61E080E00E948C05409192
:1013E00018035091190320911E0330911F034217D7
:1013F0005307B1F4809114039091150360911A037F
:1014000070911B03009799F06115710531F4452B1C
:10141000D9F0FC01808190E015C00E94550C12C0EB
:101420004EE050E06CE572E013C061701CCF6115B6
:10143000710551F0232B41F0FB01808190E09195E3
:1014400081959109892B61F740E150E06BE472E0EE
:1014500080E293E00E940A023FCF809114039091B2
:101460001503009711F00E94E20A80911A039091EF
:101470001B03009711F00C94E20A0895EE0FFF1F72
:10148000881F8BBF0790F691E02D19940F931F933F
:10149000CF93DF938230910510F482E090E0E091E9
:1014A000A903F091AA0330E020E0B0E0A0E030977B
:1014B00099F42115310509F44AC0281B390B243051
:1014C0003105D8F58A819B816115710589F1FB0190
:1014D00093838283FE0111C0408151810281138177
:1014E00048175907E0F04817590799F4109761F029
:1014F00012960C93129713961C933296CF01DF919C
:10150000CF911F910F9108950093A9031093AA03FF
:10151000F4CF2115310551F04217530738F0A901D6
:10152000DB019A01BD01DF01F801C1CFEF01F9CF65
:101530009093AA038093A903CDCFFE01E20FF31F7E
:10154000819391932250310939832883D7CF2091F9
:10155000A7033091A803232B41F420911A02309164
:101560001B023093A8032093A70320911802309107
:1015700019022115310541F42DB73EB740911C02E7
:1015800050911D02241B350BE091A703F091A80395
:10159000E217F307A0F42E1B3F0B2817390778F04A
:1015A000AC014E5F5F4F2417350748F04E0F5F1FA9
:1015B0005093A8034093A703819391939FCFF0E0AA
:1015C000E0E09CCFCF93DF930097E9F0FC013297E6
:1015D00013821282A091A903B091AA03ED0130E019
:1015E00020E01097A1F420813181820F931F209178
:1015F000A7033091A8032817390709F061C0F093B9
:10160000A803E093A703DF91CF910895EA01CE17D5
:10161000DF07E8F54A815B819E0141155105B1F76D
:10162000E901FB83EA8349915991C40FD51FEC1757
:10163000FD0761F4808191810296840F951FE90175
:1016400099838883828193819B838A83F0E0E0E0A1
:1016500012968D919C9113970097B9F52D913C911D
:101660001197CD010296820F931F2091A70330910D
:10167000A8032817390739F6309751F51092AA03B5
:101680001092A903B093A803A093A703BCCFD38360
:10169000C28340815181840F951FC817D90761F417
:1016A0004E5F5F4F88819981480F591F5183408356
:1016B0008A819B81938382832115310509F0B0CF04
:1016C000F093AA03E093A9039ECFFD01DC01C0CFF4
:1016D00013821282D7CF4F925F926F927F928F9236
:1016E0009F92AF92BF92CF92DF92EF92FF920F93B1
:1016F0001F93CF93DF938C01009799F4CB01DF9177
:10170000CF911F910F91FF90EF90DF90CF90BF90FE
:10171000AF909F908F907F906F905F904F900C94C0
:10172000460AFC01E60FF71F9C0122503109E2171F
:10173000F30708F4AEC0D901CD91DC911197C6171B
:10174000D70720F1C530D10578F0CE010497861770
:10175000970750F0C61BD70B2297C193D1936D9377
:101760007C93CF010E94E20AC801DF91CF911F91C3
:101770000F91FF90EF90DF90CF90BF90AF909F9030
:101780008F907F906F905F904F9008955B01AC1A9F
:10179000BD0A4C018C0E9D1EA091A903B091AA0315
:1017A000512C412CF12CE12C109731F58091A7039D
:1017B0009091A8038815990509F05CC04616570654
:1017C00008F058C08091180290911902009741F4D6
:1017D0008DB79EB740911C0250911D02841B950B42
:1017E000E817F90708F055C0F093A803E093A703A2
:1017F000F90171836083B8CF8D919C9111971296F6
:101800006C90129713967C901397A815B90559F50B
:101810006C0142E0C40ED11CCA14DB0420F1AC01FF
:101820004A195B09DA011296159780F06282738279
:1018300051834083D9016D937C93E114F10471F0DD
:10184000D7011396FC93EE9312978ECF22968C0FAE
:101850009D1FF90191838083F301EFCFF093AA03D9
:10186000E093A90381CF4816590608F42C017D01A5
:10187000D3019ACFCB010E94460A7C01009749F020
:10188000AE01B8010E944C0CC8010E94E20A870117
:101890006BCF10E000E068CFFB01DC0102C00190DB
:1018A0000D9241505040D8F70895FB01DC018D9115
:1018B000019080190110D9F3990B0895FB01DC0107
:1018C00001900D920020E1F7089511E0C3E4D1E00A
:1018D00000E006C0802FFE010E943E0A2196011DF5
:0E18E000C434D10780E00807A9F7F894FFCFC1
:1018EE0017191B1D1F2123253738392F3435362A5A
:1018FE003132332D43303D2B0000AB03800000000E
:10190E000000A0020A023702ED02680246025A02E5
:10191E00000000009B050A0244044304000000007E
:10192E003F04FF03CE0339000D0A00436F72726548
:10193E0063742070617373776F72640057726F6E89
:0C194E00672070617373776F7264000093
:00000001FF
