:100000000C9463000C948B000C948B000C948B006C
:100010000C948B000C948B000C948B000C94AE040D
:100020000C948B000C948B000C948B000C948B0024
:100030000C948B000C948B000C948B000C948B0014
:100040000C9430050C948B000C948B000C948B005A
:100050000C948B000C948B000C948B000C948B00F4
:100060000C948B000C948B000000000024002700EF
:100070002A000000000023002600290000000008DC
:10008000000201000003040700000000000000005F
:10009000010204081020408001020408102001021F
:1000A0000408102000000000250028002B00040494
:1000B0000404040404040202020202020303030310
:1000C00003030200820811241FBECFEFD8E0DEBF79
:1000D000CDBF15E0A0E0B1E0E6EFF5E102C005908C
:1000E0000D92A03AB107D9F726E0A0EAB5E001C029
:1000F0001D92A932B207E1F710E0C3E6D0E004C0D8
:100100002197FE010E94E40AC236D107C9F70E9476
:100110007A050C94F90A0C94000080E480937C002A
:1001200080917A00806480937A0080917A0086FDC5
:10013000FCCF8091780090917900089596E0899F96
:10014000D0011124A755BA4F90967C936E935F9778
:1001500091E091969C939197E0911606F091170685
:1001600090911506992339F0309751F0811108C00C
:100170008091C5050994309719F05C968C91FACF5F
:100180000895CF92DF92EF92FF920F931F9396E024
:10019000899FF0011124E755FA4F11A2278D30A154
:1001A0002130310551F178F02230310509F451C088
:1001B0002330310509F452C01F910F91FF90EF9049
:1001C000DF90CF9008956623B9F361E070E00E945C
:1001D0009E002FB7F8948091A5059091A605A09157
:1001E000A705B091A8052FBF809301069093020642
:1001F000A0930306B0930406DFCF9FB7F894C09096
:10020000A505D090A605E090A705F090A8059FBF92
:100210000091010610910206209103063091040618
:10022000C01AD10AE20AF30A0091130610911406CB
:1002300030E020E00C151D052E053F0550F462E06E
:1002400070E01F910F91FF90EF90DF90CF900C9492
:100250009E006111B1CF63E070E0F3CF70E060E029
:10026000F0CF833081F028F4813099F08230A9F00A
:1002700008958730A9F08830C9F08430B1F48091B6
:1002800080008F7D03C0809180008F7780938000F5
:10029000089584B58F7784BD089584B58F7DFBCF95
:1002A0008091B0008F778093B00008958091B00066
:1002B0008F7DF9CFCF93DF93282F30E0F901E458F9
:1002C000FF4F8491F901E057FF4FD491F901E255B6
:1002D000FF4FC491CC23A1F081110E943101EC2F7A
:1002E000F0E0EE0FFF1FEE58FF4FA591B491EC9197
:1002F000ED2381E090E009F480E0DF91CF91089553
:1003000080E090E0FACF862F0C945A011F93CF9390
:10031000DF93282F30E0F901E458FF4F8491F90171
:10032000E057FF4FD491F901E255FF4FC491CC2320
:10033000A9F0162F81110E943101EC2FF0E0EE0F91
:10034000FF1FEC55FF4FA591B4918FB7F894EC9136
:10035000111108C0D095DE23DC938FBFDF91CF91C0
:100360001F910895DE2BF8CF862F642F0C94860101
:10037000CF93DF9390E0FC01E057FF4F249182552B
:100380009F4FFC0184918823C9F090E0880F991F4A
:10039000FC01E859FF4FA591B491FC01EC55FF4FCA
:1003A000C591D49161110DC09FB7F8948C9120959F
:1003B00082238C938881282328839FBFDF91CF914C
:1003C0000895623051F49FB7F8943C91822F809544
:1003D00083238C93E8812E2BEFCF8FB7F894EC9189
:1003E0002E2B2C938FBFEACF4F925F926F927F920A
:1003F0008F929F92AF92BF92CF92DF92EF92FF9235
:100400000F931F93CF93DF9300D000D01F92CDB7EF
:10041000DEB78C012A013B01809118018830C9F0B8
:100420008F3F09F47FC00F900F900F900F900F90A7
:10043000DF91CF911F910F91FF90EF90DF90CF90C0
:10044000BF90AF909F908F907F906F905F904F90F4
:100450000895E2ECF0E084918D8387FDE4CF61E0C4
:1004600088E00E94B8018D81882321F09D8192301F
:1004700009F05CC14801B12CA12C60E072E18AE76F
:1004800090E0A50198010E94A60A29833A834B8334
:100490005C8369017A0181E0C81AD108E108F1089A
:1004A0009FEFC916D104E104F10409F00CF413C163
:1004B00060E472E48FE090E0A50198010E94A60A32
:1004C00069017A0181E0C81AD108E108F1089D812B
:1004D000923009F098C08FEFC816D104E104F104FE
:1004E00009F00CF4DDC160E970ED83E090E0A50156
:1004F00098010E94A60A69017A0191E0C91AD108FF
:10050000E108F1088FEFC816D104E104F10411F0FD
:100510000CF0A3C183E09091B100987F892B809368
:10052000B100E1C088E080931801E2ECF0E0949122
:100530009D839F3F09F477CF913029F158F0923095
:1005400009F43FC08D8187FD6ECF61E088E00E9495
:10055000B8018CCF14BC15BC84B5826084BD85B550
:10056000816085BDE6EBF0E0E491F0E0EE0FFF1F67
:10057000EC55FF4F85919491E8E9F0E0E491E09328
:100580001C061D826CCF1092800010928100809119
:1005900081008860809381008091810081608093D8
:1005A0008100E6EBF0E0E491F0E0EE0FFF1FEC5588
:1005B000FF4F85919491E8E9F0E0E491E0931B0608
:1005C0004ECF1092B0001092B1008091B0008260C6
:1005D0008093B0008091B10081608093B100E6EB20
:1005E000F0E0E491F0E0EE0FFF1FEC55FF4F859136
:1005F000949190931A0680931906E8E9F0E0E4914B
:10060000E09318062CCF9FEFC916D104E104F10442
:1006100009F00CF489C068E478EE81E090E0A5016F
:1006200098010E94A60A69017A0181E0C81AD108DE
:10063000E108F1089D81992309F428C19FEFC916AB
:10064000D104E104F10409F00CF41EC162E17AE77F
:1006500080E090E0A50194010E94A60A69017A0158
:1006600081E0C81AD108E108F1089D81992309F4B5
:10067000EBC08FEFC816D104E104F10411F008F0CB
:10068000BFC086E048CF64E274EF80E090E0A5014F
:1006900094010E94A60A69017A0181E0C81AD10872
:1006A000E108F10885E09FEFC916D104E104F104E7
:1006B00009F008F430CF62E17AE780E090E0A5012C
:1006C00094010E94A60A69017A0191E0C91AD10831
:1006D000E108F108CECF81E09D8191111CCF95B545
:1006E000987F892B85BD2FEF3FEFA901411451045D
:1006F0006104710409F043C09D81913009F45EC02A
:10070000923009F46DC091118ECEC7BC209325069E
:1007100030932606409327065093280680916E005A
:10072000826080936E007FCE82E0D6CFB12CA12C68
:1007300060E072E18AE790E0A50198010E94A60AB4
:1007400069017A0181E0C81AD108E108F108C114F1
:10075000D10491E0E906F10404F591E08D81813046
:1007600011F680918100887F892B809381002FEF83
:100770003FEFA9014114510461047104F9F0D8015B
:10078000AA0FBB1FA30192010E94C50A28EE33E005
:1007900040E050E00E94840AAFCF68E478EE81E048
:1007A00090E0A50198010E94A60A69017A0181E002
:1007B000C81AD108E108F10893E0D0CFD09289009F
:1007C000C09288002093210630932206409323068E
:1007D0005093240680916F00826080936F0023CE37
:1007E000C092B30020931D0630931E0640931F064F
:1007F000509320068091700082608093700013CE29
:10080000C980DA80EB80FC809AE0F594E794D79475
:10081000C7949A95D1F791E0C91AD108E108F10877
:1008200087E079CEC980DA80EB80FC808AE0F5949D
:10083000E794D794C7948A95D1F791E0C91AD10863
:10084000E108F10885E04BCF8FEFC816D104E10431
:10085000F10409F038F784E042CF68E478EE81E0F3
:1008600090E0A50198010E94A60A69017A0191E031
:10087000C91AD108E108F1088FEFC816D104E104C4
:10088000F10411F00CF0FFCE84E045CE8FEFC816D6
:10089000D104E104F10411F00CF0D8CE83E01FCFB5
:1008A00082E039CE862F642F0C94B8013FB7F894BC
:1008B0008091A1059091A205A091A305B091A405F6
:1008C00026B5A89B05C02F3F19F00196A11DB11DAB
:1008D0003FBFBA2FA92F982F8827BC01CD01620FE7
:1008E000711D811D911D42E0660F771F881F991FA2
:1008F0004A95D1F708958F929F92AF92BF92CF926F
:10090000DF92EF92FF926B017C010E9456044B0133
:100910005C01C114D104E104F104B9F00E94560451
:10092000681979098A099B09683E73408105910518
:1009300080F321E0C21AD108E108F10888EE880EA0
:1009400083E0981EA11CB11CE4CFFF90EF90DF90D4
:10095000CF90BF90AF909F908F9008951F920F926D
:100960000FB60F9211242F933F934F935F936F9382
:100970007F938F939F93AF93BF93EF93FF93809158
:100980001D0690911E06A0911F06B0912006892B8E
:100990008A2B8B2BD1F190911806E0911906F091DA
:1009A0001A0680818927808380911D0690911E06FA
:1009B000A0911F06B0912006181619061A061B06EC
:1009C0009CF480911D0690911E06A0911F06B09187
:1009D00020060197A109B10980931D0690931E0678
:1009E000A0931F06B0932006FF91EF91BF91AF91A6
:1009F0009F918F917F916F915F914F913F912F9137
:100A00000F900FBE0F901F90189580911801E2EC87
:100A1000F0E0E4919FEF90931801E13051F030F055
:100A2000E23069F060E00E948601DECF10926E0035
:100A3000F9CF90916F009D7F90936F00F3CF9091CD
:100A400070009D7F9093700091E09093B000909122
:100A5000B100987F94609093B1001092B300E2CF00
:100A60001F920F920FB60F9211242F933F938F93E3
:100A70009F93AF93BF938091A5059091A605A091F8
:100A8000A705B091A8053091A00523E0230F2D37CD
:100A900058F50196A11DB11D2093A0058093A505D1
:100AA0009093A605A093A705B093A8058091A105F2
:100AB0009091A205A091A305B091A4050196A11D56
:100AC000B11D8093A1059093A205A093A305B093B7
:100AD000A405BF91AF919F918F913F912F910F905E
:100AE0000FBE0F901F90189526E8230F0296A11DA8
:100AF000B11DD2CF789484B5826084BD84B5816005
:100B000084BD85B5826085BD85B5816085BD8091D8
:100B10006E00816080936E00109281008091810050
:100B20008260809381008091810081608093810048
:100B3000809180008160809380008091B10084600A
:100B40008093B1008091B00081608093B00080916B
:100B50007A00846080937A0080917A00826080932A
:100B60007A0080917A00816080937A0080917A0087
:100B7000806880937A001092C10060E089E00E9452
:100B8000B801E4EF2E2E3324339481E080931506D0
:100B90008FB7F8944091A5055091A6056091A705DF
:100BA0007091A8058FBF8091050690910606A091CF
:100BB0000706B0910806481B590B6A0B7B0B809106
:100BC000110690911206B0E0A0E084179507A607E1
:100BD000B70708F077C1C0E080910F06C81760F42E
:100BE000E0910B06F0910C06EC0FF11D62E08081A4
:100BF0000E94B801CF5FF0CFB12C80911006B816DB
:100C000008F061C00B2D10E0E0910D06F0910E068A
:100C1000E00FF11F61E080810E94B801E0910D06B4
:100C2000F0910E06E00FF11F60E080810E948601C6
:100C300081E090E0A0E0B0E00B2C04C0880F991F89
:100C4000AA1FBB1F0A94D2F76C017C01E094F094B8
:100C5000A12C80910F06A816F8F4CA2DD0E0E091DF
:100C60000B06F0910C06EC0FFD1F80810E945A01CB
:100C70002496CC0FDD1FC755DA4F892B41F48881AC
:100C800099818C299D2999838883A394E2CF8881B7
:100C900099818E219F21F7CFE0910D06F0910E06EC
:100CA000E00FF11F61E080810E94860180910D06B6
:100CB00090910E06080F191F60E0F80180810E94D4
:100CC000B801B3949ACF69EAC62E65E0D62EE60144
:100CD0008F8D98A1892B31F41C8E8FEF9FEF9E8F03
:100CE0008D8F19A2269695E0C53ED90789F710E0A9
:100CF00080910F06181708F053C000E0E12EF12C88
:100D0000EE0CFF1CF701EF54FA4F7F012091100603
:100D1000021708F043C0F70160817181002E02C004
:100D2000769567950A94E2F7129F90011124200F9F
:100D3000311DE9EAF5E080E0458D568D2417350731
:100D400009F4DEC18F5F36968A30B1F760FF24C0A8
:100D5000E9EAF5E090E080E0448D411118C0E091AF
:100D60000906F0910A06E20FF31F608146E0489FF2
:100D7000F001499FF00D1124E755FA4F648F368F2B
:100D8000258F10A2178E61E00E94C10005C0019658
:100D900036968A30910501F70F5FB8CF1F5FA8CF55
:100DA00080E0F60191A19111892FF6E0CF0ED11CC0
:100DB000CC15DD05B1F79FB7F8944091A50550918A
:100DC000A6056091A7057091A8059FBF40930506F1
:100DD000509306066093070670930806882309F46B
:100DE00071C08091CA05882309F46CC08091C80540
:100DF0009091C905019709F065C08091C5050DEF77
:100E000014E04BE5A42E44E0B42E813309F4AAC0CB
:100E1000823309F0B7C00FEB13E033E2A32E33E0C7
:100E2000B32EF4E00B351F0709F44EC089E00E9491
:100E30005A01019709F4A2C00E948D009C01F8019B
:100E4000619171918F01C1010E94700AF501C191F8
:100E5000D1915F016B01770FEE08FF08B901330FE5
:100E6000880B990B0E94770920E030E040E05BE3BB
:100E70000E94030A2B013C01BE01DD0F880B990B78
:100E80000E9477099B01AC01C301B2010E94030AD1
:100E90000E944609CB01B701A6010E94F401C701D7
:100EA000B6010E94770926E636E646EA5FE30E942D
:100EB000030A0E943F09072E000C880B990B0E9421
:100EC0007B04AFCF1092150680E090E0892B09F4E7
:100ED0005CCE0E94000059CE0E948D009C01F8015A
:100EE000619171918F0180E991E00E94700AF50192
:100EF000C191D1915F016B01770FEE08FF08B90135
:100F0000330F880B990B0E94770920E030E040E016
:100F10005BE30E94030A2B013C01BE01DD0F880B3D
:100F2000990B0E9477099B01AC01C301B2010E9499
:100F3000030A0E944609CB01B701A6010E94F401F1
:100F4000C701B6010E94770926E636E646EA5FE366
:100F50000E94030A0E943F09072E000C880B990B80
:100F60000E947B048FE995E08017910709F4ACCFCC
:100F700089E00E945A01019709F0AECF90E080E02D
:100F80000E94F90A833309F057C007EA12E02BE206
:100F9000A22E22E0B22E83E293E08017910709F49B
:100FA00093CF89E00E945A01019741F30E948D007E
:100FB0009C01F801619171918F01C1010E94700A39
:100FC000F501C191D1915F016B01770FEE08FF0828
:100FD000B901330F880B990B0E94770920E030E0AC
:100FE00040E05BE30E94030A2B013C01BE01DD0FE0
:100FF000880B990B0E9477099B01AC01C301B201D8
:101000000E94030A0E944609CB01B701A6010E9473
:10101000F401C701B6010E94770926E636E646EAE2
:101020005FE30E94030A0E943F09072E000C880B11
:10103000990B0E947B04AFCF843309F045CF8BE737
:10104000E82E81E0F82E93E2C92E91E0D92EFBE242
:10105000EF16F2E0FF0609F437CF89E00E945A014B
:10106000019709F48BCF0E948D008C01F70121912B
:101070003191419151917F0160E070E086E194E40B
:101080000E94CD080E943F09F601C191D1916F01E4
:101090004B01770FAA08BB08B801110F880B990BF9
:1010A0000E94770920E030E040E05BE30E94030A01
:1010B0002B013C01BE01DD0F880B990B0E947709C3
:1010C0009B01AC01C301B2010E94030A0E944609C0
:1010D000CB01B501A4010E94F401C501B4010E9435
:1010E000770926E636E646EA5FE30E94030A0E9495
:1010F0003F09072E000C880B990B0E947B04A7CF99
:10110000617042CE1092AB051092AF051092AE0501
:101110001092B0058DE191E09093AA058093A90506
:10112000E5ECF5E01082148213821582369686E093
:10113000E130F807B9F784E091E090930C068093D2
:101140000B0680E091E090930E0680930D0684E0FC
:1011500080930F068093100688E091E090930A0632
:10116000809309068AE090E090931206809311061E
:1011700084EF91E090931406809313061092170663
:101180001092160610920506109206061092070697
:10119000109208061092150608950E94E1080C941A
:1011A000C9090E94C20958F00E94BB0940F029F405
:1011B0005F3F29F00C94B20951110C94FD090C9475
:1011C000B8090E94DA0968F39923B1F3552391F322
:1011D000951B550BBB27AA2762177307840738F0A6
:1011E0009F5F5F4F220F331F441FAA1FA9F335D003
:1011F0000E2E3AF0E0E832D091505040E695001CB7
:10120000CAF72BD0FE2F29D0660F771F881FBB1F70
:10121000261737074807AB07B0E809F0BB0B802D4E
:10122000BF01FF2793585F4F3AF09E3F510578F07A
:101230000C94B2090C94FD095F3FE4F3983ED4F39B
:10124000869577956795B795F7959F5FC9F7880F4E
:10125000911D9695879597F90895E1E0660F771FA0
:10126000881FBB1F621773078407BA0720F0621B31
:10127000730B840BBA0BEE1F88F7E09508950E945C
:1012800046096894B1110C94FD0908950E94E20981
:1012900088F09F5798F0B92F9927B751B0F0E1F037
:1012A000660F771F881F991F1AF0BA95C9F714C0E7
:1012B000B13091F00E94FC09B1E008950C94FC0952
:1012C000672F782F8827B85F39F0B93FCCF3869520
:1012D00077956795B395D9F73EF49095809570957D
:1012E00061957F4F8F4F9F4F0895E89409C097FBFA
:1012F0003EF490958095709561957F4F8F4F9F4FED
:101300009923A9F0F92F96E9BB279395F695879530
:1013100077956795B795F111F8CFFAF4BB0F11F4F3
:1013200060FF1BC06F5F7F4F8F4F9F4F16C088239A
:1013300011F096E911C0772321F09EE8872F762FD0
:1013400005C0662371F096E8862F70E060E02AF011
:101350009A95660F771F881FDAF7880F96958795FD
:1013600097F9089597F99F6780E870E060E0089525
:101370009FEF80EC089500240A94161617061806AD
:101380000906089500240A94121613061406050689
:101390000895092E0394000C11F4882352F0BB0F1A
:1013A00040F4BF2B11F460FF04C06F5F7F4F8F4F7D
:1013B0009F4F089557FD9058440F551F59F05F3FB8
:1013C00071F04795880F97FB991F61F09F3F79F067
:1013D00087950895121613061406551FF2CF4695E9
:1013E000F1DF08C0161617061806991FF1CF86956B
:1013F0007105610508940895E894BB27662777274F
:10140000CB0197F908950E94160A0C94C9090E940D
:10141000BB0938F00E94C20920F0952311F00C940A
:10142000B2090C94B80911240C94FD090E94DA0940
:1014300070F3959FC1F3950F50E0551F629FF00127
:10144000729FBB27F00DB11D639FAA27F00DB11D40
:10145000AA1F649F6627B00DA11D661F829F2227C9
:10146000B00DA11D621F739FB00DA11D621F839F50
:10147000A00D611D221F749F3327A00D611D231F26
:10148000849F600D211D822F762F6A2F11249F5774
:1014900050409AF0F1F088234AF0EE0FFF1FBB1F77
:1014A000661F771F881F91505040A9F79E3F510536
:1014B00080F00C94B2090C94FD095F3FE4F3983E70
:1014C000D4F3869577956795B795F795E7959F5FE0
:1014D000C1F7FE2B880F911D9695879597F9089572
:1014E00097FB072E16F4009407D077FD09D00E94D1
:1014F000D00A07FC05D03EF4909581959F4F089542
:10150000709561957F4F0895A1E21A2EAA1BBB1B0F
:10151000FD010DC0AA1FBB1FEE1FFF1FA217B307BF
:10152000E407F50720F0A21BB30BE40BF50B661FD5
:10153000771F881F991F1A9469F760957095809599
:1015400090959B01AC01BD01CF010895052E97FB3D
:101550001EF400940E94BD0A57FD07D00E94840A21
:1015600007FC03D04EF40C94BD0A5095409530957D
:1015700021953F4F4F4F5F4F0895909580957095FF
:1015800061957F4F8F4F9F4F08950E94EA0AA59F54
:10159000900DB49F900DA49F800D911D112408956E
:1015A000AA1BBB1B51E107C0AA1FBB1FA617B70789
:1015B00010F0A61BB70B881F991F5A95A9F78095A5
:1015C0009095BC01CD010895EE0FFF1F0590F49199
:1015D000E02D0994A29FB001B39FC001A39F700D9D
:1015E000811D1124911DB29F700D811D1124911D2B
:0615F0000895F894FFCFFE
:1015F60003020100070605043738392F3435362A29
:101606003132332D6F303D2BFF000000005204B401
:101616000183018801880188014A01D20188014AB3
:1016260001D20188014B024B024B026E02D20172BB
:10163600014A01D20188011003880188011003E4E0
:1016460002BA0293026E02930200009F012A020B65
:1016560002EE01D201B801D20100004A0172014A2C
:10166600018801D2018801D2014B020000C040006E
:1016760000C0400000C040000000410000C0410022
:1016860000C040000000410000C041000040400092
:1016960000C0400000C0400000C040000000410003
:1016A60000C0410000C040000000410000C04100F1
:1016B6000040400000C040000000410000C0410062
:1016C60000C040000000410000C0410000C04100D1
:1016D60000C0410000404100004041000040410080
:1016E60000C040000000410000C0410000C04100B1
:1016F60000C0410000404100004041000040410060
:1017060000C040000000410000C0410000C0400091
:101716000000410000C041000040404A014A015D0E
:1017260001880188015D014A01260106010601269C
:10173600014A014A01260126014A014A015D018842
:101746000188015D014A0126010601060126014ABA
:1017560001260106010601260126014A0106012687
:10176600014A015D014A01060126014A015D014A5D
:1017760001260106012601C40093029302BA021053
:10178600031003BA0293024B020B020B024B0293A5
:10179600024B020B020B02060006000600060006BC
:1017A6000006000600060006000600060006000405
:1017B600000C0003000600060006000600060006F0
:1017C6000006000600060006000600060004000CDF
:1017D600000300060006000600060006000C000CCA
:1017E600000600060006000C000C000600060006B7
:1017F60000060003000600060006000600060006B6
:101806000006000600060006000600060004000C9E
:101816000003004D0A4D0A00004D0A00002D084D38
:101826000A0000400C000000000000200600000036
:101836000000002D08000000002006000000002720
:101846000500000000E0060000B80700004907E0B8
:1018560006000020064D0A400CC00D0000EA0A40B2
:101866000C00004D0A00002D082D09B807000000E5
:10187600002D0800000000200600000000270500DB
:10188600000000E0060000B80700004907E0060077
:101896000020064D0A400CC00D0000EA0A400C006C
:1018A600004D0A00002D082D09B807000000000CA5
:1018B600000C000C000C000C000C000C000C000CC2
:1018C600000C000C000C000C000C000C000C000CB2
:1018D600000C000C000C000C000C000C000C000CA2
:1018E600000C000C000C000C000C000C000C000995
:1018F60000090009000C000C000C000C000C000C88
:10190600000C000C000C000C000C000C000C000C71
:10191600000C000C000C000C000C000C000C000C61
:10192600000C000C000C000C000C000C0009000957
:101936000009000C000C000C000C000C000C000C44
:10194600000C000C000C000C000C002601B801B8BD
:1019560001B80126012601B801B801B8012601B86F
:1019660001D2010B02B8014B020B020B02D201D2CB
:1019760001B801B80188015D0188010B02B8012692
:1019860001060126014A015D014A015D018801B88F
:10199600010B02D201B80188015D014A0126010648
:1019A60001880188018801B801D201B80188015D6A
:1019B600018801B80188015D014A015D0188015D68
:1019C600014A012601D201B801B801880188015DEA
:1019D600015D014A01B801880188015D015D014A86
:1019E600014A0126015D015D018801B80104000874
:1019F60000080004000400040008000800040004B5
:101A0600000400080008000200080008000800089A
:101A1600000800080008000800040008000800028A
:101A26000008000800080008000800080008000870
:101A36000008000800080008000800080008000860
:101A46000004000800080004000400040008000860
:101A56000004000400040008000800040004000458
:101A66000008000800020008000800080008000836
:101A76000008000800080008000800080008000820
:101A86000008000800080004000800080002000022
:00000001FF
